S01600002E2F44656275672F70312D70726F642E733139E8
S315200000000248854600F05EFEFEE7C04600C001209D
S3152000001080B582B000AF0200FB1D1A70FB1D1B7855
S315200000201A001F231A400749FB1D1B785BB25B0988
S315200000300120904002009B005A50C046BD4602B0A7
S3152000004080BDC04600E100E080B582B000AF02006E
S315200000503960FB1D1A70FB1D1B787F2B0DD93B6861
S31520000060DAB20F49FB1D1B7818000F230340043B0F
S315200000701201D2B2CB181A760DE03B68DBB20949E1
S31520000080FA1D127852B21B01D8B2C0239B008A18DF
S31520000090D318021C1A70C046BD4602B080BDC046A9
S315200000A000ED00E000E100E080B582B000AF7860AE
S315200000B07B68013B0C4A934201D9012310E00B4B8C
S315200000C07A68013A5A6001235B420F211800FFF734
S315200000D0BBFF064B00229A60044B07221A600023BE
S315200000E01800BD4602B080BDFFFFFF0010E000E013
S315200000F080B582B000AF0200FB1D1A70C0460B4BC4
S315200001001B889BB21A0080231340F8D0074AFB1D98
S315200001101B789BB29380FB1D1B780A2B02D10D20E6
S31520000120FFF7E6FFC046BD4602B080BD0010014085
S3152000013080B500AF074B1B889BB21A0020231340C3
S3152000014001D1002303E0034B9B889BB2DBB218004E
S31520000150BD4680BD0010014080B500AFC046074BAC
S315200001601B889BB21A0020231340F8D0034B9B8890
S315200001709BB2DBB21800BD4680BDC04600100140D0
S3152000018080B582B000AF786006E07B685A1C7A6042
S315200001901B781800FFF7ACFF7B681B78002BF4D187
S315200001A0C046BD4602B080BD80B582B000AF786043
S315200001B07B681800FFF7E4FF0A20FFF799FFC04687
S315200001C0BD4602B080BD80B584B000AF3B001800AC
S315200001D000F016FA031E64D03B009B78042B62D8ED
S315200001E09A00354BD3181B689F463B001B7B013B6F
S315200001F0180000F00DFC314B1800FFF7C1FF3B0043
S315200002001B7B3033DBB21800FFF772FF50E03B0058
S31520000210DB7A1A003B001B7B1900100000F070FCF3
S31520000220274B1800FFF7ACFF3B00DB7A3133DBB2FC
S315200002301800FFF75DFF3BE03B009B7A6E2B36D024
S315200002403B009B7A002B14D13B00DB7A1A003B0043
S315200002501B7B1900100000F013FC1A4B1800FFF747
S315200002608FFF3B00DB7A3133DBB21800FFF740FF0C
S315200002701DE03B00DB7A1A003B001B7B19001000B7
S3152000028000F01EFC104B1800FFF77AFF3B00DB7ACC
S315200002903133DBB21800FFF72BFF08E000F01AFA23
S315200002A006E0C04604E0C04602E0C04600E0C04684
S315200002B0C046BD4604B080BDC0390020503900205C
S315200002C06839002084390020A039002090B58DB0EF
S315200002D000AF786028243B19180002F0DFF86B4B3A
S315200002E0180001F097FF6A4B180000F0A1FD80234B
S315200002F09B040121180002F0DBFF0121022002F0FD
S3152000030077FF624B09220921180002F0B8F95F4BEA
S3152000031009220821180002F0B2F921007B18802258
S3152000032092001A607B1802221A717B1800229A7199
S315200003307B180022DA717B1802225A710C007B1876
S31520000340524A1900100002F01DF821007B18802265
S3152000035052001A607B1802221A717B1800229A71A9
S315200003607B180122DA717B1802225A710C007B1845
S31520000370464A1900100002F005F821007B18402299
S315200003801A607B1802221A717B1800229A717B1838
S315200003900022DA717B1802225A710C007B183B4A24
S315200003A01900100001F0EEFF21007B1820221A60B0
S315200003B07B1802221A717B1800229A717B1801225F
S315200003C0DA717B1802225A717B18304A1900100004
S315200003D001F0D8FF18217B1800229A727B18002280
S315200003E0DA727B1801221A737B182A4A1A807B1824
S315200003F000225A807B18284A9A807B180022DA80AD
S315200004007B1800221A817B1801225A737B18180048
S3152000041000F018FE0C217B1800229A717B1800220E
S31520000420DA717B1800221A727B1800225A727B1806
S3152000043000229A727B180022DA727B1800229A70A8
S315200004407B180022DA707B1802221A717B1803228D
S315200004505A717B1807221A807B180D4A1900100042
S3152000046000F00EFD0D4B7A681A60094B012202211D
S31520000470180001F06EFB02211420FFF7E5FD142081
S31520000480FFF7C6FDC046BD460DB090BD0004024034
S315200004900064004020400000E043000090C001209E
S315200004A090B587B000AF786008203B1800221A70FC
S315200004B03B1800225A703B1800229A703B180122E2
S315200004C0DA7010497A6813005B009B18DB00CB18A2
S315200004D001331A783B181A7304003B181B7B303300
S315200004E0DBB21800FFF704FE20003B1808221A7121
S315200004F03B18180000F008F803001800BD4607B0A6
S3152000050090BDC04658380020B0B58AB000AF78609C
S315200005103A4B3B621F23FB1800221A707B681B781C
S315200005209A027B685B785B021A437B689B785B0147
S3152000053013437A68D27813431A0008217B181A606D
S315200005407B1800225A727B1800221A727B681B794C
S31520000550082B02D97B6808221A717B681A7908232E
S31520000560FB189A722723FB1800221A7011E0272005
S315200005703B181A783B181B7879688A185179082213
S31520000580BA18D3180A1CDA723B181A783B180132AB
S315200005901A707B681B792722BA1812789A42E6D3FA
S315200005A01F257C190823FA183B6A1100180000F051
S315200005B007FF030023707B191B78042B01D100232E
S315200005C018E0C0461F23FB181A783B6A1100180052
S315200005D000F0E7FF0300022BF4D01F23FB181A7844
S315200005E03B6A1100180000F0DCFF031E01D1002336
S315200005F000E001231800BD460AB0B0BD00640040EB
S3152000060090B589B000AF7860304A314B11001800A0
S3152000061001F0BCFA0300012B01D0002351E0082190
S315200006200C007B182A481A00002101F050F82100FE
S315200006307B181B689B0ADBB201221340DAB27B6867
S315200006401A707B181B685B0ADBB201221340DAB2F0
S315200006507B685A707B181B685B09DBB20F2213403C
S31520000660DAB27B689A707B181B68DBB21F221340B4
S31520000670DAB27B68DA707B189B7A0F221340DAB2E3
S315200006807B681A711F23FB1800221A7011E01F20A5
S315200006903B181A783B181B78082179188A18D17AC2
S315200006A07A68D3180A1C5A713B181A783B180132FB
S315200006B01A707B681B791F22BA1812789A42E6D3E1
S315200006C001231800BD4609B090BDC04603000012A4
S315200006D00064004080B584B000AF3B0000221A7051
S315200006E03B0000225A703B0001229A703B000122F7
S315200006F0DA703B0008221A713B001800FFF704FF4E
S31520000700C046BD4604B080BD80B582B000AF3B1D5B
S315200007100F225A703B1D0F229A703B1D0122DA7060
S315200007203B1D06221A703B1D180002F00DF83B1DDA
S3152000073007221A703B1D180002F006F83B1D0822FE
S315200007401A703B1D180001F0FFFF3B1D09221A708D
S315200007503B1D180001F0F8FF3B1D0A221A703B1DB5
S31520000760180001F0F1FF3B1D17221A703B1D1800DF
S3152000077001F0EAFFC046BD4602B080BD80B582B01A
S3152000078000AF3B000B4A1A603B0001221A713B0066
S3152000079000229A713B0003225A713B000122DA7132
S315200007A03B00054A1900100001F0ECFDC046BD468D
S315200007B002B080BDFFFF00000010024080B582B06D
S315200007C000AF00237B607EE043497A6813005B001C
S315200007D09B18DB00CB1803331B78012B70D13E49C5
S315200007E07A6813005B009B18DB00CB1802331B785A
S315200007F0002B65D138497A6813005B009B18DB0013
S31520000800CB1810331B68591C33487A6813005B00D9
S315200008109B18DB00C318103319602F497A68130020
S315200008205B009B18DB00CB18103319682A487A68BE
S3152000083013005B009B18DB00C31808331B68994222
S3152000084015D325497A6813005B009B18DB00CB186B
S3152000085004331B78022B0AD11F497A6813005B00E8
S315200008609B18DB00CB18043301221A7028E01A49A2
S315200008707A6813005B009B18DB00CB1810331968CD
S3152000088015487A6813005B009B18DB00C3180C33ED
S315200008901B68994214D310497A6813005B009B1891
S315200008A0DB00CB1805331B78022B09D10A497A685D
S315200008B013005B009B18DB00CB18053301221A704E
S315200008C07B6801337B607B68072B00DC7CE7C046B6
S315200008D0BD4602B080BDC0465838002080B500AF66
S315200008E0044B054A1A60054B1800FFF7DDFBC0468E
S315200008F0BD4680BD3CC00120BD07002080A2190056
S3152000090080B582B000AFFB1D00221A7076E0FB1D79
S315200009101A783E4913005B009B18DB0001225A54CB
S31520000920FB1D1A78FB1D1B780133D8B237491300FB
S315200009305B009B18DB00CB180133021C1A70FB1DD1
S315200009401A78324913005B009B18DB00CB18023360
S3152000095001221A70FB1D1A782C4913005B009B1884
S31520000960DB00CB18033300221A70FB1D1A782749A7
S3152000097013005B009B18DB00CB18043302221A708D
S31520000980FB1D1A78214913005B009B18DB00CB184E
S31520000990053302221A70FB1D1A781C4913005B00CE
S315200009A09B18DB00CB180833962252001A60FB1DD9
S315200009B01A78164913005B009B18DB00CB180C3302
S315200009C0AF2292001A60FB1D1A78104913005B00B3
S315200009D09B18DB00CB18103300221A60FB1D1A78F7
S315200009E00A4913005B009B18DB00CB181433022244
S315200009F01A70FB1D1A78FB1D01321A70FB1D1B781D
S31520000A00072B84D9C046BD4602B080BD5838002089
S31520000A1080B582B000AF0200FB1D1A70FB1D1A784C
S31520000A20164913005B009B18DB00CB180433022207
S31520000A301A70FB1D1A78114913005B009B18DB0006
S31520000A40CB18053302221A70FB1D1A780B491300A6
S31520000A505B009B18DB00CB18103300221A60FB1DAD
S31520000A601A78064913005B009B18DB00CB18143359
S31520000A7002221A70C046BD4602B080BD58380020FA
S31520000A8080B582B000AF0200FB1D1A70BB1D0A1C88
S31520000A901A70BB1D1B7864225A431100FB1D1A785D
S31520000AA00800064913005B009B18DB00CB180833AF
S31520000AB01860C046BD4602B080BDC04658380020EA
S31520000AC080B582B000AF0200FB1D1A70BB1D0A1C48
S31520000AD01A70BB1D1B7864225A431100FB1D1A781D
S31520000AE00800064913005B009B18DB00CB180C336B
S31520000AF01860C046BD4602B080BDC04658380020AA
S31520000B0080B582B000AF0200FB1D1A70BB1D0A1C07
S31520000B101A70FB1D1A78074913005B009B18DB002F
S31520000B20CB180333BA1D12781A70C046BD4602B0E0
S31520000B3080BDC0465838002090B583B000AFBC1C9D
S31520000B40214B180001F008FD0300238000237B6061
S31520000B502FE0BB1C1A887B681A4113000122134020
S31520000B6015D01A497A6813005B009B18DB00CB1856
S31520000B7003331B78012B0AD114497A6813005B00D2
S31520000B809B18DB00CB18023300221A700EE00F49A7
S31520000B907A6813005B009B18DB00CB180233012216
S31520000BA01A707B68DBB21800FFF732FF7B680133CF
S31520000BB07B607B68072BCCDDFF2001F0EFFAC04677
S31520000BC0BD4603B090BDC046000C024058380020F8
S31520000BD080B584B000AF0121082002F009FB8023F4
S31520000BE0DB010121180002F083FB08217B18FF227C
S31520000BF01A607B1800221A717B1800229A717B18C2
S31520000C0003225A717B180122DA717B18254A1900B2
S31520000C10100001F0B7FB0021032001F097FE01210F
S31520000C20032001F093FE0221032001F08FFE032111
S31520000C30032001F08BFE0421032001F087FE05210D
S31520000C40032001F083FE0621032001F07FFE072109
S31520000C50032001F07BFE3B0000221A713B0010228C
S31520000C605A713B0001229A713B00FF221A603B0019
S31520000C70180001F0DFF90C4B0C4A1A600C4B0B4A9A
S31520000C801A600C4B094A1A600B4B084A1A600B4B28
S31520000C90064A1A600A4B054A1A60C046BD4604B089
S31520000CA080BDC046000C024058C00120390B0020F0
S31520000CB05CC0012060C0012064C0012068C0012002
S31520000CC09CC0012080B584B000AFFFF781FFFFF7FD
S31520000CD055FDFFF715FEFFF701FEFFF715FD514BFA
S31520000CE01800FFF7F3FA504B0021180001F0A6FC7C
S31520000CF0FB1D00221A700E217B1800221A807B18F9
S31520000D001B88494A1900100001F098FC0023BB609B
S31520000D1082E04649BA6813005B009B18DB00CB18BB
S31520000D2003331B78002B0ED1BB68083301229A406F
S31520000D3013001AB20E217B1800201B5E13431AB231
S31520000D407B181A800FE0BB68083301229A401300F3
S31520000D501BB2DB431BB20E217A180020125E134011
S31520000D601AB27B181A803149BA6813005B009B18A7
S31520000D70DB00CB1804331B78012B0DD10122BB6875
S31520000D809A4013001AB20E217B1800201B5E1343D3
S31520000D901AB27B181A800EE00122BB689A40130013
S31520000DA01BB2DB431BB20E217A180020125E1340C1
S31520000DB01AB27B181A801D49BA6813005B009B186B
S31520000DC0DB00CB1805331B78012B1AD11749BA68DB
S31520000DD013005B009B18DB00CB1814331B78022B07
S31520000DE00FD1BB681800FFF75BFB0300D8B20F4991
S31520000DF0BA6813005B009B18DB00CB181433021C67
S31520000E001A700E23FB181B88074A1900100001F0E0
S31520000E1015FCBB680133BB60BB68072B00DC78E799
S31520000E2074E7C046C7010020001002405838002051
S31520000E3080B582B000AF78607B68104A93420CD1AF
S31520000E4080239B040121180002F0D2FA80239B0400
S31520000E500021180002F0CCFA0BE08023DB040121EC
S31520000E60180002F0C5FA8023DB040021180002F0E6
S31520000E70BFFAC046BD4602B080BDC04600640040F1
S31520000E8080B584B000AF786039600F23FB1800224C
S31520000E901A700023BB607B681B68022293431A00EA
S31520000EA07B681A607B681B6801221A437B681A607C
S31520000EB002E0BB680133BB607B685B68012213409C
S31520000EC0012B03D0BB685E4A9342F2D17B685B68F4
S31520000ED001221340012B04D00F23FB1800221A7085
S31520000EE0A6E03B689B79012B06D17B681B68802294
S31520000EF01A437B681A6006E07B681B68802293434E
S31520000F001A007B681A603B68DB79012B06D17B6867
S31520000F101B6840221A437B681A6006E07B681B68C0
S31520000F20402293431A007B681A603B681B7A012B88
S31520000F3006D17B681B6820221A437B681A6006E06C
S31520000F407B681B68202293431A007B681A603B68E3
S31520000F505B7A012B06D17B681B6810221A437B68BB
S31520000F601A6006E07B681B68102293431A007B6890
S31520000F701A603B689B7A012B06D17B681B68082286
S31520000F801A437B681A6006E07B681B680822934335
S31520000F901A007B681A603B68DB7A012B06D17B68D6
S31520000FA01B6804221A437B681A6006E07B681B686C
S31520000FB0042293431A007B681A603B689B789A0741
S31520000FC03B68DB781B061A433B681B791B041A43D4
S31520000FD03B685B791B051A433B681B88013B1A4318
S31520000FE07B68DA617B681B68012293431A007B6861
S31520000FF01A600023BB6002E0BB680133BB607B68DC
S315200010005B6801221340012B03D1BB680C4A934233
S31520001010F2D17B685B6801221340012B04D10F2398
S31520001020FB1800221A7003E00F23FB1801221A7006
S315200010300F23FB181B781800BD4604B080BDC046A0
S31520001040FFFF000090B585B000AF78600023FB60FD
S315200010507B689B7A1A0001239340FB60644A8023B5
S315200010609B00D358624901221A4380239B00CA5011
S315200010705F4A87239B00D358FA68D2435C491A40BB
S3152000108087239B00CA507B681B7B002B2CD1584A98
S3152000109083239B00D358FA68D24355491A408323A9
S315200010A09B00CA507B68DB881B047A685288140030
S315200010B04F497A68927A100023431A000300483376
S315200010C0DB005A507B689B881B047A6812881400C0
S315200010D047497A68927A100023431A00030048335E
S315200010E0DB00CB1804331A607B681B7B012B2BD1CA
S315200010F03F4A83239B00D2583D49FB681A438323EA
S315200011009B00CA507B681B881B047A68528814008F
S3152000111037497A68927A100023431A00030048332D
S31520001120DB005A507B689B881B047A68D28814009F
S315200011302F497A68927A100023431A000300483315
S31520001140DB00CB1804331A607B68DB7A002B0BD1CB
S31520001150274A81239B00D358FA68D24324491A4050
S3152000116081239B00CA5009E0214A81239B00D25843
S315200011701F49FB681A4381239B00CA507B681B8941
S31520001180002B0AD11A4A85239B00D358FA68D243EA
S3152000119017491A4085239B00CA507B681B89012B5F
S315200011A009D1134A85239B00D2581149FB681A435B
S315200011B085239B00CA507B685B7B012B09D10C4A97
S315200011C087239B00D2580A49FB681A4387239B0032
S315200011D0CA50074A80239B00D358054901229343CE
S315200011E01A0080239B00CA50C046BD4605B090BD5C
S315200011F00064004080B582B000AF78607B68002232
S315200012009A717B680022DA717B6800221A727B68E9
S3152000121000225A727B6800229A727B680022DA7258
S315200012207B6800229A707B680022DA707B68032232
S315200012301A717B6802225A717B6801221A80C04685
S31520001240BD4602B080BD80B582B000AF0200FB1D56
S315200012501A70174A80239B00D358154901221A4336
S3152000126080239B00CA50124A80239B00D3581049E2
S31520001270104A1A4080239B00CA500D4A80239B00A7
S31520001280D258FB1D1B781B0209491A4380239B0059
S31520001290CA50074A80239B00D3580549012293430D
S315200012A01A0080239B00CA50C046BD4602B080BDAE
S315200012B000640040F1C0FFFF80B582B000AF7860C7
S315200012C00A00FB1C1A70FB1C1B78002B07D07B68BE
S315200012D01B68802252021A437B681A6005E07B68ED
S315200012E01B68044A1A407B681A60C046BD4602B095
S315200012F080BDC046FFFFFEFF80B582B000AF78609C
S315200013000A00FB1C1A70FB1C1B78002B2AD07B685A
S315200013101B6880221A437B681A607A68C2235B00A6
S31520001320D358802252001A4311007A68C2235B00E8
S31520001330D1507A68CA235B00D358802252001A43C0
S3152000134011007A68CA235B00D1507A68D2235B00E9
S31520001350D358802252001A4311007A68D2235B00A8
S31520001360D15027E07B681B68802293431A007B6854
S315200013701A607A68C2235B00D358104A13401900BA
S315200013807A68C2235B00D1507A68CA235B00D3589F
S315200013900A4A134019007A68CA235B00D1507A683A
S315200013A0D2235B00D358054A134019007A68D2230A
S315200013B05B00D150C046BD4602B080BDFFFEFFFF98
S315200013C090B585B000AF786039600F23FB180022F6
S315200013D01A707B689A688023DB041A408023DB041A
S315200013E09A4204D10F23FB1800221A701FE07B6853
S315200013F09A6880231B051A4080231B059A4204D134
S315200014000F23FB1801221A7011E07B689A6880234B
S315200014105B051A4080235B059A4204D10F23FB18F3
S3152000142002221A7003E00F23FB1804221A700F23DE
S31520001430FB181B78042B00D1ACE00F217B181A78FF
S315200014407B6818321201D3587A1812780121194074
S315200014507B6818321201D1503B681B7A002B14D1BD
S315200014600F203B181A787B6818321201D1583B6836
S315200014701B685B053A68527A13433A181278194367
S315200014807B6818321201D15016E00F203B181A78CB
S315200014907B6818321201D1583B685B68DB003A68DA
S315200014A0127A13433A68527A13433A181278194338
S315200014B07B6818321201D1503B689B7A0F22134069
S315200014C0DAB23B689A720F243B191B787A68183374
S315200014D01B01D31804331A683B191B780F218A4342
S315200014E0796818331B01CB1804331A603B191B7813
S315200014F07A6818331B01D31804331A683B689B7A21
S3152000150019003B191B780A43796818331B01CB183D
S3152000151004331A603B689B7B1A063B685B7B1B0483
S315200015201A433B681B7B1B0213433A68D27A10008E
S315200015303A19117803431A007868C4235B0009011D
S315200015404118CB181A603B689B7C1A063B685B7C6B
S315200015501B041A433B681B7C1B0213433A68D27B4D
S3152000156010003A19117803431A007868C6235B00E5
S3152000157009014118CB181A603B191A787B68183272
S315200015801201D3583A191278012119437B6818326F
S315200015901201D1500F23FB181B781800BD4605B049
S315200015A090BD80B584B000AF78600A00FB1C1A702D
S315200015B00023FB60FB1C1B78012B09D0022B0DD0CE
S315200015C0002B11D17B689B68254A1340FB600EE0F7
S315200015D07B689B68234A1340FB6008E07B689B6816
S315200015E0214A1340FB6002E00023FB60C046FB68F3
S315200015F01E4A93421BD01D4A934208D81C4A934246
S3152000160012D0174A934218D0002B0AD01EE0194A4E
S3152000161093420FD0144A934215D0124A93420FD0C8
S3152000162014E00223FB6014E00023FB6011E000239A
S31520001630FB600EE00023FB600BE00123FB6008E06B
S315200016400123FB6005E00123FB6002E00023FB6031
S31520001650C046FB68DBB21800BD4604B080BDC0465C
S315200016600300000400030008000003100001000826
S31520001670010000040000011080B582B000AF786040
S315200016800A00FB1C1A70FB1C1B78012B0BD0022BAB
S3152000169011D0002B00D016E07B689B6880221A436D
S315200016A07B689A600FE07B689B68802212021A434F
S315200016B07B689A6007E07B689B68802212041A4345
S315200016C07B689A60C046C046BD4602B080BD80B5E4
S315200016D084B000AFF8607A600B203B180A1C1A70A1
S315200016E03B181A78FB681B321201D358DBB204224E
S315200016F01340DAB27B681A727B681B7A002B0CD1F6
S315200017000B23FB181A78FB681B321201D3585B0D8A
S315200017105B055A0D7B681A600BE00B23FB181A78C1
S31520001720FB681B321201D358DB08DB00DA087B6822
S315200017305A600B217B181A78FB681B321201D3588A
S31520001740DBB202221340DAB27B685A727B181B780E
S31520001750FA681B331B01D31804331B68DBB20F2234
S315200017601340DAB27B689A7208003B181B78FA6835
S315200017701B331B01D31804331B681B0ADAB27B68A0
S31520001780DA743B181A78F968DC235B0012018A1890
S31520001790D3181B68DAB27B68DA723B181A78F968B4
S315200017A0DC235B0012018A18D3181B681B0ADAB2E5
S315200017B07B681A733B181A78F968DC235B001201E0
S315200017C08A18D3181B681B0CDAB27B685A733B182D
S315200017D01A78F968DC235B0012018A18D3181B6873
S315200017E01B0EDAB27B689A733B181A78F968DE23E7
S315200017F05B0012018A18D3181B68DAB27B68DA7389
S315200018003B181A78F968DE235B0012018A18D31870
S315200018101B681B0ADAB27B681A743B181A78F968B7
S31520001820DE235B0012018A18D3181B681B0CDAB260
S315200018307B685A743B181A78F968DE235B0012011C
S315200018408A18D3181B681B0EDAB27B689A743B1869
S315200018501B78002B06D1FB68DB6820221A43FB6825
S31520001860DA6005E0FB681B6920221A43FB681A61CF
S31520001870C046BD4604B080BD80B582B000AF78605A
S315200018800A00FB1C1A70FB1C1B78002B06D17B68F8
S31520001890DB6820221A437B68DA6005E07B681B69D7
S315200018A020221A437B681A61C046BD4602B080BD1D
S315200018B080B584B000AF78600A00FB1C1A700F2335
S315200018C0FB1800221A70FB1C1B78002B08D17B68A2
S315200018D0DB68DAB20F23FB1803210A401A7010E0E6
S315200018E0FB1C1B78012B08D17B681B69DAB20F23FE
S315200018F0FB1803210A401A7003E00F23FB1800226D
S315200019001A700F23FB181B781800BD4604B080BD43
S3152000191080B584B000AF78600A00FB1C1A700F23D4
S31520001920FB1800221A70424BBB60FB1C1B78002B55
S3152000193024D17B681B680322934301221A437B68C8
S315200019401A6002E0BB68013BBB607B685B680322D0
S315200019501340012B02D0BB68002BF3D17B685B6858
S3152000196003221340012B04D00F23FB1800221A70E8
S3152000197057E00F23FB1801221A7052E0FB1C1B783C
S31520001980012B21D17B681B68032293431A007B68B5
S315200019901A6002E0BB68013BBB607B685B68032280
S315200019A0134002D0BB68002BF4D17B685B6803220E
S315200019B0134004D00F23FB1800221A7031E00F23A6
S315200019C0FB1801221A702CE0FB1C1B78022B24D159
S315200019D07B681B680322934302221A437B681A60A2
S315200019E002E0BB68013BBB607B685B680322134057
S315200019F0022B02D0BB68002BF3D17B685B680322E5
S31520001A001340022B04D00F23FB1800221A7008E083
S31520001A100F23FB1801221A7003E00F23FB18002264
S31520001A201A700F23FB181B781800BD4604B080BD22
S31520001A30FFFF000080B584B000AF78600F23FB184D
S31520001A4000221A707B681B680322934302221A43E2
S31520001A507B681A607B685B6803221340022B03D1E4
S31520001A600F23FB1801221A700F23FB181B7818006E
S31520001A70BD4604B080BD80B584B000AF7860154BFC
S31520001A80FB600B23FB1800221A707B681B6802225E
S31520001A9093431A007B681A6002E0FB68013BFB60F7
S31520001AA07B685B6802221340022B02D1FB68002B65
S31520001AB0F3D17B685B6802221340022B03D00B23F1
S31520001AC0FB1801221A700B23FB181B781800BD4641
S31520001AD004B080BDFFFF000080B584B000AF786001
S31520001AE00F217B1800221A707B689B69DAB20800E6
S31520001AF07B1870210A401A7001007B181B78180089
S31520001B00BD4604B080BD80B584B000AF78600F219B
S31520001B107B1800221A707B689B691A0E7B181A7034
S31520001B207B181B781800BD4604B080BD80B584B0F4
S31520001B3000AF78600F217B1800221A707B689B69A2
S31520001B401A0C7B181A707B181B781800BD4604B037
S31520001B5080BD80B584B000AFF860B960FB1D1A70F7
S31520001B60FB1D1B78002B06D0FB685A69BB681A43FD
S31520001B70FB685A6106E0FB685B69BA68D2431A4083
S31520001B80FB685A61C046BD4604B080BD80B584B0AE
S31520001B9000AF786039600F23FB1800221A703A686C
S31520001BA0F0231B04134010D07B689B693A681340CE
S31520001BB01B031B0B04D00F23FB1801221A7056E0BF
S31520001BC00F23FB1800221A7051E03A6880235B0429
S31520001BD0134010D07B685B683A6813401B031B0BCD
S31520001BE004D00F23FB1801221A7040E00F23FB18A4
S31520001BF000221A703BE03A6880231B05134010D060
S31520001C007B689B683A6813401B031B0B04D00F2389
S31520001C10FB1801221A702AE00F23FB1800221A70E3
S31520001C2025E03A6880239B04134010D07B68DB684C
S31520001C303A6813401B031B0B04D00F23FB18012209
S31520001C401A7014E00F23FB1800221A700FE07B682D
S31520001C501B693A6813401B031B0B04D00F23FB1888
S31520001C6001221A7003E00F23FB1800221A700F239B
S31520001C70FB181B781800BD4604B080BD80B584B023
S31520001C8000AF786039600023FB603B68164A9342B8
S31520001C9003D17B6800229A6121E03B681B031B0B62
S31520001CA0FB603A6880239B04134003D07B68FA6864
S31520001CB0DA6014E03A688023DB04134003D07B68A3
S31520001CC0FA681A610BE03A6880231B05134003D09B
S31520001CD07B68FA689A6002E07B68FA685A60C046B8
S31520001CE0BD4604B080BDC0467000F03090B585B0CA
S31520001CF000AF786039600F23FB1800221A707B68CA
S31520001D005B693A68134000D1DBE03B68402B00D189
S31520001D1079E00ED8042B4AD004D8012B30D0022BE0
S31520001D203AD0C8E0102B58D0202B61D0082B49D0B0
S31520001D30C1E080221201934200D1A6E08022120146
S31520001D4093420FD880229200934200D187E08022CE
S31520001D50D200934200D18DE080225200934200D1DE
S31520001D6072E0A8E080225202934257D0802292024B
S31520001D7093425ED080221202934200D190E09AE0F4
S31520001D807B689B680F22BC18534A1100180000F08C
S31520001D901BF90300237098E07B68DB680F22BC18D0
S31520001DA00321180000F010F9030023708DE07B68F2
S31520001DB0DB680F22BC180821180000F005F9030083
S31520001DC0237082E07B68DB680F22BC181021180084
S31520001DD000F0FAF80300237077E07B681B690F2276
S31520001DE0BC180321180000F0EFF8030023706CE004
S31520001DF07B681B690F22BC180821180000F0E4F844
S31520001E000300237061E07B681B690F22BC18102138
S31520001E10180000F0D9F80300237056E07B685B6851
S31520001E200F22BC180821180000F0CEF803002370FA
S31520001E304BE07B685B680F22BC181021180000F06D
S31520001E40C3F80300237040E07B689B690F22BC180F
S31520001E500121180000F0B8F80300237035E07B68F4
S31520001E609B690F22BC180221180000F0ADF8030070
S31520001E7023702AE07B689B690F22BC180421180076
S31520001E8000F0A2F8030023701FE07B689B690F22F5
S31520001E90BC187021180000F097F80300237014E096
S31520001EA07B685B680F22BC180421180000F08CF8B0
S31520001EB00300237009E00F23FB1800221A70C04686
S31520001EC003E00F23FB1800221A700F23FB181B7840
S31520001ED01800BD4605B090BD0101010080B582B055
S31520001EE000AF786039603B688022520093424AD026
S31520001EF08022520093420CD8082B30D004D8012BD4
S31520001F0025D0042B27D058E0202B2CD0402B2ED0A8
S31520001F1053E080221201934241D080221201934243
S31520001F2008D880229200934231D08022D200934258
S31520001F3031D042E08022520293421CD0802292026B
S31520001F4093421CD08022120293422FD035E07B6828
S31520001F501C4A9A6031E07B680822DA602DE07B68B3
S31520001F601022DA6029E07B6808221A6125E07B6866
S31520001F7010221A6121E07B6808225A601DE07B68E6
S31520001F8010225A6019E07B6804225A6015E07B68AB
S31520001F9004225A6011E07B6804225A600DE07B68B7
S31520001FA000229A617B6804225A6006E07B68002240
S31520001FB09A617B6804225A60C046C046BD4602B07C
S31520001FC080BDC0460101010080B584B000AF7860B5
S31520001FD039600F23FB1800221A707B683A68134079
S31520001FE004D00F23FB1801221A7003E00F23FB18DD
S31520001FF000221A700F23FB181B781800BD4604B068
S3152000200080BDC04680B500AF084B00221A60074B42
S3152000201000225A60054B00229A60044B0022DA60A7
S31520002020024B034A5A61C046BD4680BD003C014072
S31520002030FFFF7F0080B584B000AF78600023FB608F
S31520002040334BFB607B689B79002B4FD0304B1A6853
S315200020507B681B68D9432E4B0A401A602C4B5A6862
S315200020607B681B68D9432A4B0A405A607B681B79D8
S315200020701A00FB689B18FB60FB6819687B681A6866
S31520002080FB680A431A60224B9A687B681B68D9430F
S315200020901F4B0A409A601E4BDA687B681B68D9433F
S315200020A01B4B0A40DA607B685B79102B0ED1184BEC
S315200020B099687B681A68164B0A439A60144BD9684C
S315200020C07B681A68124B0A43DA601DE0104BFB60EE
S315200020D07B685B791A00FB689B18FB60FB681968B4
S315200020E07B681A68FB680A431A600DE07B681B79D7
S315200020F01A00FB689B18FB60FB681A687B681B68E4
S31520002100D943FB680A401A60C046BD4604B080BD6C
S31520002110003C014080B582B000AF78607B68002229
S315200021201A607B6800221A717B680C225A717B68C0
S3152000213000229A71C046BD4602B080BD80B582B0ED
S3152000214000AF7860044B1969034B7A680A431A6119
S31520002150C046BD4602B080BD003C014080B584B07B
S3152000216000AF78600F23FB1800221A700A4B5B69B8
S315200021707A68134004D00F23FB1801221A7003E05B
S315200021800F23FB1800221A700F23FB181B78180048
S31520002190BD4604B080BDC046003C014080B582B03B
S315200021A000AF7860034B7A685A61C046BD4602B0DC
S315200021B080BDC046003C014080B584B000AF786049
S315200021C00F23FB1800221A700A4B5B697A681340AA
S315200021D004D00F23FB1801221A7003E00F23FB18EB
S315200021E000221A700F23FB181B781800BD4604B076
S315200021F080BDC046003C014080B582B000AF78600B
S31520002200034B7A685A61C046BD4602B080BDC046BF
S31520002210003C014080B582B000AF78607B684E4AB2
S31520002220934208D10121012001F082F800210120EA
S3152000223001F07EF88CE07B68484A934208D1012160
S31520002240022001F075F80021022001F071F87FE0EC
S315200022507B68434A934208D10121042001F068F8A3
S315200022600021042001F064F872E07B683D4A934225
S3152000227008D10121082001F05BF80021082001F097
S3152000228057F865E07B68384A934208D1012110202F
S3152000229001F04EF80021102001F04AF858E07B6842
S315200022A0324A934208D10121202001F041F8002131
S315200022B0202001F03DF84BE07B682D4A934208D15F
S315200022C00121402001F034F80021402001F030F8AF
S315200022D03EE07B68274A934208D10121802001F005
S315200022E027F80021802001F023F831E07B68224A7C
S315200022F093420CD180235B000121180001F018F8CD
S3152000230080235B000021180001F012F820E07B6892
S315200023101A4A93420CD180239B000121180001F018
S3152000232007F880239B000021180001F001F80FE038
S315200023307B68134A93420BD18023DB0001211800CE
S3152000234000F0F6FF8023DB000021180000F0F0FFEC
S31520002350C046BD4602B080BD0000024000040240D7
S3152000236000080240000C0240001002400014024007
S3152000237000180240001C02400020024000240240B7
S315200023800028024080B586B000AF7860396000230F
S315200023907B6100233B610023FB6000237B6176E0A9
S315200023A001227B699A4013003B613B681A683B69AE
S315200023B01340FB60FA683B699A4265D17B681B68CB
S315200023C07A695200032191400A00D2431A407B6861
S315200023D01A607B681A683B681B7919007B695B0069
S315200023E099400B001A437B681A603B681B79012BC6
S315200023F003D03B681B79022B2ED17B689B687A69B8
S315200024005200032191400A00D2431A407B689A6009
S315200024107B689A683B685B7919007B695B00994009
S315200024200B001A437B689A607B685B687A6992B274
S31520002430110001228A40D2431A407B685A607B6889
S315200024405B683A68927911007A6992B291400A00E3
S3152000245092B21A437B685A607B68DB687A6992B2CB
S315200024605200032191400A00D2431A407B68DA6069
S315200024707B68DA683B68DB7919007B695B009940E9
S315200024800B001A437B68DA607B6901337B617B69C9
S315200024900F2B85D9C046BD4606B080BD80B582B01B
S315200024A000AF78607B68094A1A607B6800221A713F
S315200024B07B6800225A717B6800229A717B68002211
S315200024C0DA71C046BD4602B080BDC046FFFF00009F
S315200024D080B584B000AF78600A00BB1C1A808023C8
S315200024E05B02FB60BB1C1A88FB681343FB60FA681F
S315200024F07B68DA61BB1C1A887B68DA61FA687B68BC
S31520002500DA617B68DB69FB607B68DB69FB60C04660
S31520002510BD4604B080BD80B584B000AF78600A00A7
S31520002520BB1C1A800F23FB1800221A707B681B69BC
S31520002530BA1C1288134004D00F23FB1801221A70EC
S3152000254003E00F23FB1800221A700F23FB181B78B9
S315200025501800BD4604B080BD80B582B000AF78605B
S315200025607B681B699BB21800BD4602B080BD80B552
S3152000257084B000AF78600A00BB1C1A800F23FB18BA
S3152000258000221A707B685B69BA1C1288134004D03B
S315200025900F23FB1801221A7003E00F23FB180022D9
S315200025A01A700F23FB181B781800BD4604B080BD97
S315200025B080B582B000AF78607B685B699BB21800FB
S315200025C0BD4602B080BD80B582B000AF78600A00FB
S315200025D0BB1C1A807B68BA1C12881A83C046BD466B
S315200025E002B080BD80B582B000AF78600A00BB1C07
S315200025F01A807B68BA1C12885A83C046BD4602B030
S3152000260080BD80B582B000AF786008001100BB1C89
S31520002610021C1A807B1C0A1C1A707B1C1B78002B40
S3152000262004D07B68BA1C12881A8303E07B68BA1C24
S3152000263012885A83C046BD4602B080BD80B582B09E
S3152000264000AF78600A00BB1C1A80BB1C1A887B6806
S315200026505A61C046BD4602B080BD80B582B000AF8B
S3152000266078600A00BB1C1A807B685A69BB1C1B88D1
S315200026705A407B685A61C046BD4602B080BD80B5CF
S3152000268084B000AF786008001100BB1C021C1A80C1
S315200026907B1C0A1C1A700023FB600023BB607B1C7A
S315200026A01A78BB1C1B8807210B409B009A401300FD
S315200026B0FB60BB1C1B88DB089BB21A007B680832B8
S315200026C09200D358BA1C128807210A4092000F2183
S315200026D091400A00D243B91C0988C90889B208006A
S315200026E01A4011007B68020008329200D150BB1CB0
S315200026F01B88DB089BB21A007B6808329200D358ED
S31520002700FA681343BB60BB1C1B88DB089BB21A000C
S315200027107B6808329200B968D150C046BD4604B0E5
S3152000272080BDC04680B582B000AF7860044B7A6821
S3152000273004490A43DA60C046BD4602B080BDC046A1
S3152000274000ED00E00000FA05B0B584B000AF786077
S315200027500F23FB1800221A700E23FB1800221A7072
S315200027600D23FB180F221A707B68DB78002B4DD0C7
S31520002770314BDB68DB431B0ADAB20F203B180721FB
S315200027800A401A700E257B193A18127804218A1AE3
S315200027901A700D243B191A7801007B181B781A41F0
S315200027A03B191A707B685B781A007B191B789A4054
S315200027B008007B181A707B689B783A1912781340A8
S315200027C0D9B23B183A1812780A431A703B183A18AD
S315200027D0127812011A70194A7B681B781900C023D7
S315200027E09B005218D3183A1812781A707B681B78F7
S315200027F01A001F23134011497A6812785209D2B25F
S31520002800100001229A4083005A5010E07B681B7802
S315200028101A001F23134009497A6812785209D2B246
S31520002820100001229A40030020339B005A50C046D4
S31520002830BD4604B0B0BDC04600ED00E000E100E0BA
S3152000284080B582B000AF786039603B68054A134096
S315200028501900054B7A680A439A60C046BD4602B005
S3152000286080BDC04680FFFF1F00ED00E080B582B02E
S3152000287000AF0200FB1D1A70BB1D0A1C1A70BB1D7F
S315200028801B78002B07D00A4B1969FB1D1A78084BB9
S315200028900A431A6107E0064B1A69FB1D1B78D943C8
S315200028A0034B0A401A61C046BD4602B080BDC046F1
S315200028B000ED00E080B582B000AF78607B68042B25
S315200028C006D1084B1A68074B04210A431A6005E013
S315200028D0044B1A68034B04218A431A60C046BD463E
S315200028E002B080BD10E000E080B500AF8023DB01A0
S315200028F00121180000F09CFD8023DB010021180037
S3152000290000F096FDC046BD4680BD80B582B000AFC2
S315200029100200FB1D1A70044BFA1D12781A60C0467D
S31520002920BD4602B080BDC0460038014080B582B0A9
S3152000293000AF0200FB1D1A70034BFA1D12781A60B5
S31520002940C046BD4602B080BD2000274280B584B077
S3152000295000AF0200FB1D1A70BB1D0A1C1A70002353
S31520002960FB60BB1D1B78032213409B000F229A405D
S315200029701300FB60184ABB1D1B789B08DBB2023391
S315200029809B009B58FA68D2431348B91D09788908D9
S31520002990C9B21A408B1C9B001A500F4ABB1D1B78CC
S315200029A09B08DBB202339B009A58FB1D1978BB1D8E
S315200029B01B78032003409B0099400B000648B91D55
S315200029C009788908C9B21A438B1C9B001A50C04645
S315200029D0BD4604B080BDC0460038014080B582B0F7
S315200029E000AF7860034B7A681A60C046BD4602B0D5
S315200029F080BDC046DC00274280B582B000AF020011
S31520002A00FB1D1A70034BFA1D12781A60C046BD468C
S31520002A1002B080BD0004274280B582B000AFFB1D06
S31520002A2000221A70094B1A6A80235B00134003D0D8
S31520002A30FB1D01221A7002E0FB1D00221A70FB1DED
S31520002A401B781800BD4602B080BDC0460038014044
S31520002A5080B500AF144B1A68134B01210A431A6044
S31520002A60114B00229A60104B1A680F4B0F490A40EF
S31520002A701A600D4B0E4A5A600B4A84230D49D150D9
S31520002A80094A88230C49D150074B1A68064B0B4933
S31520002A900A401A60044B0022DA60034A8C23002184
S31520002AA0D150C046BD4680BD00380240FFFFF6EA41
S31520002AB0103000240030002000300024FFFFFBFFF0
S31520002AC080B582B000AF0200FB1D1A70054B0022B4
S31520002AD01A70044AFB1D1B781370C046BD4602B00F
S31520002AE080BDC0460238024090B583B000AF0023B7
S31520002AF03B60FB1D00221A70BB1D00221A70BC1DF4
S31520002B00312000F09BFD030023703B6801333B60BE
S31520002B103A68A023DB019A4203D0BB1D1B78002B09
S31520002B20EDD0312000F08AFD031E03D0FB1D0122CB
S31520002B301A7002E0FB1D00221A70FB1D1B7818007C
S31520002B40BD4603B090BD80B584B000AF0200FB1D2A
S31520002B501A700023FB600A4B1B68FB60FB68F82297
S31520002B609343FB60FB1D1B78DB00FA681343FB6075
S31520002B70034BFA681A60C046BD4604B080BDC04605
S31520002B800038024080B582B000AF0200FB1D1A70EB
S31520002B90034BFA1D12781A60C046BD4602B080BDAE
S31520002BA00000474280B582B000AF0200FB1D1A70BC
S31520002BB00C4B00221A700B4B00221A70FB1D1B783F
S31520002BC0012B02D0042B04D007E0064B01221A70F9
S31520002BD003E0044B05221A70C046C046BD4602B02B
S31520002BE080BDC0467038024080B582B000AF02007A
S31520002BF0FB1D1A70034BFA1D12781A60C046BD469B
S31520002C0002B080BD800E474280B584B000AFF86028
S31520002C10B9607A603B607B689A01BB681A433B685F
S31520002C205B08013B1B041A43FB681A431100BB696E
S31520002C301A06034B0A435A60C046BD4604B080BDFF
S31520002C400038024080B582B000AF0200FB1D1A702A
S31520002C50034BFA1D12781A60C046BD4602B080BDED
S31520002C606000474280B582B000AF786039607B68EB
S31520002C709A013B681B070449134384228B50C046A4
S31520002C80BD4602B080BDC0460038024080B582B045
S31520002C9000AF0200FB1D1A70034BFA1D12781A6052
S31520002CA0C046BD4602B080BD6800474280B584B0AC
S31520002CB000AFF860B9607A60FB689A01BB681B06B2
S31520002CC01A437B681B070449134388228B50C0464E
S31520002CD0BD4604B080BDC0460038024080B582B0F3
S31520002CE000AF0200FB1D1A70034BFA1D12781A6002
S31520002CF0C046BD4602B080BD7000474280B582B056
S31520002D0000AF0200FB1D1A70034BFA1D12781A60E1
S31520002D10C046BD4602B080BD4C00474280B584B057
S31520002D2000AF786039600023FB600A4B9B68FB602C
S31520002D30FB68094A1340FB607A683B681343FA68CC
S31520002D401343FB60034BFA689A60C046BD4604B045
S31520002D5080BDC04600380240FFFF9FF880B584B092
S31520002D6000AF786039600023FB600A4B9B68FB60EC
S31520002D70FB685B015B09FB607A683B681343FA6872
S31520002D801343FB60034BFA689A60C046BD4604B005
S31520002D9080BDC0460038024080B584B000AF786060
S31520002DA00023FB60084B9B68FB60FB680322934370
S31520002DB0FB60FA687B681343FB60034BFA689A60F2
S31520002DC0C046BD4604B080BD0038024080B500AF85
S31520002DD0044B9B68DBB20C221340DBB21800BD46C5
S31520002DE080BDC0460038024080B584B000AF786010
S31520002DF00023FB60084B9B68FB60FB68F022934333
S31520002E00FB60FA687B681343FB60034BFA689A60A1
S31520002E10C046BD4604B080BD0038024080B584B0AF
S31520002E2000AF78600023FB60084B9B68FB60FB6863
S31520002E30074A1340FB60FA687B681343FB60034B29
S31520002E40FA689A60C046BD4604B080BD003802408C
S31520002E50FFE3FFFF80B584B000AF78600023FB60FE
S31520002E60094B9B68FB60FB68084A1340FB607B6844
S31520002E70DB00FA681343FB60034BFA689A60C0468E
S31520002E80BD4604B080BDC04600380240FF1FFFFF8C
S31520002E9080B588B000AF78600023BB6100237B61DA
S31520002EA00023FB6102233B610023FB600223BB60FE
S31520002EB0494B9B680C221340BB61BB69042B07D08E
S31520002EC0082B09D0002B41D17B68444A1A6041E087
S31520002ED07B68434A1A603DE03F4B5B689B0D0122AD
S31520002EE01340FB603C4B5B683F221340BB60FB6892
S31520002EF0002B0DD0B9683A4800F022FC03001A00D6
S31520002F00354B5B689B09DB05DB0D5343FB610CE00E
S31520002F10B968324800F014FC03001A002E4B5B6897
S31520002F209B09DB05DB0D5343FB612B4B5B681B0CBD
S31520002F300322134001335B003B613969F86900F0D5
S31520002F40FFFB03001A007B681A6003E07B68234AB4
S31520002F501A60C046204B9B68F0221340BB61BB69B8
S31520002F601B09BB611F4ABB69D3181B78DBB27B6187
S31520002F707B681A687B69DA407B685A60164B9A68C8
S31520002F80E0235B011340BB61BB699B0ABB61154A09
S31520002F90BB69D3181B78DBB27B617B685A687B6977
S31520002FA0DA407B689A600C4B9A68E0231B02134038
S31520002FB0BB61BB695B0BBB610A4ABB69D3181B7833
S31520002FC0DBB27B617B685A687B69DA407B68DA60B2
S31520002FD0C046BD4608B080BD003802400024F4003B
S31520002FE040787D014039002080B584B000AF7860FC
S31520002FF00023FB607A68C0239B001A40C0239B00F5
S315200030009A420FD10D4B9B68FB60FB680C4A13401C
S31520003010FB607B680B4A1340FA681343FB60074B3F
S31520003020FA689A60054B196F7B681B051A0D034BCE
S315200030300A431A67C046BD4604B080BD0038024028
S31520003040FFFFE0FFFFFCFF0F80B582B000AF02005C
S31520003050FB1D1A70034BFA1D12781A60C046BD4636
S3152000306002B080BD3C0E474280B582B000AF020060
S31520003070FB1D1A70034BFA1D12781A60C046BD4616
S3152000308002B080BD400E474280B582B000AF786066
S31520003090034B7A681A60C046BD4602B080BDC04662
S315200030A05C01474280B584B000AF78600023FB60A6
S315200030B0094A8C23D358FB60FB68084A1340FB60FF
S315200030C0FA687B681343FB6003498C22FB688B50AC
S315200030D0C046BD4604B080BD00380240FFFFCFFF8A
S315200030E080B584B000AF78600023FB60094A8C234A
S315200030F0D358FB60FB68084A1340FB60FA687B687C
S315200031001343FB6003498C22FB688B50C046BD46A7
S3152000311004B080BD00380240FFFF3FFF80B584B079
S3152000312000AF78600023FB600A4A8C23D358FB60EB
S31520003130FB681F229343FB607B68013BFA681343BD
S31520003140FB6004498C22FB688B50C046BD4604B008
S3152000315080BDC0460038024080B584B000AF78609C
S315200031600023FB600A4A8C23D358FB60FB68094A7C
S315200031701340FB607B68013B1B02FA681343FB602C
S3152000318003498C22FB688B50C046BD4604B080BDE7
S3152000319000380240FFE0FFFF80B584B000AF7860C2
S315200031A00023FB60094A8C23D358FB60FB68084A3E
S315200031B01340FB60FA687B681343FB6003498C224B
S315200031C0FB688B50C046BD4604B080BD0038024027
S315200031D0FFFFFCFF80B582B000AF7860034B7A68B2
S315200031E01A60C046BD4602B080BDC046E0114742C7
S315200031F080B582B000AF78600A00FB1C1A70FB1CF9
S315200032001B78002B06D0094B196B084B7A680A43AA
S315200032101A6306E0054B1A6B7B68D943034B0A40B9
S315200032201A63C046BD4602B080BDC0460038024083
S3152000323080B582B000AF78600A00FB1C1A70FB1CB8
S315200032401B78002B06D0094B596B084B7A680A432A
S315200032505A6306E0054B5A6B7B68D943034B0A40F9
S315200032605A63C046BD4602B080BDC0460038024003
S3152000327080B582B000AF78600A00FB1C1A70FB1C78
S315200032801B78002B06D0094B996B084B7A680A43AA
S315200032909A6306E0054B9A6B7B68D943034B0A4039
S315200032A09A63C046BD4602B080BDC0460038024083
S315200032B080B582B000AF78600A00FB1C1A70FB1C38
S315200032C01B78002B06D0094B196C084B7A680A43E9
S315200032D01A6406E0054B1A6C7B68D943034B0A40F7
S315200032E01A64C046BD4602B080BDC04600380240C2
S315200032F080B582B000AF78600A00FB1C1A70FB1CF8
S315200033001B78002B06D0094B596C084B7A680A4368
S315200033105A6406E0054B5A6C7B68D943034B0A4036
S315200033205A64C046BD4602B080BDC0460038024041
S3152000333080B582B000AF78600A00FB1C1A70FB1CB7
S315200033401B78002B06D0094B1969084B7A680A436B
S315200033501A6106E0054B1A697B68D943034B0A407C
S315200033601A61C046BD4602B080BDC0460038024044
S3152000337080B582B000AF78600A00FB1C1A70FB1C77
S315200033801B78002B06D0094B5969084B7A680A43EB
S315200033905A6106E0054B5A697B68D943034B0A40BC
S315200033A05A61C046BD4602B080BDC04600380240C4
S315200033B080B582B000AF78600A00FB1C1A70FB1C37
S315200033C01B78002B06D0094B9969084B7A680A436B
S315200033D09A6106E0054B9A697B68D943034B0A40FC
S315200033E09A61C046BD4602B080BDC0460038024044
S315200033F080B582B000AF78600A00FB1C1A70FB1CF7
S315200034001B78002B06D0094B196A084B7A680A43A9
S315200034101A6206E0054B1A6A7B68D943034B0A40B9
S315200034201A62C046BD4602B080BDC0460038024082
S3152000343080B582B000AF78600A00FB1C1A70FB1CB6
S315200034401B78002B06D0094B596A084B7A680A4329
S315200034505A6206E0054B5A6A7B68D943034B0A40F9
S315200034605A62C046BD4602B080BDC0460038024002
S3152000347080B582B000AF78600A00FB1C1A70FB1C76
S315200034801B78002B06D0094B196D084B7A680A4326
S315200034901A6506E0054B1A6D7B68D943034B0A4033
S315200034A01A65C046BD4602B080BDC04600380240FF
S315200034B080B582B000AF78600A00FB1C1A70FB1C36
S315200034C01B78002B06D0094B596D084B7A680A43A6
S315200034D05A6506E0054B5A6D7B68D943034B0A4073
S315200034E05A65C046BD4602B080BDC046003802407F
S315200034F080B582B000AF78600A00FB1C1A70FB1CF6
S315200035001B78002B06D0094B996D084B7A680A4325
S315200035109A6506E0054B9A6D7B68D943034B0A40B2
S315200035209A65C046BD4602B080BDC04600380240FE
S3152000353080B582B000AF78600A00FB1C1A70FB1CB5
S315200035401B78002B06D0094B196E084B7A680A4364
S315200035501A6606E0054B1A6E7B68D943034B0A4070
S315200035601A66C046BD4602B080BDC046003802403D
S3152000357080B582B000AF78600A00FB1C1A70FB1C75
S315200035801B78002B06D0094B596E084B7A680A43E4
S315200035905A6606E0054B5A6E7B68D943034B0A40B0
S315200035A05A66C046BD4602B080BDC04600380240BD
S315200035B080B582B000AF0200FB1D1A70FB1D1B7880
S315200035C0012B06D1084B1A6F074B08210A431A67AD
S315200035D005E0054B1A6F044B08218A431A67C0463B
S315200035E0BD4602B080BDC0460038024080B582B0DC
S315200035F000AF0200FB1D1A70BB1D0A1C1A70BB1DF2
S315200036001B78002B09D00C4B1B78DAB20A49FB1D1C
S315200036101B781343DBB20B700AE0074B1B78DBB237
S31520003620FA1D1278D243D2B203491340DBB20B7093
S31520003630C046BD4602B080BD0D38024080B586B07A
S3152000364000AF0200FB1D1A700023FB6000237B6184
S315200036501323FB1800221A70FB1D1B785B09DBB2B3
S31520003660FB60FB68012B03D1144B1B687B6109E0CF
S31520003670FB68022B03D1114B1B6F7B6102E00F4BC2
S315200036805B6F7B61FB1D1B781F221340FB607A69F1
S31520003690FB68DA4013000122134004D01323FB18E1
S315200036A001221A7003E01323FB1800221A70132339
S315200036B0FB181B781800BD4606B080BD00380240B6
S315200036C080B500AF044B5A6F034B802149040A434F
S315200036D05A67C046BD4680BD0038024080B584B0DA
S315200036E000AF0200FB1D1A700F23FB1800221A7070
S315200036F00A4BDB68FA1D1278134004D00F23FB18FF
S3152000370001221A7003E00F23FB1800221A700F23E0
S31520003710FB181B781800BD4604B080BD0038024057
S3152000372080B582B000AF0200FB1D1A70034AFB1D54
S315200037301B781370C046BD4602B080BD0E380240CD
S31520003740002243088B4274D303098B425FD3030ABA
S315200037508B4244D3030B8B4228D3030C8B420DD3CD
S31520003760FF22090212BA030C8B4202D3121209025B
S3152000377065D0030B8B4219D300E0090AC30B8B4299
S3152000378001D3CB03C01A5241830B8B4201D38B0347
S31520003790C01A5241430B8B4201D34B03C01A5241EC
S315200037A0030B8B4201D30B03C01A5241C30A8B422F
S315200037B001D3CB02C01A5241830A8B4201D38B021A
S315200037C0C01A5241430A8B4201D34B02C01A5241BE
S315200037D0030A8B4201D30B02C01A5241CDD2C30930
S315200037E08B4201D3CB01C01A524183098B4201D3AC
S315200037F08B01C01A524143098B4201D34B01C01A97
S31520003800524103098B4201D30B01C01A5241C3080E
S315200038108B4201D3CB00C01A524183088B4201D37D
S315200038208B00C01A524143088B4201D34B00C01A69
S315200038305241411A00D20146524110467047FFE7D5
S3152000384001B5002000F006F802BDC0460029F7D0D9
S3152000385076E770477047C046000000000000000071
S315200038600000000000000000000000000000000032
S315200038700000000000000000000000000000000022
S315200038800000000000000000000000000000000012
S315200038900000000000000000000000000000000002
S315200038A000000000000000000000000000000000F2
S315200038B000000000000000000000000000000000E2
S315200038C000000000000000000000000000000000D2
S315200038D000000000000000000000000000000000C2
S315200038E000000000000000000000000000000000B2
S315200038F000000000000000000000000000000000A2
S315200039000000000000000000000000000000000091
S315200039100000000000000000000000000000000081
S315200039200000000000000000000000000000000071
S315200039300000000000000000000000000000000061
S31520003940000000000102030401020304060708091F
S315200039504469736D69737320616C61726D20617443
S3152000396020646F6F722023004465616374697661F9
S3152000397074652F416374697661746520646F6F7214
S31520003980202300004E65772074696D65725F6C6F29
S3152000399063616C20666F7220646F6F722023000053
S315200039A04E65772074696D65725F63656E747261AA
S315200039B06C20666F7220646F6F72202300000000F7
S315200039C0EA010020AA0200200E0200203802002070
S309200039D09C0200200F
S70520000000DA
