S01100002E2F44656275672F70322E733139CE
S315200000000248854600F068FBFEE7C04600C0012096
S3152000001080B582B000AF02003960FB1D1A70FB1D4F
S315200000201B787F2B0DD93B68DAB20F49FB1D1B7855
S3152000003018000F230340043B1201D2B2CB181A76C4
S315200000400DE03B68DBB20949FA1D127852B21B015A
S31520000050D8B2C0239B008A18D318021C1A70C04637
S31520000060BD4602B080BDC04600ED00E000E100E0E4
S3152000007080B582B000AF78607B68013B0C4A934222
S3152000008001D9012310E00B4B7A68013A5A6001230B
S315200000905B420F211800FFF7BBFF064B00229A6038
S315200000A0044B07221A6000231800BD4602B080BD0B
S315200000B0FFFFFF0010E000E080B500AF034B0122F8
S315200000C05A6000F011F8C046BD4680BD745200202B
S315200000D080B500AF034B01225A6000F00DF8C046F0
S315200000E0BD4680BD6852002080B500AF012000F0DB
S315200000F00BF8C046BD4680BD80B500AF042000F099
S3152000010003F8C046BD4680BD80B582B000AF78609A
S315200001107B68180003F0F8F9031E03D07B681800EB
S3152000012003F012FAC046BD4602B080BD80B582B04B
S3152000013000AF78607A68054B1A60C046034B1B688F
S31520000140002BFBD1C046BD4602B080BD60520020C8
S3152000015080B500AF064B1B685A1C054B1A60054B31
S315200001601B685A1E034B1A60C046BD4680BDC0465A
S315200001705C5200206052002090B583B000AF3860FA
S315200001807960114A3B687C68136054600F4B1800F5
S3152000019003F0EAF800220E4B3868796803F0F8FA83
S315200001A003000C001800210003F0D4FA0300DBB290
S315200001B0180003F091F8074B180003F0E9F8C04641
S315200001C0BD4603B090BDC046B0520020C8520020A4
S315200001D000004840D852002080B500AF074B0221CE
S315200001E0180001F084FD0A20FFF7A0FF034B02212F
S315200001F0180001F08BFDC046BD4680BD000C0240B4
S3152000020090B585B000AF7860786804F0D7FF0C4AC7
S315200002100C4B04F0E3F903000C0018002100002227
S315200002208023DB0503F0D0FD03000C00BB60FC60DF
S31520000230BB68FC6818002100BD4605B090BDC046CD
S31520000240809F71E14048363F90B585B000AF786019
S31520000250FFF7C2FFC046194B0421180001F0EFFC3E
S31520000260031EF8D0164B00221A60C046134B0421F9
S31520000270180001F0E4FC031EF8D1114B1B687A68C4
S31520000280D31ADA179B185340FB60FB681800FFF758
S31520000290B7FF0C4B5C681B681A00230003F050FA6A
S315200002A0031E02D0042003F01FF9054B1B687B6058
S315200002B07B681800BD4605B090BDC046000C0240C4
S315200002C05C520020B052002080B584B000AF3B00C5
S315200002D000221A703B0000225A703B0001229A70BD
S315200002E03B000122DA703B0008221A713B001800FD
S315200002F002F01EFE034B180003F04AF8C046BD4626
S3152000030004B080BDDC52002080B582B000AF3B0037
S3152000031001221A603B0000221A713B0000229A71CA
S315200003203B0003225A713B000122DA713B00044A4A
S315200003301900100001F0BAFBC046BD4602B080BDD0
S31520000340000C024080B582B000AF3B0002221A604A
S315200003503B0001221A713B0000229A713B000322C6
S315200003605A713B000122DA713B000F4A1900100036
S3152000037001F09CFB3B0004221A603B0000221A710C
S315200003803B0000229A713B0003225A713B00012256
S31520000390DA713B00044A1900100001F087FBC046C1
S315200003A0BD4602B080BDC046000C024080B584B078
S315200003B000AFFFF7A9FF0021032002F0F1FB08217F
S315200003C07B1801221A607B1800221A717B180C22D6
S315200003D05A717B1801229A717B18180003F000F8D5
S315200003E00F4B104A1A603B1D06221A703B1D0F2226
S315200003F05A703B1D0F229A703B1D0122DA703B1D5D
S31520000400180002F099FE084B01221A60064B0022C2
S315200004105A60054B00229A60C046BD4604B080BD96
S3152000042058C00120B90000207452002080B584B045
S3152000043000AFFFF787FF08217B1804221A607B187C
S3152000044000221A717B180C225A717B1801229A718C
S315200004507B18180002F0C4FF0F4B104A1A603B1D90
S3152000046008221A703B1D0F225A703B1D0F229A70CC
S315200004703B1D0122DA703B1D180002F05DFE084B81
S3152000048002221A60064B00225A60054B00229A600F
S31520000490C046BD4604B080BD60C00120D10000200A
S315200004A06852002080B500AF074B1B68074918002B
S315200004B003F086F803001800FFF7DAFD044B054A1F
S315200004C01A60C046BD4680BDA852002040420F009B
S315200004D03CC001205101002090B585B000AF364BBD
S315200004E0180002F055FF3B00180002F0A9FD031E7C
S315200004F057D03B009B783033DBB2180002F0ECFE7D
S315200005002E4B180002F044FF3B009B78042B42D868
S315200005109A002B4BD3181B689F463B001B7B012B55
S315200005200AD1284B00225A60264B00229A60264B7D
S31520000530180002F02DFF39E03B001B7B022B35D142
S31520000540224B00225A60214B00229A60204B180031
S3152000055002F01EFF2AE01F4B180002F019FF26E0CA
S315200005601D4B01221A601D4B180002F011FF1EE0E0
S315200005703B00DB7A180004F021FE03000C00180073
S315200005802100FFF7F9FD164B180002F001FF0EE0DF
S31520000590FFF79AFE0BE0134B180002F0F9FEC04657
S315200005A005E0114B180002F0F3FE00E0C046C046FD
S315200005B0BD4605B090BDC046F0520020D85200205E
S315200005C0A8530020745200201053002068520020A7
S315200005D02C53002040530020645200204453002016
S315200005E064530020785300208453002080B500AF48
S315200005F0FFF7F2FDC0460B4B0421180001F01FFB4C
S31520000600031EF8D0084B00221A60C046054B042171
S31520000610180001F014FB031EF8D1034B1B681800C9
S31520000620BD4680BD000C02405C52002080B500AF64
S31520000630064B180002F082FBFFF7B8FEFFF7F6FE26
S31520000640FFF730FFC046BD4680BDC046D904002016
S3152000065080B584B000AF3B0000221A703B00002218
S315200006605A703B0000229A703B000122DA70084B38
S315200006701B68DAB23B001A733B0008221A713B0052
S31520000680180002F055FC03001800BD4604B080BDDA
S315200006907452002080B584B000AF3B0000221A704F
S315200006A03B0000225A703B0000229A703B00012238
S315200006B0DA70084B1B68DAB23B001A733B0008223B
S315200006C01A713B00180002F033FC03001800BD46E7
S315200006D004B080BD6852002080B582B000AFFFF71D
S315200006E0A5FFFFF783FF03007B601A4B5B68002B97
S315200006F008D0184B9B68002B04D1FFF7A9FF154B98
S3152000070001229A60144B5B68002B09D0124B9B6820
S31520000710002B05D1FFF7BEFF02000F4B9A6005E0C4
S315200007207B681800FFF790FD03007B600B4B1B686E
S31520000730002B0AD0FFF75AFF03007B60074B0022ED
S315200007401A60074B180002F023FE064B1800FFF72D
S31520000750EDFCCAE774520020685200206452002043
S31520000760BC53002090D0030080B582B000AF7860E3
S315200007707B68104A93420CD180239B0401211800E8
S3152000078002F034F880239B040021180002F02EF892
S315200007900BE08023DB040121180002F027F88023D8
S315200007A0DB040021180002F021F8C046BD4602B045
S315200007B080BDC0460064004080B584B000AF78603C
S315200007C039600F23FB1800221A700023BB607B6858
S315200007D01B68022293431A007B681A607B681B6899
S315200007E001221A437B681A6002E0BB680133BB60B2
S315200007F07B685B6801221340012B03D0BB685E4AED
S315200008009342F2D17B685B6801221340012B04D00E
S315200008100F23FB1800221A70A6E03B689B79012B58
S3152000082006D17B681B6880221A437B681A6006E023
S315200008307B681B68802293431A007B681A603B689A
S31520000840DB79012B06D17B681B6840221A437B6823
S315200008501A6006E07B681B68402293431A007B6877
S315200008601A603B681B7A012B06D17B681B68202205
S315200008701A437B681A6006E07B681B682022934334
S315200008801A007B681A603B685B7A012B06D17B686D
S315200008901B6810221A437B681A6006E07B681B6877
S315200008A0102293431A007B681A603B689B7A012BBF
S315200008B006D17B681B6808221A437B681A6006E00B
S315200008C07B681B68082293431A007B681A603B6882
S315200008D0DB7A012B06D17B681B6804221A437B68CE
S315200008E01A6006E07B681B68042293431A007B6823
S315200008F01A603B689B789A073B68DB781B061A438D
S315200009003B681B791B041A433B685B791B051A431A
S315200009103B681B88013B1A437B68DA617B681B684E
S31520000920012293431A007B681A600023BB6002E011
S31520000930BB680133BB607B685B6801221340012BD7
S3152000094003D1BB680C4A9342F2D17B685B680122D3
S315200009501340012B04D10F23FB1800221A7003E049
S315200009600F23FB1801221A700F23FB181B7818007F
S31520000970BD4604B080BDC046FFFF000090B585B0DF
S3152000098000AF78600023FB607B689B7A1A00012306
S315200009909340FB60644A80239B00D358624901221E
S315200009A01A4380239B00CA505F4A87239B00D35853
S315200009B0FA68D2435C491A4087239B00CA507B6859
S315200009C01B7B002B2CD1584A83239B00D358FA68D3
S315200009D0D24355491A4083239B00CA507B68DB8843
S315200009E01B047A68528814004F497A68927A10005C
S315200009F023431A0003004833DB005A507B689B8848
S31520000A001B047A681288140047497A68927A100083
S31520000A1023431A0003004833DB00CB1804331A6043
S31520000A207B681B7B012B2BD13F4A83239B00D2580B
S31520000A303D49FB681A4383239B00CA507B681B8869
S31520000A401B047A685288140037497A68927A100013
S31520000A5023431A0003004833DB005A507B689B88E7
S31520000A601B047A68D28814002F497A68927A10007B
S31520000A7023431A0003004833DB00CB1804331A60E3
S31520000A807B68DB7A002B0BD1274A81239B00D35826
S31520000A90FA68D24324491A4081239B00CA5009E0B0
S31520000AA0214A81239B00D2581F49FB681A43812380
S31520000AB09B00CA507B681B89002B0AD11A4A8523C2
S31520000AC09B00D358FA68D24317491A4085239B00C6
S31520000AD0CA507B681B89012B09D1134A85239B00A9
S31520000AE0D2581149FB681A4385239B00CA507B685C
S31520000AF05B7B012B09D10C4A87239B00D2580A49DC
S31520000B00FB681A4387239B00CA50074A80239B0011
S31520000B10D3580549012293431A0080239B00CA50CB
S31520000B20C046BD4605B090BD0064004080B582B089
S31520000B3000AF78607B6800229A717B680022DA71A8
S31520000B407B6800221A727B6800225A727B68002218
S31520000B509A727B680022DA727B6800229A707B6820
S31520000B600022DA707B6803221A717B6802225A718E
S31520000B707B6801221A80C046BD4602B080BD80B582
S31520000B8082B000AF0200FB1D1A70174A80239B001B
S31520000B90D358154901221A4380239B00CA50124A72
S31520000BA080239B00D3581049104A1A4080239B006B
S31520000BB0CA500D4A80239B00D258FB1D1B781B026E
S31520000BC009491A4380239B00CA50074A80239B0069
S31520000BD0D3580549012293431A0080239B00CA500B
S31520000BE0C046BD4602B080BD00640040F1C0FFFF94
S31520000BF080B582B000AF78600A00FB1C1A70FB1C1F
S31520000C001B78002B07D07B681B68802252021A4370
S31520000C107B681A6005E07B681B68044A1A407B687B
S31520000C201A60C046BD4602B080BDC046FFFFFEFF2B
S31520000C3080B582B000AF78600A00FB1C1A70FB1CDE
S31520000C401B78002B2AD07B681B6880221A437B687E
S31520000C501A607A68C2235B00D358802252001A4356
S31520000C6011007A68C2235B00D1507A68CA235B00E0
S31520000C70D358802252001A4311007A68CA235B0097
S31520000C80D1507A68D2235B00D358802252001A436F
S31520000C9011007A68D2235B00D15027E07B681B685D
S31520000CA0802293431A007B681A607A68C2235B000D
S31520000CB0D358104A134019007A68C2235B00D150DA
S31520000CC07A68CA235B00D3580A4A134019007A6807
S31520000CD0CA235B00D1507A68D2235B00D358054AD9
S31520000CE0134019007A68D2235B00D150C046BD4616
S31520000CF002B080BDFFFEFFFF90B585B000AF7860E3
S31520000D0039600F23FB1800221A707B689A688023AB
S31520000D10DB041A408023DB049A4204D10F23FB18FC
S31520000D2000221A701FE07B689A6880231B051A40F0
S31520000D3080231B059A4204D10F23FB1801221A7027
S31520000D4011E07B689A6880235B051A4080235B0547
S31520000D509A4204D10F23FB1802221A7003E00F23B4
S31520000D60FB1804221A700F23FB181B78042B00D1C2
S31520000D70ACE00F217B181A787B6818321201D35801
S31520000D807A181278012119407B6818321201D15045
S31520000D903B681B7A002B14D10F203B181A787B68EE
S31520000DA018321201D1583B681B685B053A68527AA3
S31520000DB013433A18127819437B6818321201D1501E
S31520000DC016E00F203B181A787B6818321201D1588A
S31520000DD03B685B68DB003A68127A13433A68527ABA
S31520000DE013433A18127819437B6818321201D150EE
S31520000DF03B689B7A0F221340DAB23B689A720F2423
S31520000E003B191B787A6818331B01D31804331A68E8
S31520000E103B191B780F218A43796818331B01CB189D
S31520000E2004331A603B191B787A6818331B01D318D0
S31520000E3004331A683B689B7A19003B191B780A43CE
S31520000E40796818331B01CB1804331A603B689B7BE7
S31520000E501A063B685B7B1B041A433B681B7B1B0201
S31520000E6013433A68D27A10003A19117803431A00CC
S31520000E707868C4235B0009014118CB181A603B68C7
S31520000E809B7C1A063B685B7C1B041A433B681B7CD5
S31520000E901B0213433A68D27B10003A191178034398
S31520000EA01A007868C6235B0009014118CB181A601E
S31520000EB03B191A787B6818321201D3583A191278DE
S31520000EC0012119437B6818321201D1500F23FB18D8
S31520000ED01B781800BD4605B090BD80B584B000AF24
S31520000EE078600A00FB1C1A700023FB60FB1C1B7831
S31520000EF0012B09D0022B0DD0002B11D17B689B68CA
S31520000F00254A1340FB600EE07B689B68234A13400A
S31520000F10FB6008E07B689B68214A1340FB6002E087
S31520000F200023FB60C046FB681E4A93421BD01D4A25
S31520000F30934208D81C4A934212D0174A934218D09B
S31520000F40002B0AD01EE0194A93420FD0144A93422E
S31520000F5015D0124A93420FD014E00223FB6014E00E
S31520000F600023FB6011E00023FB600EE00023FB6002
S31520000F700BE00123FB6008E00123FB6005E0012371
S31520000F80FB6002E00023FB60C046FB68DBB2180072
S31520000F90BD4604B080BDC04603000004000300081F
S31520000FA000000310000100080100000400000110E9
S31520000FB080B582B000AF78600A00FB1C1A70FB1C5B
S31520000FC01B78012B0BD0022B11D0002B00D016E062
S31520000FD07B689B6880221A437B689A600FE07B6857
S31520000FE09B68802212021A437B689A6007E07B681E
S31520000FF09B68802212041A437B689A60C046C046CA
S31520001000BD4602B080BD80B584B000AFF8607A607E
S315200010100B203B180A1C1A703B181A78FB681B32E7
S315200010201201D358DBB204221340DAB27B681A725B
S315200010307B681B7A002B0CD10B23FB181A78FB68D4
S315200010401B321201D3585B0D5B055A0D7B681A6063
S315200010500BE00B23FB181A78FB681B321201D358BE
S31520001060DB08DB00DA087B685A600B217B181A78CC
S31520001070FB681B321201D358DBB202221340DAB2CC
S315200010807B685A727B181B78FA681B331B01D318AE
S3152000109004331B68DBB20F221340DAB27B689A72E4
S315200010A008003B181B78FA681B331B01D31804333E
S315200010B01B681B0ADAB27B68DA743B181A78F9685F
S315200010C0DC235B0012018A18D3181B68DAB27B680E
S315200010D0DA723B181A78F968DC235B0012018A1849
S315200010E0D3181B681B0ADAB27B681A733B181A7866
S315200010F0F968DC235B0012018A18D3181B681B0CC5
S31520001100DAB27B685A733B181A78F968DC235B00DD
S3152000111012018A18D3181B681B0EDAB27B689A73E1
S315200011203B181A78F968DE235B0012018A18D31857
S315200011301B68DAB27B68DA733B181A78F968DE2303
S315200011405B0012018A18D3181B681B0ADAB27B6867
S315200011501A743B181A78F968DE235B0012018A1884
S31520001160D3181B681B0CDAB27B685A743B181A78A2
S31520001170F968DE235B0012018A18D3181B681B0E40
S31520001180DAB27B689A743B181B78002B06D1FB6871
S31520001190DB6820221A43FB68DA6005E0FB681B69DE
S315200011A020221A43FB681A61C046BD4604B080BDA2
S315200011B080B582B000AF78600A00FB1C1A70FB1C59
S315200011C01B78002B06D17B68DB6820221A437B68BC
S315200011D0DA6005E07B681B6920221A437B681A6166
S315200011E0C046BD4602B080BD80B584B000AF7860F1
S315200011F00A00FB1C1A700F23FB1800221A70FB1C16
S315200012001B78002B08D17B68DB68DAB20F23FB182A
S3152000121003210A401A7010E0FB1C1B78012B08D111
S315200012207B681B69DAB20F23FB1803210A401A7068
S3152000123003E00F23FB1800221A700F23FB181B78DC
S315200012401800BD4604B080BD80B584B000AF78607C
S315200012500A00FB1C1A700F23FB1800221A70424B3F
S31520001260BB60FB1C1B78002B24D17B681B680322E8
S31520001270934301221A437B681A6002E0BB68013B54
S31520001280BB607B685B6803221340012B02D0BB68DE
S31520001290002BF3D17B685B6803221340012B04D01B
S315200012A00F23FB1800221A7057E00F23FB18012288
S315200012B01A7052E0FB1C1B78012B21D17B681B681E
S315200012C0032293431A007B681A6002E0BB68013B45
S315200012D0BB607B685B680322134002D0BB68002B8F
S315200012E0F4D17B685B680322134004D00F23FB18DC
S315200012F000221A7031E00F23FB1801221A702CE00D
S31520001300FB1C1B78022B24D17B681B68032293438A
S3152000131002221A437B681A6002E0BB68013BBB606D
S315200013207B685B6803221340022B02D0BB68002B2C
S31520001330F3D17B685B6803221340022B04D00F2372
S31520001340FB1800221A7008E00F23FB1801221A70DE
S3152000135003E00F23FB1800221A700F23FB181B78BB
S315200013601800BD4604B080BDFFFF000080B584B0E4
S3152000137000AF78600F23FB1800221A707B681B6869
S315200013800322934302221A437B681A607B685B68B8
S3152000139003221340022B03D10F23FB1801221A70BC
S315200013A00F23FB181B781800BD4604B080BD80B5FE
S315200013B084B000AF7860154BFB600B23FB1800222E
S315200013C01A707B681B68022293431A007B681A6096
S315200013D002E0FB68013BFB607B685B6802221340EE
S315200013E0022B02D1FB68002BF3D17B685B680222BB
S315200013F01340022B03D00B23FB1801221A700B2358
S31520001400FB181B781800BD4604B080BDFFFF000006
S3152000141080B584B000AF78600F217B1800221A7047
S315200014207B689B69DAB208007B1870210A401A7023
S3152000143001007B181B781800BD4604B080BD80B51E
S3152000144084B000AF78600F217B1800221A707B6869
S315200014509B691A0E7B181A707B181B781800BD46DC
S3152000146004B080BD80B584B000AF78600F217B18B2
S3152000147000221A707B689B691A0C7B181A707B18DD
S315200014801B781800BD4604B080BD80B584B000AF7F
S31520001490F860B960FB1D1A70FB1D1B78002B06D067
S315200014A0FB685A69BB681A43FB685A6106E0FB6809
S315200014B05B69BA68D2431A40FB685A61C046BD468A
S315200014C004B080BD80B584B000AF786039600F234A
S315200014D0FB1800221A703A68F0231B04134010D020
S315200014E07B689B693A6813401B031B0B04D00F23B0
S315200014F0FB1801221A7056E00F23FB1800221A70DF
S3152000150051E03A6880235B04134010D07B685B6807
S315200015103A6813401B031B0B04D00F23FB18012230
S315200015201A7040E00F23FB1800221A703BE03A683D
S3152000153080231B05134010D07B689B683A681340B4
S315200015401B031B0B04D00F23FB1801221A702AE061
S315200015500F23FB1800221A7025E03A6880239B048B
S31520001560134010D07B68DB683A6813401B031B0BC3
S3152000157004D00F23FB1801221A7014E00F23FB1846
S3152000158000221A700FE07B681B693A6813401B0320
S315200015901B0B04D00F23FB1801221A7003E00F2324
S315200015A0FB1800221A700F23FB181B781800BD4663
S315200015B004B080BD80B584B000AF78603960002368
S315200015C0FB603B68164A934203D17B6800229A61EE
S315200015D021E03B681B031B0BFB603A6880239B04BE
S315200015E0134003D07B68FA68DA6014E03A688023F7
S315200015F0DB04134003D07B68FA681A610BE03A6873
S3152000160080231B05134003D07B68FA689A6002E0AA
S315200016107B68FA685A60C046BD4604B080BDC046A5
S315200016207000F03090B585B000AF786039600F2338
S31520001630FB1800221A707B685B693A68134000D158
S31520001640DBE03B68402B00D179E00ED8042B4AD052
S3152000165004D8012B30D0022B3AD0C8E0102B58D01A
S31520001660202B61D0082B49D0C1E080221201934261
S3152000167000D1A6E08022120193420FD88022920048
S31520001680934200D187E08022D200934200D18DE0A0
S3152000169080225200934200D172E0A8E080225202BA
S315200016A0934257D08022920293425ED08022120229
S315200016B0934200D190E09AE07B689B680F22BC1889
S315200016C0534A1100180000F01BF90300237098E01C
S315200016D07B68DB680F22BC180321180000F010F984
S315200016E0030023708DE07B68DB680F22BC1808217D
S315200016F0180000F005F90300237082E07B68DB68A0
S315200017000F22BC181021180000F0FAF803002370ED
S3152000171077E07B681B690F22BC180321180000F0B4
S31520001720EFF8030023706CE07B681B690F22BC185E
S315200017300821180000F0E4F80300237061E07B68BC
S315200017401B690F22BC181021180000F0D9F80300DD
S31520001750237056E07B685B680F22BC1808211800AE
S3152000176000F0CEF8030023704BE07B685B680F2205
S31520001770BC181021180000F0C3F80300237040E0C5
S315200017807B689B690F22BC180121180000F0B8F86D
S315200017900300237035E07B689B690F22BC18022169
S315200017A0180000F0ADF8030023702AE07B689B69DF
S315200017B00F22BC180421180000F0A2F803002370A1
S315200017C01FE07B689B690F22BC187021180000F06F
S315200017D097F80300237014E07B685B680F22BC181F
S315200017E00421180000F08CF80300237009E00F2371
S315200017F0FB1800221A70C04603E00F23FB180022B4
S315200018001A700F23FB181B781800BD4605B090BD33
S315200018100101010080B582B000AF786039603B6875
S315200018208022520093424AD08022520093420CD802
S31520001830082B30D004D8012B25D0042B27D058E0F4
S31520001840202B2CD0402B2ED053E080221201934205
S3152000185041D080221201934208D8802292009342DE
S3152000186031D08022D200934231D042E080225202EF
S3152000187093421CD08022920293421CD080221202D4
S3152000188093422FD035E07B681C4A9A6031E07B6812
S315200018900822DA602DE07B681022DA6029E07B6876
S315200018A008221A6125E07B6810221A6121E07B68F4
S315200018B008225A601DE07B6810225A6019E07B6876
S315200018C004225A6015E07B6804225A6011E07B6886
S315200018D004225A600DE07B6800229A617B6804220C
S315200018E05A6006E07B6800229A617B6804225A606F
S315200018F0C046C046BD4602B080BDC04601010100BB
S3152000190080B584B000AF786039600F23FB180022C1
S315200019101A707B683A68134004D00F23FB18012203
S315200019201A7003E00F23FB1800221A700F23FB18EE
S315200019301B781800BD4604B080BDC04680B582B075
S3152000194000AF78607B684E4A934208D1012101207E
S3152000195000F0ECFE0021012000F0E8FE8CE07B6820
S31520001960484A934208D10121022000F0DFFE0021DF
S31520001970022000F0DBFE7FE07B68434A934208D1D9
S315200019800121042000F0D2FE0021042000F0CEFE2A
S3152000199072E07B683D4A934208D10121082000F07D
S315200019A0C5FE0021082000F0C1FE65E07B68384AAC
S315200019B0934208D10121102000F0B8FE002110200A
S315200019C000F0B4FE58E07B68324A934208D10121E8
S315200019D0202000F0ABFE0021202000F0A7FE4BE0E7
S315200019E07B682D4A934208D10121402000F09EFEBB
S315200019F00021402000F09AFE3EE07B68274A934271
S31520001A0008D10121802000F091FE0021802000F0E5
S31520001A108DFE31E07B68224A93420CD180235B0005
S31520001A200121180000F082FE80235B0000211800AF
S31520001A3000F07CFE20E07B681A4A93420CD180237A
S31520001A409B000121180000F071FE80239B000021DD
S31520001A50180000F06BFE0FE07B68134A93420BD10F
S31520001A608023DB000121180000F060FE8023DB00CC
S31520001A700021180000F05AFEC046BD4602B080BDC7
S31520001A80000002400004024000080240000C024010
S31520001A90001002400014024000180240001C0240C0
S31520001AA000200240002402400028024080B586B073
S31520001AB000AF7860396000237B6100233B610023FF
S31520001AC0FB6000237B6176E001227B699A4013004C
S31520001AD03B613B681A683B691340FB60FA683B69C7
S31520001AE09A4265D17B681B687A695200032191402E
S31520001AF00A00D2431A407B681A607B681A683B68E2
S31520001B001B7919007B695B0099400B001A437B689F
S31520001B101A603B681B79012B03D03B681B79022B8B
S31520001B202ED17B689B687A695200032191400A0076
S31520001B30D2431A407B689A607B689A683B685B79D7
S31520001B4019007B695B0099400B001A437B689A60F9
S31520001B507B685B687A6992B2110001228A40D2437F
S31520001B601A407B685A607B685B683A6892791100F4
S31520001B707A6992B291400A0092B21A437B685A60FF
S31520001B807B68DB687A6992B25200032191400A0091
S31520001B90D2431A407B68DA607B68DA683B68DB7977
S31520001BA019007B695B0099400B001A437B68DA6059
S31520001BB07B6901337B617B690F2B85D9C046BD4686
S31520001BC006B080BD80B582B000AF78607B68094AD8
S31520001BD01A607B6800221A717B6800225A717B6822
S31520001BE000229A717B680022DA71C046BD4602B097
S31520001BF080BDC046FFFF000080B584B000AF78608E
S31520001C000A00BB1C1A8080235B02FB60BB1C1A885F
S31520001C10FB681343FB60FA687B68DA61BB1C1A8891
S31520001C207B68DA61FA687B68DA617B68DB69FB606E
S31520001C307B68DB69FB60C046BD4604B080BD80B5CD
S31520001C4084B000AF78600A00BB1C1A800F23FB18F3
S31520001C5000221A707B681B69BA1C1288134004D0B4
S31520001C600F23FB1801221A7003E00F23FB18002212
S31520001C701A700F23FB181B781800BD4604B080BDD0
S31520001C8080B582B000AF78607B681B699BB2180074
S31520001C90BD4602B080BD80B584B000AF78600A0032
S31520001CA0BB1C1A800F23FB1800221A707B685B6905
S31520001CB0BA1C1288134004D00F23FB1801221A7075
S31520001CC003E00F23FB1800221A700F23FB181B7842
S31520001CD01800BD4604B080BD80B582B000AF7860E4
S31520001CE07B685B699BB21800BD4602B080BD80B59B
S31520001CF082B000AF78600A00BB1C1A807B68BA1CD1
S31520001D0012881A83C046BD4602B080BD80B582B017
S31520001D1000AF78600A00BB1C1A807B68BA1C128848
S31520001D205A83C046BD4602B080BD80B582B000AFA2
S31520001D30786008001100BB1C021C1A807B1C0A1C40
S31520001D401A707B1C1B78002B04D07B68BA1C128867
S31520001D501A8303E07B68BA1C12885A83C046BD46A4
S31520001D6002B080BD80B582B000AF78600A00BB1C8F
S31520001D701A80BB1C1A887B685A61C046BD4602B0D1
S31520001D8080BD80B582B000AF78600A00BB1C1A8087
S31520001D907B685A69BB1C1B885A407B685A61C046BF
S31520001DA0BD4602B080BD80B584B000AF7860080023
S31520001DB01100BB1C021C1A807B1C0A1C1A700023F3
S31520001DC0FB600023BB607B1C1A78BB1C1B88072189
S31520001DD00B409B009A401300FB60BB1C1B88DB0852
S31520001DE09BB21A007B6808329200D358BA1C12881C
S31520001DF007210A4092000F2191400A00D243B91CC4
S31520001E000988C90889B208001A4011007B680200B7
S31520001E1008329200D150BB1C1B88DB089BB21A00EB
S31520001E207B6808329200D358FA681343BB60BB1C08
S31520001E301B88DB089BB21A007B6808329200B968BF
S31520001E40D150C046BD4604B080BDC04680B500AF67
S31520001E50144B1A68134B01210A431A60114B0022B6
S31520001E609A60104B1A680F4B0F490A401A600D4BA7
S31520001E700E4A5A600B4A84230D49D150094A8823B9
S31520001E800C49D150074B1A68064B0B490A401A6079
S31520001E90044B0022DA60034A8C230021D150C0462D
S31520001EA0BD4680BD00380240FFFFF6EA1030002410
S31520001EB00030002000300024FFFFFBFF80B582B0F9
S31520001EC000AF0200FB1D1A70054B00221A70044A4F
S31520001ED0FB1D1B781370C046BD4602B080BDC046B0
S31520001EE00238024090B583B000AF00233B60FB1D53
S31520001EF000221A70BB1D00221A70BC1D312000F072
S31520001F009BFD030023703B6801333B603A68A023A6
S31520001F10DB019A4203D0BB1D1B78002BEDD031206C
S31520001F2000F08AFD031E03D0FB1D01221A7002E079
S31520001F30FB1D00221A70FB1D1B781800BD4603B03E
S31520001F4090BD80B584B000AF0200FB1D1A7000233F
S31520001F50FB600A4B1B68FB60FB68F8229343FB601F
S31520001F60FB1D1B78DB00FA681343FB60034BFA6802
S31520001F701A60C046BD4604B080BDC0460038024047
S31520001F8080B582B000AF0200FB1D1A70034BFA1D0C
S31520001F9012781A60C046BD4602B080BD0000474296
S31520001FA080B582B000AF0200FB1D1A700C4B0022D8
S31520001FB01A700B4B00221A70FB1D1B78012B02D0C6
S31520001FC0042B04D007E0064B01221A7003E0044BD1
S31520001FD005221A70C046C046BD4602B080BDC04626
S31520001FE07038024080B582B000AF0200FB1D1A7027
S31520001FF0034BFA1D12781A60C046BD4602B080BD5A
S31520002000800E474280B584B000AFF860B9607A6030
S315200020103B607B689A01BB681A433B685B08013BBF
S315200020201B041A43FB681A431100BB691A06034BAB
S315200020300A435A60C046BD4604B080BD00380240FF
S3152000204080B582B000AF0200FB1D1A70034BFA1D4B
S3152000205012781A60C046BD4602B080BD6000474275
S3152000206080B582B000AF786039607B689A013B68A2
S315200020701B070449134384228B50C046BD4602B039
S3152000208080BDC0460038024080B582B000AF020055
S31520002090FB1D1A70034BFA1D12781A60C046BD4606
S315200020A002B080BD6800474280B584B000AFF860BA
S315200020B0B9607A60FB689A01BB681B061A437B6885
S315200020C01B070449134388228B50C046BD4604B0E3
S315200020D080BDC0460038024080B582B000AF020005
S315200020E0FB1D1A70034BFA1D12781A60C046BD46B6
S315200020F002B080BD7000474280B582B000AF0200BA
S31520002100FB1D1A70034BFA1D12781A60C046BD4695
S3152000211002B080BD4C00474280B584B000AF7860E5
S3152000212039600023FB600A4B9B68FB60FB68094A09
S315200021301340FB607A683B681343FA681343FB60DD
S31520002140034BFA689A60C046BD4604B080BDC046BF
S3152000215000380240FFFF9FF880B584B000AF78605A
S3152000216039600023FB600A4B9B68FB60FB685B01C0
S315200021705B09FB607A683B681343FA681343FB608C
S31520002180034BFA689A60C046BD4604B080BDC0467F
S315200021900038024080B584B000AF78600023FB6031
S315200021A0084B9B68FB60FB6803229343FB60FA683D
S315200021B07B681343FB60034BFA689A60C046BD46B2
S315200021C004B080BD0038024080B500AF044B9B6848
S315200021D0DBB20C221340DBB21800BD4680BDC046E0
S315200021E00038024080B584B000AF78600023FB60E1
S315200021F0084B9B68FB60FB68F0229343FB60FA6800
S315200022007B681343FB60034BFA689A60C046BD4661
S3152000221004B080BD0038024080B584B000AF78603D
S315200022200023FB60084B9B68FB60FB68074A134052
S31520002230FB60FA687B681343FB60034BFA689A607D
S31520002240C046BD4604B080BD00380240FFE3FFFF14
S3152000225080B584B000AF78600023FB60094B9B6893
S31520002260FB60FB68084A1340FB607B68DB00FA686A
S315200022701343FB60034BFA689A60C046BD4604B020
S3152000228080BDC04600380240FF1FFFFF80B588B0E2
S3152000229000AF78600023BB6100237B610023FB61D4
S315200022A002233B610023FB600223BB60494B9B68F2
S315200022B00C221340BB61BB69042B07D0082B09D025
S315200022C0002B41D17B68444A1A6041E07B68434A2F
S315200022D01A603DE03F4B5B689B0D01221340FB607B
S315200022E03C4B5B683F221340BB60FB68002B0DD044
S315200022F0B9683A4801F064F903001A00354B5B6867
S315200023009B09DB05DB0D5343FB610CE0B9683248C2
S3152000231001F056F903001A002E4B5B689B09DB057A
S31520002320DB0D5343FB612B4B5B681B0C03221340D5
S3152000233001335B003B613969F86901F041F903001B
S315200023401A007B681A6003E07B68234A1A60C0463D
S31520002350204B9B68F0221340BB61BB691B09BB6104
S315200023601F4ABB69D3181B78DBB27B617B681A686E
S315200023707B69DA407B685A60164B9A68E0235B01DA
S315200023801340BB61BB699B0ABB61154ABB69D31865
S315200023901B78DBB27B617B685A687B69DA407B6895
S315200023A09A600C4B9A68E0231B021340BB61BB6901
S315200023B05B0BBB610A4ABB69D3181B78DBB27B6116
S315200023C07B685A687B69DA407B68DA60C046BD461E
S315200023D008B080BD003802400024F40040787D011A
S315200023E0B852002080B584B000AF78600023FB602F
S315200023F07A68C0239B001A40C0239B009A420FD1C3
S315200024000D4B9B68FB60FB680C4A1340FB607B68A6
S315200024100B4A1340FA681343FB60074BFA689A602D
S31520002420054B196F7B681B051A0D034B0A431A6768
S31520002430C046BD4604B080BD00380240FFFFE0FF25
S31520002440FFFCFF0F80B582B000AF0200FB1D1A70A3
S31520002450034BFA1D12781A60C046BD4602B080BDF5
S315200024603C0E474280B582B000AF0200FB1D1A70B9
S31520002470034BFA1D12781A60C046BD4602B080BDD5
S31520002480400E474280B582B000AF7860034B7A6831
S315200024901A60C046BD4602B080BDC0465C014742B8
S315200024A080B584B000AF78600023FB60094A8C2396
S315200024B0D358FB60FB68084A1340FB60FA687B68C8
S315200024C01343FB6003498C22FB688B50C046BD46F4
S315200024D004B080BD00380240FFFFCFFF80B584B036
S315200024E000AF78600023FB60094A8C23D358FB6039
S315200024F0FB68084A1340FB60FA687B681343FB605D
S3152000250003498C22FB688B50C046BD4604B080BD73
S3152000251000380240FFFF3FFF80B584B000AF7860EF
S315200025200023FB600A4A8C23D358FB60FB681F22DA
S315200025309343FB607B68013BFA681343FB600449C5
S315200025408C22FB688B50C046BD4604B080BDC04679
S315200025500038024080B584B000AF78600023FB606D
S315200025600A4A8C23D358FB60FB68094A1340FB6058
S315200025707B68013B1B02FA681343FB6003498C22EC
S31520002580FB688B50C046BD4604B080BD0038024073
S31520002590FFE0FFFF80B584B000AF78600023FB60CA
S315200025A0094A8C23D358FB60FB68084A1340FB601A
S315200025B0FA687B681343FB6003498C22FB688B50C7
S315200025C0C046BD4604B080BD00380240FFFFFCFF78
S315200025D080B582B000AF7860034B7A681A60C04637
S315200025E0BD4602B080BDC046E011474280B582B0EC
S315200025F000AF78600A00FB1C1A70FB1C1B78002BAE
S3152000260006D0094B196B084B7A680A431A6306E011
S31520002610054B1A6B7B68D943034B0A401A63C046A5
S31520002620BD4602B080BDC0460038024080B582B0AB
S3152000263000AF78600A00FB1C1A70FB1C1B78002B6D
S3152000264006D0094B596B084B7A680A435A6306E051
S31520002650054B5A6B7B68D943034B0A405A63C046E5
S31520002660BD4602B080BDC0460038024080B582B06B
S3152000267000AF78600A00FB1C1A70FB1C1B78002B2D
S3152000268006D0094B996B084B7A680A439A6306E091
S31520002690054B9A6B7B68D943034B0A409A63C04625
S315200026A0BD4602B080BDC0460038024080B582B02B
S315200026B000AF78600A00FB1C1A70FB1C1B78002BED
S315200026C006D0094B196C084B7A680A431A6406E04F
S315200026D0054B1A6C7B68D943034B0A401A64C046E3
S315200026E0BD4602B080BDC0460038024080B582B0EB
S315200026F000AF78600A00FB1C1A70FB1C1B78002BAD
S3152000270006D0094B596C084B7A680A435A6406E08E
S31520002710054B5A6C7B68D943034B0A405A64C04622
S31520002720BD4602B080BDC0460038024080B582B0AA
S3152000273000AF78600A00FB1C1A70FB1C1B78002B6C
S3152000274006D0094B1969084B7A680A431A6106E0D4
S31520002750054B1A697B68D943034B0A401A61C04668
S31520002760BD4602B080BDC0460038024080B582B06A
S3152000277000AF78600A00FB1C1A70FB1C1B78002B2C
S3152000278006D0094B5969084B7A680A435A6106E014
S31520002790054B5A697B68D943034B0A405A61C046A8
S315200027A0BD4602B080BDC0460038024080B582B02A
S315200027B000AF78600A00FB1C1A70FB1C1B78002BEC
S315200027C006D0094B9969084B7A680A439A6106E054
S315200027D0054B9A697B68D943034B0A409A61C046E8
S315200027E0BD4602B080BDC0460038024080B582B0EA
S315200027F000AF78600A00FB1C1A70FB1C1B78002BAC
S3152000280006D0094B196A084B7A680A431A6206E011
S31520002810054B1A6A7B68D943034B0A401A62C046A5
S31520002820BD4602B080BDC0460038024080B582B0A9
S3152000283000AF78600A00FB1C1A70FB1C1B78002B6B
S3152000284006D0094B596A084B7A680A435A6206E051
S31520002850054B5A6A7B68D943034B0A405A62C046E5
S31520002860BD4602B080BDC0460038024080B582B069
S3152000287000AF78600A00FB1C1A70FB1C1B78002B2B
S3152000288006D0094B196D084B7A680A431A6506E08B
S31520002890054B1A6D7B68D943034B0A401A65C0461F
S315200028A0BD4602B080BDC0460038024080B582B029
S315200028B000AF78600A00FB1C1A70FB1C1B78002BEB
S315200028C006D0094B596D084B7A680A435A6506E0CB
S315200028D0054B5A6D7B68D943034B0A405A65C0465F
S315200028E0BD4602B080BDC0460038024080B582B0E9
S315200028F000AF78600A00FB1C1A70FB1C1B78002BAB
S3152000290006D0094B996D084B7A680A439A6506E00A
S31520002910054B9A6D7B68D943034B0A409A65C0469E
S31520002920BD4602B080BDC0460038024080B582B0A8
S3152000293000AF78600A00FB1C1A70FB1C1B78002B6A
S3152000294006D0094B196E084B7A680A431A6606E0C8
S31520002950054B1A6E7B68D943034B0A401A66C0465C
S31520002960BD4602B080BDC0460038024080B582B068
S3152000297000AF78600A00FB1C1A70FB1C1B78002B2A
S3152000298006D0094B596E084B7A680A435A6606E008
S31520002990054B5A6E7B68D943034B0A405A66C0469C
S315200029A0BD4602B080BDC0460038024080B582B028
S315200029B000AF0200FB1D1A70FB1D1B78012B06D1F0
S315200029C0084B1A6F074B08210A431A6705E0054B87
S315200029D01A6F044B08218A431A67C046BD4602B0C7
S315200029E080BDC0460038024080B582B000AF0200EC
S315200029F0FB1D1A70BB1D0A1C1A70BB1D1B78002BF1
S31520002A0009D00C4B1B78DAB20A49FB1D1B781343FD
S31520002A10DBB20B700AE0074B1B78DBB2FA1D12788B
S31520002A20D243D2B203491340DBB20B70C046BD4637
S31520002A3002B080BD0D38024080B586B000AF0200DE
S31520002A40FB1D1A700023FB6000237B611323FB18F8
S31520002A5000221A70FB1D1B785B09DBB2FB60FB684A
S31520002A60012B03D1144B1B687B6109E0FB68022B09
S31520002A7003D1114B1B6F7B6102E00F4B5B6F7B61B8
S31520002A80FB1D1B781F221340FB607A69FB68DA4026
S31520002A9013000122134004D01323FB1801221A70BD
S31520002AA003E01323FB1800221A701323FB181B784C
S31520002AB01800BD4606B080BD0038024080B500AF84
S31520002AC0044B5A6F034B802149040A435A67C04678
S31520002AD0BD4680BD0038024080B584B000AF0200FC
S31520002AE0FB1D1A700F23FB1800221A700A4BDB6895
S31520002AF0FA1D1278134004D00F23FB1801221A70F6
S31520002B0003E00F23FB1800221A700F23FB181B78F3
S31520002B101800BD4604B080BD0038024080B582B0A2
S31520002B2000AF0200FB1D1A70034AFB1D1B781370B1
S31520002B30C046BD4602B080BD0E38024080B500AF0B
S31520002B408023DB0101211800FFF770FE8023DB01C3
S31520002B5000211800FFF76AFEC046BD4680BD80B53D
S31520002B6082B000AF0200FB1D1A70044BFA1D1278CA
S31520002B701A60C046BD4602B080BDC046003801403E
S31520002B8080B582B000AF0200FB1D1A70034BFA1D00
S31520002B9012781A60C046BD4602B080BD200027428A
S31520002BA080B584B000AF0200FB1D1A70BB1D0A1C45
S31520002BB01A700023FB60BB1D1B78032213409B0069
S31520002BC00F229A401300FB60184ABB1D1B789B08F6
S31520002BD0DBB202339B009B58FA68D2431348B91DD7
S31520002BE009788908C9B21A408B1C9B001A500F4AD3
S31520002BF0BB1D1B789B08DBB202339B009A58FB1D3A
S31520002C001978BB1D1B78032003409B0099400B00BD
S31520002C100648B91D09788908C9B21A438B1C9B003E
S31520002C201A50C046BD4604B080BDC046003801409B
S31520002C3080B582B000AF7860034B7A681A60C046D0
S31520002C40BD4602B080BDC046DC00274280B582B0BA
S31520002C5000AF0200FB1D1A70034BFA1D12781A6092
S31520002C60C046BD4602B080BD0004274280B582B072
S31520002C7000AFFB1D00221A70094B1A6A80235B00E5
S31520002C80134003D0FB1D01221A7002E0FB1D002217
S31520002C901A70FB1D1B781800BD4602B080BDC046C9
S31520002CA00038014080B582B000AF0200FB1D1A70CB
S31520002CB0FB1D1B781A001F231A400749FB1D1B7892
S31520002CC05BB25B090120904002009B005A50C0462F
S31520002CD0BD4602B080BDC04600E100E080B582B0AE
S31520002CE000AF02003960FB1D1A70FB1D1B787F2B7D
S31520002CF00DD93B68DAB20F49FB1D1B7818000F234C
S31520002D000340043B1201D2B2CB181A760DE03B6881
S31520002D10DBB20949FA1D127852B21B01D8B2C02380
S31520002D209B008A18D318021C1A70C046BD4602B0F2
S31520002D3080BDC04600ED00E000E100E090B58DB01A
S31520002D4000AF786028243B191800FEF73BFF714B33
S31520002D501800FEF7F3FD704B1800FDF705FD8023E4
S31520002D609B0401211800FFF7A1FC01210220FFF797
S31520002D703DFC684B092209211800FFF714F8654B22
S31520002D80092208211800FFF70EF821007B1880225F
S31520002D9092001A607B1802221A717B1800229A71FF
S31520002DA07B180022DA717B1802225A710C007B18DC
S31520002DB0584A19001000FEF779FE21007B18802260
S31520002DC052001A607B1802221A717B1800229A710F
S31520002DD07B180122DA717B1802225A710C007B18AB
S31520002DE04C4A19001000FEF761FE21007B18402294
S31520002DF01A607B1802221A717B1800229A717B189E
S31520002E000022DA717B1802225A710C007B18414A83
S31520002E1019001000FEF74AFE21007B1820221A60B6
S31520002E207B1802221A717B1800229A717B180122C4
S31520002E30DA717B1802225A717B18364A1900100063
S31520002E40FEF734FE18217B1800229A727B18002286
S31520002E50DA727B1801221A737B18304A1A807B1883
S31520002E6000225A807B182E4A9A807B180022DA800C
S31520002E707B1800221A817B1801225A737B181800AE
S31520002E80FDF77CFD0C217B1800229A717B1800220D
S31520002E90DA717B1800221A727B1800225A727B186C
S31520002EA000229A727B180022DA727B1800229A700E
S31520002EB07B180022DA707B1802221A717B180322F3
S31520002EC05A717B1807221A807B18134A19001000A2
S31520002ED0FDF772FC031E04D1124B180000F058FABD
S31520002EE003E0114B180000F053FA104B7A681A6071
S31520002EF002211420FFF7F2FE1420FFF7D3FE064B23
S31520002F00012202211800FEF7C0FAC046BD460DB0C8
S31520002F1090BDC046000402400064004020400000EE
S31520002F20E0430000CC530020E053002090C0012055
S31520002F30B0B58AB000AF78603E4B3B621F23FB18CA
S31520002F4000221A707B681B789A027B685B785B028A
S31520002F501A437B689B785B0113437A68D2781343C4
S31520002F601A0008217B181A607B1800225A727B18D7
S31520002F7000221A727B681B79082B02D97B680822EB
S31520002F801A717B681A790823FB189A722723FB1873
S31520002F9000221A7011E027203B181A783B181B785C
S31520002FA079688A1851790822BA18D3180A1CDA7255
S31520002FB03B181A783B1801321A707B681B79272236
S31520002FC0BA1812789A42E6D31F257C190823FA18D4
S31520002FD03B6A11001800FDF78FFE030023707B1952
S31520002FE01B78042B05D1144B180000F0D1F90023CF
S31520002FF01CE0C0461F23FB181A783B6A11001800F4
S31520003000FDF76BFF0300022BF4D01F23FB181A7861
S315200030103B6A11001800FDF760FF031E05D1074B20
S31520003020180000F0B5F9002300E001231800BD4682
S315200030300AB0B0BD00640040F85300200C540020B4
S3152000304090B589B000AF7860304A314B1100180036
S31520003050FEF738FA0300012B01D0002351E00821A6
S315200030600C007B182A481A000021FDF7CCFF21000E
S315200030707B181B689B0ADBB201221340DAB27B68FD
S315200030801A707B181B685B0ADBB201221340DAB286
S315200030907B685A707B181B685B09DBB20F221340D2
S315200030A0DAB27B689A707B181B68DBB21F2213404A
S315200030B0DAB27B68DA707B189B7A0F221340DAB279
S315200030C07B681A711F23FB1800221A7011E01F203B
S315200030D03B181A783B181B78082179188A18D17A58
S315200030E07A68D3180A1C5A713B181A783B18013291
S315200030F01A707B681B791F22BA1812789A42E6D377
S3152000310001231800BD4609B090BDC0460300001239
S315200031100064004080B582B000AF7860044B7A68C6
S3152000312004490A43DA60C046BD4602B080BDC046A7
S3152000313000ED00E00000FA05B0B584B000AF78607D
S315200031400F23FB1800221A700E23FB1800221A7078
S315200031500D23FB180F221A707B68DB78002B4DD0CD
S31520003160314BDB68DB431B0ADAB20F203B18072101
S315200031700A401A700E257B193A18127804218A1AE9
S315200031801A700D243B191A7801007B181B781A41F6
S315200031903B191A707B685B781A007B191B789A405A
S315200031A008007B181A707B689B783A1912781340AE
S315200031B0D9B23B183A1812780A431A703B183A18B3
S315200031C0127812011A70194A7B681B781900C023DD
S315200031D09B005218D3183A1812781A707B681B78FD
S315200031E01A001F23134011497A6812785209D2B265
S315200031F0100001229A4083005A5010E07B681B7809
S315200032001A001F23134009497A6812785209D2B24C
S31520003210100001229A40030020339B005A50C046DA
S31520003220BD4604B0B0BDC04600ED00E000E100E0C0
S3152000323080B582B000AF786039603B68054A13409C
S315200032401900054B7A680A439A60C046BD4602B00B
S3152000325080BDC04680FFFF1F00ED00E080B582B034
S3152000326000AF0200FB1D1A70BB1D0A1C1A70BB1D85
S315200032701B78002B07D00A4B1969FB1D1A78084BBF
S315200032800A431A6107E0064B1A69FB1D1B78D943CE
S31520003290034B0A401A61C046BD4602B080BDC046F7
S315200032A000ED00E080B582B000AF78607B68042B2B
S315200032B006D1084B1A68074B04210A431A6005E019
S315200032C0044B1A68034B04218A431A60C046BD4644
S315200032D002B080BD10E000E080B582B000AF0200F1
S315200032E0FB1D1A70C0460B4B1B889BB21A0080230D
S315200032F01340F8D0074AFB1D1B789BB29380FB1D19
S315200033001B780A2B02D10D20FFF7E6FFC046BD46EB
S3152000331002B080BD0010014080B500AF074B1B886E
S315200033209BB21A002023134001D1002303E0034B54
S315200033309B889BB2DBB21800BD4680BD00100140C1
S3152000334080B500AFC046074B1B889BB21A002023CE
S315200033501340F8D0034B9B889BB2DBB21800BD46C6
S3152000336080BDC0460010014080B582B000AF7860B5
S3152000337006E07B685A1C7A601B781800FFF7ACFFC2
S315200033807B681B78002BF4D1C046BD4602B080BDB9
S3152000339080B582B000AF78607B681800FFF7E4FF45
S315200033A00A20FFF799FFC046BD4602B080BDC04641
S315200033B080B500AF084B00221A60074B00225A60E6
S315200033C0054B00229A60044B0022DA60024B034A26
S315200033D05A61C046BD4680BD003C0140FFFF7F00CC
S315200033E080B584B000AF78600023FB60334BFB6070
S315200033F07B689B79002B4FD0304B1A687B681B6803
S31520003400D9432E4B0A401A602C4B5A687B681B689E
S31520003410D9432A4B0A405A607B681B791A00FB68FD
S315200034209B18FB60FB6819687B681A68FB680A436F
S315200034301A60224B9A687B681B68D9431F4B0A4047
S315200034409A601E4BDA687B681B68D9431B4B0A407F
S31520003450DA607B685B79102B0ED1184B99687B68F4
S315200034601A68164B0A439A60144BD9687B681A6807
S31520003470124B0A43DA601DE0104BFB607B685B79D8
S315200034801A00FB689B18FB60FB6819687B681A6842
S31520003490FB680A431A600DE07B681B791A00FB68FB
S315200034A09B18FB60FB681A687B681B68D943FB681E
S315200034B00A401A60C046BD4604B080BD003C0140AB
S315200034C080B582B000AF78607B6800221A607B6886
S315200034D000221A717B680C225A717B6800229A712D
S315200034E0C046BD4602B080BD80B582B000AF7860D0
S315200034F0044B1969034B7A680A431A61C046BD46D4
S3152000350002B080BD003C014080B584B000AF786039
S315200035100F23FB1800221A700A4B5B697A68134046
S3152000352004D00F23FB1801221A7003E00F23FB1887
S3152000353000221A700F23FB181B781800BD4604B012
S3152000354080BDC046003C014080B582B000AF7860A7
S31520003550034B7A685A61C046BD4602B080BDC0465C
S31520003560003C014080B584B000AF78600F23FB1883
S3152000357000221A700A4B5B697A68134004D00F2325
S31520003580FB1801221A7003E00F23FB1800221A7081
S315200035900F23FB181B781800BD4604B080BDC0461B
S315200035A0003C014080B582B000AF7860034B7A685A
S315200035B05A61C046BD4602B080BDC046003C0140AF
S315200035C0002243088B4274D303098B425FD3030A3C
S315200035D08B4244D3030B8B4228D3030C8B420DD34F
S315200035E0FF22090212BA030C8B4202D312120902DD
S315200035F065D0030B8B4219D300E0090AC30B8B421B
S3152000360001D3CB03C01A5241830B8B4201D38B03C8
S31520003610C01A5241430B8B4201D34B03C01A52416D
S31520003620030B8B4201D30B03C01A5241C30A8B42B0
S3152000363001D3CB02C01A5241830A8B4201D38B029B
S31520003640C01A5241430A8B4201D34B02C01A52413F
S31520003650030A8B4201D30B02C01A5241CDD2C309B1
S315200036608B4201D3CB01C01A524183098B4201D32D
S315200036708B01C01A524143098B4201D34B01C01A18
S31520003680524103098B4201D30B01C01A5241C30890
S315200036908B4201D3CB00C01A524183088B4201D3FF
S315200036A08B00C01A524143088B4201D34B00C01AEB
S315200036B05241411A00D20146524110467047FFE757
S315200036C001B5002000F006F802BDC0460029F7D05B
S315200036D076E770477047C0468446101C62468C4683
S315200036E0191C634600E0C0461FB500F00FFF0028F6
S315200036F001D40021C8421FBD10B500F067FE40422C
S31520003700013010BD10B500F001FF002801DB0020BC
S3152000371010BD012010BDC04610B500F0F7FE0028F0
S3152000372001DD002010BD012010BDC04610B500F0FF
S3152000373089FE002801DC002010BD012010BDC046F6
S3152000374010B500F07FFE002801DA002010BD012010
S3152000375010BDC04670B500220C4B04000D00FFF7CB
S31520003760EFFF002804D12000290001F0F1FC70BDF4
S31520003770064B00222000290001F0A2F901F0E8FC06
S3152000378080231B069C466044F1E7C0460000E041CA
S31520003790F0B54F464646D6460C000903C0B5490A41
S315200037A0470F5E0039431F03DB0F9C4665007B0AEB
S315200037B0570F1F436D0DE40F760DA146C000B84686
S315200037C0D200AB1B64457BD0002B5FDD002E00D0E2
S315200037D0A4E03E00164300D112E15E1E002E00D06A
S315200037E09EE1871A4346B84280410125C91A4042C4
S315200037F0091A0B0200D431E149024E0A002E00D1EB
S315200038006EE1300001F00CFD0300083B1F2B00DDAC
S3152000381061E120223900D21A9E40D1409F400E43BA
S315200038209D4200DD51E15D1B6B1C1F2B00DD7CE101
S315200038302021C91A3D0030008F408840DD40791E86
S315200038408F41310007222843D940002507433A40BB
S31520003850002A09D00F233B40042B05D03B1DBB4239
S31520003860BF417F42C9191F000B0200D426E26A1C01
S31520003870C64B55056D0D9A4200D106E1C44AFF0894
S315200038800A40530752023B43120B8EE0002B00D016
S31520003890B8E06B1C5B055B0D012B00DC30E1871A61
S315200038A04346B842B641CB1A76429E1B330200D518
S315200038B04CE13B003343A1D100220024002570E0D7
S315200038C0002B00DCE5E0002E00D183E0AF4EB542B0
S315200038D060D0802636043743B846382B00DC3EE1DC
S315200038E0434613431F007A1E97413F188742804163
S315200038F0404209180B0200D4B0E0A44B01359D428A
S3152000390000D1C3E0A24A7B080A4001210F401F4391
S315200039105108D30707221F433A4099E79B4EB542E9
S3152000392038D0802636043743B846382B00DDDCE015
S315200039301F2B00DC30E11E004746203EF740BC46E8
S31520003940202B04D04026F31A46469E4032431700C9
S3152000395063467A1E97411F43CCE0002B00D104E238
S315200039604346134300D159E14B07C008184380232F
S31520003970C9081B03194208D04546ED081D4204D14B
S315200039804346D008590708432900420FC9007F4DF6
S315200039901143C0004B07CA087C49C00803438D4227
S315200039A068D012036D05120B6D0D0021120318004D
S315200039B0130B0A0D12051A43764B2D0513402B4384
S315200039C05B00E4075B08234319001CBC904699461C
S315200039D0A246F0BD3E00164312D05E1E002E00D039
S315200039E000E1871887428041414440420918012559
S315200039F00B0233D5022585E7644633004146100085
S31520003A001D00C7E7002D00D0DAE00C000443F3D0F8
S31520003A105C1C00D19FE15D4CA64200D12FE1DB4327
S31520003A20382B00DD66E11F2B00DD83E12024050015
S31520003A30E41A0F00DD40D940A0404346A7405B1A58
S31520003A40441EA04198462F433843171ABA42924142
S31520003A5043465242991A64463500CAE607223A403E
S31520003A60002A00D0F6E64B07CA084849FF083B4320
S31520003A708D4296D11900114300D19EE18021090380
S31520003A800A431203120B414D8FE715000022002333
S31520003A908BE7002B00D0C7E06B1C5F057F0D012F45
S31520003AA000DCF1E0394DAB4200D1B9E085180A00BF
S31520003AB0854289414244494251180722CF076D0861
S31520003AC02F4349083A401D00C2E607223049ED1A25
S31520003AD031403A40BCE63E002838864000279FE623
S31520003AE0380001F09DFB20308EE6434613431F002D
S31520003AF07A1E9741C71BB84280414042091A78E690
S31520003B000E003B0006431343002D61D1002E00D04A
S31520003B10F4E0002B00D11BE164463900100039E7A0
S31520003B201A4FBB427AD03300FFE630001F3DE840F3
S31520003B30202B03D04021CB1A9E4037437B1E9F412A
S31520003B40072207433A400021002589E7171A4346F2
S31520003B50BA42B641591A76428E1B64464EE61F2B50
S31520003B6000DDADE020264746F61AB740B9461700D5
S31520003B70B246DF404E463E4337005646B240561EBA
S31520003B80B24117434246DA408918AEE6FF070000E5
S31520003B90FFFF7FFFFFFF0F8020264746F61AB7401C
S31520003BA0B9461700B246DF404E463E4337005646DA
S31520003BB0B240561EB24117434246DA40891A99E767
S31520003BC07F4CA6425BD0802424045B42214327E716
S31520003BD0002E0CD1002B00D1CBE06446390010001A
S31520003BE0774DD7E6764FBB4218D0330075E6002BCB
S31520003BF014D04B07C00818438023C9081B03194259
S31520003C0007D0FC081C4204D17907D0080843E146B6
S31520003C1021004C46420FC9001143C000684DB9E649
S31520003C201D0000220023C0E6002D5BD10D000543B8
S31520003C3000D1E2E65D1C00D1B0E0614DAE421FD05E
S31520003C40DB43382B71DC1F2B00DD96E020250F008F
S31520003C50ED1AAF40B9460700AA46DF404D463D4320
S31520003C602F005546A840D940451EA8418844074301
S31520003C70BF18974292415142414435003AE6644684
S31520003C8035004146100085E60B000343002D00D089
S31520003C9063E6002BF5D04346134300D17AE6871816
S31520003CA08742804107224144404209183A400B028C
S31520003CB000D4D5E6434B01351940C9E5380069E6FD
S31520003CC01E004746203EF740BC46202B04D0402607
S31520003CD0F31A46469E403243170063467A1E9741A2
S31520003CE01F4302E6364DAE42CAD080252D045B42E4
S31520003CF02943A6E70843411E8841A6E6002B00D1AA
S31520003D0048E6871A4346B842B641CB1A76429E1BEE
S31520003D1033024BD5171A4346BA429241591A524298
S31520003D20891A072264463A4092E501430F00791E1C
S31520003D308F419DE71C000F00203CE740202B03D03D
S31520003D404024E31A99400843411E884138437CE6C3
S31520003D500022002425E6171A4346BA429241591AF0
S31520003D605242891A6446350043E541461000144DF7
S31520003D7010E680220024120380E61D000F00203D5D
S31520003D80EF40BC46202B03D04025EB1A9940084330
S31520003D9007006346781E87411F4369E787189742C5
S31520003DA09B4141445B42C9183500A3E53B003343A0
S31520003DB0CED0072231003A4052E600231A00F4E51D
S31520003DC0FF070000FFFF7FFFF0B55746DE464E4651
S31520003DD04546E0B5834607000E03480085B0924667
S31520003DE01C00360B400DCD0F002800D19DE0954BD1
S31520003DF0984239D08023F6001B041E43924A7B0F3B
S31520003E0033439946944603006344009300230026D7
S31520003E10FF00029323031B0B98466300E40F5246D0
S31520003E205B0D019400D1B3E086498B4200D19EE020
S31520003E304246D100802212040A435146490F1143BB
S31520003E408B46814952468C4600996344CB1A002101
S31520003E50D20000932B0063409A460F2E00D905E12D
S31520003E607A4BB6009B599F465B463343994600D012
S31520003E70B8E002230826002700900293CAE7CB4623
S31520003E803A0002990195019B9A46022927D00329D7
S31520003E9000D180E2012944D06D49009B8C466344C1
S31520003EA01C00002C38DD530700D013E2D2085B46F5
S31520003EB0DB0109D55946674B19408B468021C9003D
S31520003EC08C46009B63441C00634B9C4207DC5B468C
S31520003ED064055F075B0217431B0B620D02E000239C
S31520003EE00027584A00211B031C0B0B0D1B052343DF
S31520003EF014055A4A380013401C4353466400DB0716
S31520003F0064081C43210005B03CBC90469946A24655
S31520003F10AB46F0BD0122524201231B1B382B00DC8D
S31520003F20ADE1002200230027DCE75B4633439946B8
S31520003F305ED0002E00D18AE1300001F071F9030035
S31520003F400B3B1C2B00DD7BE11D22D31A5A460100B8
S31520003F50DA4008398E4013005F46334399468F4036
S31520003F603F4B00261B1A00930023029352E741463B
S31520003F7053460B433B499B468C46009B6344009328
S31520003F805B46002B3BD1022300221E43022161E720
S31520003F90434613439B4637D04346002B00D162E16C
S31520003FA0404601F03DF903000B3B1C2B00DD53E19D
S31520003FB002004146083A914088461D21CB1A5146B7
S31520003FC0D9400B0041460B439B46534693401A006B
S31520003FD0009B25499C46604403008C46634400931D
S31520003FE0002137E70323B14600900C26029311E700
S31520003FF00023009301330426002702930AE70323B4
S31520004000C3461E43032125E701331E430022012117
S3152000401020E700239A46802300271B03094A61E7ED
S31520004020802349461B03194200D1E2E05946194232
S3152000403000D0DEE00B431B0317001B0BA246014AF0
S3152000404050E7C046FF07000001FCFFFF1C5400207C
S31520004050FF030000FFFFFFFEFE070000FFFF0F80AB
S315200040600DFCFFFF01F8FFFFF3030000D94500D93F
S31520004070CBE000D1C6E03C0048460027009B013B30
S3152000408000935B46160E1B021E431302984633040A
S315200040901B0C9946310C0191FFF718FB4A46424307
S315200040A00B04210C050019438A4207D98919013DC1
S315200040B08E4203D88A4201D9851E8919881A019908
S315200040C0FFF704FB09048C464A4621046446424312
S315200040D0090C030021438A4204D98919013B8E42E7
S315200040E000D8F1E02D041D43AB464346891A4246CB
S315200040F0280C12041D0C5B46140C22001B041B0CFE
S315200041005A4303946B434443029568431B19150C89
S31520004110EB189C4203D980246402A44660441C0CFC
S3152000412015041B042D0C20185D19814277D373D0FA
S315200041300C1AA24A7D1BAF42BF419446009B7F4288
S315200041406344E01B1C00864200D1DBE00199FFF7A7
S31520004150BDFA4A4642430B04290C070019438A42FA
S3152000416007D98919013F8E4203D88A4201D9871E71
S315200041708919881A0199FFF7A9FA09044A46894636
S3152000418029044D464243090C030029438A4207D994
S315200041908919013B8E4203D88A4201D9831E891987
S315200041A03F04891A3A00039F1A43380013041B0C54
S315200041B0584381460298150C6F434343454348466E
S315200041C0000C8446DB1963449F4203D980204002B9
S315200041D08446654448461F0C00041B04000C7D19C8
S315200041E01818A94200D284E000D17FE001231A43A7
S315200041F057E680234A461B0313431B031B0BAA4681
S315200042006F4A6FE6BA4200D935E74B46DC075808B5
S315200042107B081C43FF0734E70024AF4289D247447A
S315200042204745A4415B466442A4196418013BA64253
S315200042301ED2A0426DD800D1B6E0241A9B4678E75C
S3152000424003005A46283B9A400027914688E658465E
S3152000425000F0E6FF203072E603005246283B9A40E3
S3152000426093460022B4E6504600F0DAFF20309AE664
S31520004270A642E2D1B845DCD9341A9B4659E71F2B12
S3152000428065DC504C0099A4465C46614408008C408D
S3152000429011008240D940501E82410C4314435A4695
S315200042A0DA401300620709D00F222240042A05D0E3
S315200042B02200141D9442894149425B181A0262D594
S315200042C00122002300270DE68A4200D80AE7831E32
S315200042D0891907E70F231340042B00D1E6E5171DA4
S315200042E09742924153429B44FA08E0E5002800D1C8
S315200042F0D7E57118531EB14227D3A94215D358D0FA
S315200043001A0073E7002B00DC04E6012300229B44FD
S31520004310CDE502234744474589415B429C464942B5
S3152000432089190C19E344241A03E743465F004745DD
S315200043309B41B8465B429E19023A8919A94200D090
S3152000434054E7404500D051E7ABE51A00F6E71F21B8
S315200043505F4649420C1BE740202B07D01A49009B99
S315200043608C46634418005B4683401A43501E8241A4
S315200043703A4307270023174009D00F210023114075
S315200043801400042995D122005F075B021B0BD2087B
S3152000439017430022A6E5802359461B030B431B0324
S315200043A017001B0B064A9DE5BD42B2D89B4600244A
S315200043B0BFE68045B9D31A00C3E7C046FF03000015
S315200043C0FF0700001E0400003E040000F0B54F4623
S315200043D04646D6468446C0B58046194E18030F0376
S315200043E04D00000B5C0082463F0B6D0DC90F9146B8
S315200043F0640DDB0F0120B5420AD0B44203D0A5429A
S3152000440001D157450CD01CBC90469946A246F0BD1A
S3152000441066463E43F7D1AC42F5D154461443F2D119
S315200044200120C845EFD1994207D0002DEBD1634634
S315200044301F433800471EB841E5E70020E3E7C046A2
S31520004440FF070000F0B54F464646D6464D00C0B59C
S315200044500E03C90F8A462C491F035C008046360B83
S315200044606D0D91463F0B640DDB0F8D421ED08C42A5
S3152000447016D0002D1ED130438446002C01D13A435C
S3152000448023D06246002A1AD09A4529D051460220C6
S315200044900139084001381CBC90469946A246F0BD19
S315200044A039001143E5D002204042F4E73043FAD1E7
S315200044B0AC420FD0002C0FD13A43E7D00CE00122BA
S315200044C0013B934318000130E5E763460020002BAB
S315200044D0E1D0DBE73A43E6D19A45D7D1A542D5DCF0
S315200044E0A54205DBBE42D1D808D00020BE42D2D29A
S315200044F050460123013898430130CCE7C845C5D83A
S315200045000020C845F4D3C6E7FF070000F0B54F46A4
S315200045104646D6464D00C0B50E03C90F8A462E49DB
S315200045201F035C008046360B6D0D91463F0B640DD4
S31520004530DB0F8D4218D08C4211D0002D18D130437C
S315200045408446002C1ED13A431CD163460020002B02
S3152000455030D0514602200139084001382AE039007E
S315200045601143EAD0022025E03043FBD1AC4226D0CD
S31520004570002C26D13A4324D1514602200139084045
S31520004580013817E06246002A0FD09A45E1D1A542AC
S3152000459005DBBE42DDD819D00020BE420AD25046E5
S315200045A0012301389843013004E00122013B934363
S315200045B0180001301CBC90469946A246F0BD3A43ED
S315200045C0D0D19A45C5D1A542C3DCE0E7C845C0D8BD
S315200045D00020C845E3D3EDE7FF070000F0B55746B6
S315200045E0DE464E464546E0B5834606000F034800A4
S315200045F087B092461D003F0B400DCC0F002800D1FE
S315200046006FE0DE4B984238D08023FF001B041F4307
S31520004610730F3B430193DA4B0027994600239B46B1
S31520004620F60081442B0369001B0B52469846490D20
S31520004630ED0F002900D185E0D04B994200D173E0DF
S315200046404346DA0080231B0413435246CC48520FBC
S3152000465084461343524600206144D20089442100F7
S31520004660694000918C46012149448A460F2F00D982
S3152000467090E0C449BF00CF59BF465B463B430193F8
S3152000468000D06AE102230827002681469B46C9E717
S3152000469032005846019B61460091022800D175E000
S315200046A0032800D1FEE1012800D02CE100230027B9
S315200046B0002600253F032A0D3F0BB34812053A4337
S315200046C002401B051343009A5B00D1075B080B438E
S315200046D03000190007B03CBC90469946A246AB462E
S315200046E0F0BD5B463B43019300D12FE1002F00D163
S315200046F0A5E1380000F094FD03000B3B1C2B00DDE8
S3152000470096E11D22D31A5A460100DA405E46083940
S315200047108F4013008E403B4301939C4B00271B1A6E
S31520004720994600239B467DE7414653460B439349D2
S315200047308C46E144002B00D01AE1022202201743C6
S3152000474000228CE7134300D10DE14346002B00D114
S3152000475081E1404600F064FD02000B3A1C2A00DD90
S3152000476072E10100434608398B4098461D239A1A68
S315200047705346D3401A004346134352468A4049467D
S31520004780081A824989468144002068E77B4B002726
S3152000479000268EE7140C1204120C1100370C360476
S315200047A0350C794328008C462E00604360448346AE
S315200047B056432100300C80465846794340440291A6
S315200047C0844506D98846802149028C46E0444146E4
S315200047D002913604010C360C00048B4681191E0CFE
S315200047E01B041B0C0391190079438C462800754342
S315200047F06544A8465843050C45447743A94203D946
S31520004800802149028C466744290C8C4639000004D5
S31520004810000C2D042D186144AB4405915946049192
S3152000482001990F043F0C080C39005143424390462E
S3152000483002008C46090C8B4662437C4344445C440C
S31520004840A04503D98021490288464244210C884646
S3152000485061460904090C8C46390059434343704389
S315200048607E430F0CF6182404BE19644442448C4639
S31520004870B34203D980235B0298464044029B61469B
S315200048809846049B370443449B46AB45AD416B4257
S315200048900D0405992D0C8C467F196744FD18A846F2
S315200048A05D462D19A542A44193466442A446C344BD
S315200048B0DC448F42BF4198459B4193459241A44594
S315200048C0A4415B427F421F43360C52426442BF19C9
S315200048D02243BF18624638184302D20D0399134368
S315200048E06A020A43501E82416146ED0D2A434E025A
S315200048F03243D90100D4B3E00126500832400243A6
S31520004900DE0732435B08224C5444002C62DD5107FB
S3152000491009D00F201040042805D0101D9042924146
S3152000492052429B180200D90104D580241948E4007C
S31520004930034054441848844200DD27E75E075B02A3
S31520004940D2081F0B630516435B0DB2E6002399467A
S315200049500133042700269B4664E6032301978146FC
S315200049600C279B465EE6012201201743002276E6AD
S31520004970032303201F43434671E6C046FF0700007A
S3152000498001FCFFFF5C540020FFFF0F800DFCFFFFA2
S31520004990FF030000FFFFFFFEFE0700000023802725
S315200049A000933F030026434B83E6019B3200A44637
S315200049B0584670E6AC466EE6802701993F03394299
S315200049C02DD03B422BD11F433F033F0B00951600B2
S315200049D0384B6EE601252D1B382D00DD66E61F2D92
S315200049E040DC35481C005044160082408440EE408E
S315200049F0501E824134431443EB40620709D00F22F4
S31520004A002240042A05D02200141D944280414042AF
S31520004A101B181A023ED501230027002649E68027C7
S31520004A20019B3F031F433F033F0B0094214B40E66E
S31520004A3003005A46283B9A40002601926DE65846C6
S31520004A4000F0EEFB203057E603005246283B9A4002
S31520004A501300002293E6504600F0E2FB20307BE66E
S31520004A60CA4650E71F201E004042041BE640202D68
S31520004A7003D0124C5444A3401A43501E8241324361
S31520004A8007260027164009D00F20002310401400C7
S31520004A900428B9D122005E075B021F0BD2081643F9
S31520004AA0002306E680273F031F433F033F0B1600E4
S31520004AB0004BFEE5FF0700001E0400003E04000038
S31520004AC0F8B557464E464546DE460C000903E0B586
S31520004AD0490A460F5F0031431E03DB0F760A9B46C9
S31520004AE0530F3343C84E6500C000E40FD2006D0D4E
S31520004AF0A24681467F0D9C469046B74200D1B9E03A
S31520004B005B46012673409B46EE1BA34500D183E0FE
S31520004B10002E63DD002F00D0B1E06346134300D1A1
S31520004B2023E1731E002B00D0BAE1861A6346B042F9
S31520004B3080410125C91A4042091A0B0200D447E1D7
S31520004B4049024B0A98464346002B00D189E140464C
S31520004B5000F066FB0300083B1F2B00DD7CE12022D2
S31520004B603000D21A4146D040994002009E400A4366
S31520004B709D4200DD6AE15D1B6B1C1F2B00DD94E16D
S31520004B80202110003500C91A8E40DA408840DD40C9
S31520004B90711E8E411100072228430025064332400C
S31520004BA0002A09D00F233340042B05D0331DB342EE
S31520004BB0B641764289191E000B0200D43DE26A1CDA
S31520004BC0914B55056D0D9A4200D119E18F4AF60891
S31520004BD00A40570752023743120B9BE0002E00D0A3
S31520004BE0C5E06E1C7605760D012E00DC48E1674691
S31520004BF0861ACB1BB042BF417F42B8461F004346B0
S31520004C00FF1A3B00B8461B0200D55FE137439AD115
S31520004C1000220024002579E0002E00DCFAE0002F97
S31520004C2000D18DE0784B9D4267D0802367461B04D8
S31520004C301F43BC46382E00DC52E1634613435A1EFE
S31520004C4093411E1886428041404209180B0200D427
S31520004C50BEE06D4B01359D4200D1D2E06B4A730810
S31520004C600A4001210E401E435108D30707221E4346
S31520004C70324095E71E00164300D045E740E7624BD9
S31520004C809D423AD0802367461B041F43BC46382EDC
S31520004C9000DDEBE01F2E00DC3AE133006746203BC7
S31520004CA0DF403B00202E05D04027BF1B6646BE4076
S31520004CB0324390464646721E96413343DAE0002B35
S31520004CC000D114E26346134300D168E180234E07E6
S31520004CD0C008C9081B030643194208D06046C0080D
S31520004CE0184204D163460100D2085E071643F3003A
S31520004CF09946C900720F444D11434B46DE08424B7C
S31520004D004F073743CA089D4200D16EE012036D0556
S31520004D10120B6D0D00211203130B0A0D12051A43F7
S31520004D203B4B2D0513402B435B00E4075B082343D5
S31520004D30380019003CBC90469946A246AB46F8BDC1
S31520004D406346134311D0731E002B00D007E186184B
S31520004D508642804161444042091801250B0237D51D
S31520004D6002257BE73E00614691463500C5E75C4655
S31520004D70002D00D0E1E00B000343F3D0731C00D1DB
S31520004D80ACE1214B9F4200D13AE1F343382B00DDC1
S31520004D906FE11F2B00DD8CE120250E00ED1AAE40C1
S31520004DA0B0460600AA46DE40454635432E00554607
S31520004DB0D940A8406346451EA8415B1A9C4630430D
S31520004DC0161AB242924163465242991A3D00B4E6FF
S31520004DD007223240002A00D0E4E60B4BF6084F07A4
S31520004DE03743CA089D4200D090E73B00134300D1C9
S31520004DF0A6E180231B031A431203120B024D89E7F7
S31520004E0015000022002785E7FF070000FFFF7FFF30
S31520004E10FFFF0F80002E00D0C7E06B1C5E05760DCD
S31520004E20012E00DCF0E0C84DAB4200D1B9E0851878
S31520004E300A00854289416244494251180722CE0719
S31520004E406D082E43490832401D00A9E6BF49ED1AD8
S31520004E50114007223240A3E632002838824000263D
S31520004E6086E6300000F0DCF9203073E66346134313
S31520004E705A1E9341C61AB04280414042091A5CE646
S31520004E800E00674606431743002D5ED1002E00D044
S31520004E90F3E0002F00D11EE15C46614691462CE7E7
S31520004EA0A94FBE427BD01E00F1E610001F3DE84010
S31520004EB0202B03D04021CB1A9A401643731E9E41C5
S31520004EC00722064332400021002583E7161A63464F
S31520004ED0B2428041591A40420B1A98465C4632E645
S31520004EE01F2E00DDABE02027BB1B9A4663465746A4
S31520004EF0BB40994613004F46F3401F433B0057469D
S31520004F00BA40571EBA4113436246F240891898E6C2
S31520004F102027BB1B9A4663465746BB40994613003B
S31520004F204F46F3401F433B005746BA40571EBA41EF
S31520004F3013436246F240891A9CE7834B9F425FD017
S31520004F4080252D047342294320E7002E0CD1002F03
S31520004F5000D1D0E05C46614691467B4DCDE67A4F46
S31520004F60BE421CD01E0065E6002F18D0C0084E0792
S31520004F7006438020C9080003014208D06346DC08A6
S31520004F80044204D12100DA46D2085E071643F30014
S31520004F90994601245346C900720F11431C406A4D9D
S31520004FA0ABE61D0000220027B4E6002D59D10B00E8
S31520004FB0034300D1D6E6731C00D1B2E0624B9F4278
S31520004FC01ED0F343382B6FDC1F2B00DD97E0202506
S31520004FD00E00ED1AAE40B0460600AA46DE40454613
S31520004FE035432E005546A840D940451EA8418C443D
S31520004FF00643B61896429241514261443D0025E649
S315200050003D006146914678E60B000343002D00D013
S3152000501055E6002BF5D06346134300D16DE686187E
S315200050208642804161444042091800220B0200D486
S31520005030D0E6464B01351940B2E5B1465DE6330070
S315200050406746203BDF403B00202E05D04027BF1B74
S315200050506646BE40324390464646721E96413343CC
S31520005060EFE5394B9F42CBD080252D04734229434F
S31520005070A8E70843411E8841A2E6002F00D13CE65E
S315200050806346861ACF1AB0429B415B42FB1A98466A
S315200050901B024ED5161A6346B2429241591A524203
S315200050A0891A5C4600227BE501430E00711E8E4163
S315200050B09FE71D000E00203DEE40B046202B04D079
S315200050C04025EB1A99400843814648464346411EEF
S315200050D08841184374E60022002417E6161A634610
S315200050E0B2429241591A5242891A3D0025E561463B
S315200050F09146154D01E680220024120379E61D0013
S315200051000E00203DEE40B046202B04D04025EB1A61
S315200051109940084381464E464346711E8E411E43A2
S3152000512067E7861896429B4161445B42C9183D0059
S315200051308CE547463743CED007224146324049E6E2
S3152000514000273A00E6E5C046FF070000FFFF7FFF85
S3152000515030B5144D0A034B00120B5B0DC90F00240A
S31520005160AB4211DD104CA34210DC802464032243A1
S315200051700E4CE41A1F2C0CDD0D48C31ADA4013001E
S315200051805C42002900D11C00200030BD094BCC1800
S31520005190FAE7094DE040AC4663449A4013000343C6
S315200051A0EEE7C046FE0300001D04000033040000A5
S315200051B013040000FFFFFF7FEDFBFFFF10B5041E69
S315200051C025D000F02DF8144B1B1A5B055B0D0A2821
S315200051D012DD0B38844000222403240B002110000A
S315200051E024030A0D240B120522430C4C1B052240D6
S315200051F013435B00590810BD02002100153291406F
S315200052000A000B21081AC4402403240BE6E70023D6
S3152000521000240022E2E7C0461E040000FFFF0F80A4
S315200052201C2101231B04984201D3000C10391B0AB0
S31520005230984201D3000A08391B09984201D3000974
S31520005240043902A2105C40187047C04604030202CB
S315200052500101010100000000000000000000000024
S315200052600000000000000000000000000000000018
S315200052700000000000000000000000000000000008
S3152000528000000000000000000000000000000000F8
S3152000529000000000000000000000000000000000E8
S315200052A00000000000000000007A030A0000000051
S315200052B0000000000000F03F00000000010203048F
S315200052C001020304060708094E6577206C696D699B
S315200052D074207365743A20000000000050696E67E0
S315200052E0206D6573736167652061636B656400007B
S315200052F04D6573736167652066726F6D20636F6E8F
S3152000530074726F6C6C2063656E7465723A2000004F
S31520005310566962726174696F6E7373656E736F72AC
S315200053206C61726D204F4B210000000052C3B67293
S31520005330656C73656C61726D204F4B210000000017
S3152000534041434B00556C7472616C6A7564736DC30E
S31520005350A4746172656E206B616C6962726572619C
S31520005360642100004C696D697420757070646174E5
S315200053706572616400000000696E67656E20696E63
S31520005380707574002A2A2A4572726F723A20536FFA
S315200053906D657468696E672077656E742077726FA5
S315200053A06E67203A280000001A05002056050020C6
S315200053B060050020700500209005002063616C695F
S315200053C062726174656464646464000043414E20C3
S315200053D0233120496E6974206661696C65642100F9
S315200053E043414E20233120496E69742073756363CF
S315200053F065737366756C210043414E20547842755F
S31520005400662066756C6C210A0D00000043414E2013
S315200054105478206661696C210A0D00006C400020DA
S31520005420DE3E0020223F0020863E0020223F002034
S3152000543012400020223F0020863E0020DE3E002033
S31520005440DE3E002012400020863E00207E3E0020C8
S315200054507E3E00207E3E00202040002094470020F3
S315200054609646002096460020B4490020904600200B
S31520005470904600209C490020B449002090460020F8
S315200054809C49002090460020B4490020AA490020CB
S31120005490AA490020AA490020B8490020A3
S70520000000DA
