S01100002E2F44656275672F70322E733139CE
S315200000000248854600F06CFBFEE7C04600C0012092
S3152000001080B582B000AF02003960FB1D1A70FB1D4F
S315200000201B787F2B0DD93B68DAB20F49FB1D1B7855
S3152000003018000F230340043B1201D2B2CB181A76C4
S315200000400DE03B68DBB20949FA1D127852B21B015A
S31520000050D8B2C0239B008A18D318021C1A70C04637
S31520000060BD4602B080BDC04600ED00E000E100E0E4
S3152000007080B582B000AF78607B68013B0C4A934222
S3152000008001D9012310E00B4B7A68013A5A6001230B
S315200000905B420F211800FFF7BBFF064B00229A6038
S315200000A0044B07221A6000231800BD4602B080BD0B
S315200000B0FFFFFF0010E000E080B500AF034B0122F8
S315200000C05A6000F011F8C046BD4680BD903D002024
S315200000D080B500AF034B01225A6000F00DF8C046F0
S315200000E0BD4680BD843D002080B500AF012000F0D4
S315200000F00BF8C046BD4680BD80B500AF042000F099
S3152000010003F8C046BD4680BD80B582B000AF78609A
S315200001107B68180003F0F4F9031E03D07B681800EF
S3152000012003F00EFAC046BD4602B080BD80B582B04F
S3152000013000AF78607A68054B1A60C046034B1B688F
S31520000140002BFBD1C046BD4602B080BD7C3D0020C1
S3152000015080B500AF064B1B685A1C054B1A60054B31
S315200001601B685A1E034B1A60C046BD4680BDC0465A
S31520000170783D00207C3D002090B587B000AF7860A8
S31520000180082439197B680A22180003F0B1FD094BAF
S315200001907A681A60084B180003F0E2F83B19180039
S315200001A003F0F2F8054B180003F0EEF8C046BD4602
S315200001B007B090BDC43D0020DC3D0020EC3D002072
S315200001C080B500AF074B0221180001F09CFD0A20E4
S315200001D0FFF7ACFF034B0221180001F0A3FDC04638
S315200001E0BD4680BD000C024090B585B000AF78605A
S315200001F0786803F015FD084A084B03F069FA0300F6
S315200002000C001800210003F0D5FC0300FB60FB68FE
S315200002101800BD4605B090BD9CC420B07268A13FB1
S3152000022090B589B000AF7860FFF7CAFFC0461D4B76
S315200002300421180001F00FFD031EF8D01A4B0022EE
S315200002401A60C046174B0421180001F004FD031E56
S31520000250F8D1154B1B68002B00DA01335B10FB61CC
S31520000260FB691800FFF7C0FF04007B681800FFF742
S31520000270BBFF0300E31ADA179B185340BB610B4BF5
S315200002801B681A00BB69934206D3BB69084A93428E
S3152000029002D8042003F024F9FB691800BD4609B0F2
S315200002A090BDC046000C0240783D0020C43D002091
S315200002B0E703000080B584B000AF3B0000221A702F
S315200002C03B0000225A703B0001229A703B0001221B
S315200002D0DA703B0008221A713B00180002F024FE57
S315200002E0C046BD4604B080BD80B582B000AF3B009D
S315200002F001221A603B0000221A713B0000229A71EB
S315200003003B0003225A713B000122DA713B00044A6A
S315200003101900100001F0D6FBC046BD4602B080BDD4
S31520000320000C024080B582B000AF3B0002221A606A
S315200003303B0001221A713B0000229A713B000322E6
S315200003405A713B000122DA713B000F4A1900100056
S3152000035001F0B8FB3B0004221A603B0000221A7110
S315200003603B0000229A713B0003225A713B00012276
S31520000370DA713B00044A1900100001F0A3FBC046C5
S31520000380BD4602B080BDC046000C024080B584B098
S3152000039000AFFFF7A9FF0021032002F00DFC082182
S315200003A07B1801221A607B1800221A717B180C22F6
S315200003B05A717B1801229A717B18180003F00CF8E9
S315200003C00F4B104A1A603B1D06221A703B1D0F2246
S315200003D05A703B1D0F229A703B1D0122DA703B1D7D
S315200003E0180002F0A5FE084B01221A60064B0022D7
S315200003F05A60054B00229A60C046BD4604B080BDB7
S3152000040058C00120B9000020903D002080B584B05E
S3152000041000AFFFF787FF08217B1804221A607B189C
S3152000042000221A717B180C225A717B1801229A71AC
S315200004307B18180002F0D0FF0F4B104A1A603B1DA4
S3152000044008221A703B1D0F225A703B1D0F229A70EC
S315200004503B1D0122DA703B1D180002F069FE084B95
S3152000046002221A60064B00225A60054B00229A602F
S31520000470C046BD4604B080BD60C00120D10000202A
S31520000480843D002080B500AF074B1B680749180044
S3152000049003F092F803001800FFF7EAFD044B054A23
S315200004A01A60C046BD4680BDC83D002040420F00B0
S315200004B03CC001205101002080B582B000AF02006F
S315200004C0FB1D1A70FB1D1B78012B0AD10F4B002236
S315200004D05A600E4B00229A600D4B180002F054FF12
S315200004E010E0FB1D1B78022B0CD10A4B00225A6010
S315200004F0084B00229A60084B01221A60074B18000D
S3152000050002F042FFC046BD4602B080BD903D0020AD
S31520000510F03D0020843D0020803D0020083E002044
S3152000052080B500AFC046BD4680BD80B500AF034B49
S3152000053001221A60C046BD4680BDC046803D0020CF
S3152000054080B582B000AF0200FB1D1A70FB1D1B7820
S315200005501800FFF711FE034B01221A60C046BD4664
S3152000056002B080BD803D002080B500AFFFF7A2FE1F
S31520000570C046BD4680BD80B584B000AF3B001800A4
S3152000058002F05AFD031E23D03B009B78042B19D87A
S315200005909A00134BD3181B689F463B001B7B180001
S315200005A0FFF78AFF18E0FFF7BBFF15E0FFF7BDFF57
S315200005B012E03B001B7B1800FFF7C2FF0CE0FFF7A1
S315200005C0D3FF09E0074B180002F0DEFEC04603E029
S315200005D0054B180002F0D8FEC046BD4604B080BDCB
S315200005E0643E0020203E0020403E002080B500AF23
S315200005F0FFF7E6FDC0460D4B0421180001F02BFB4A
S31520000600031EF8D00A4B00221A60C046074B04216D
S31520000610180001F020FB031EF8D1054B1B68002BA8
S3152000062000DA01335B101800BD4680BD000C024085
S31520000630783D002080B500AF064B180002F08AFBFB
S31520000640FFF7A4FEFFF7E2FEFFF71CFFC046BD46FC
S3152000065080BDC0467705002080B584B000AF3B0042
S3152000066000221A703B0000225A703B0000229A702A
S315200006703B000122DA70084B1B68DAB23B001A7382
S315200006803B0008221A713B00180002F04DFC0300C3
S315200006901800BD4604B080BD903D002080B584B0D2
S315200006A000AF3B0000221A703B0000225A703B002C
S315200006B000229A703B000122DA70084B1B68DAB2DE
S315200006C03B001A733B0008221A713B00180002F007
S315200006D02BFC03001800BD4604B080BD843D0020DD
S315200006E080B582B000AFFFF7A5FFFFF77FFF0300BD
S315200006F07B601E4B5B68002B08D01C4B9B68002B35
S3152000070004D1FFF7A9FF194B01229A60184B5B68A9
S31520000710002B0AD1174B1B68002B06D17B681800CB
S31520000720FFF77EFD03007B600CE0114B5B68002B1E
S3152000073008D00F4B9B68002B04D1FFF7AFFF0200B8
S315200007400B4B9A600B4B1B68002B0AD0FFF74EFF12
S3152000075003007B60074B00221A60074B180002F04B
S3152000076013FE064B1800FFF7E1FCC2E7903D002080
S31520000770843D0020803D0020783E002090D003005C
S3152000078080B582B000AF78607B68104A93420CD166
S3152000079080239B040121180002F034F880239B0457
S315200007A00021180002F02EF80BE08023DB04012143
S315200007B0180002F027F88023DB040021180002F03D
S315200007C021F8C046BD4602B080BDC0460064004048
S315200007D080B584B000AF786039600F23FB18002203
S315200007E01A700023BB607B681B68022293431A00A1
S315200007F07B681A607B681B6801221A437B681A6033
S3152000080002E0BB680133BB607B685B680122134052
S31520000810012B03D0BB685E4A9342F2D17B685B68AA
S3152000082001221340012B04D00F23FB1800221A703B
S31520000830A6E03B689B79012B06D17B681B6880224A
S315200008401A437B681A6006E07B681B688022934304
S315200008501A007B681A603B68DB79012B06D17B681E
S315200008601B6840221A437B681A6006E07B681B6877
S31520000870402293431A007B681A603B681B7A012B3F
S3152000088006D17B681B6820221A437B681A6006E023
S315200008907B681B68202293431A007B681A603B689A
S315200008A05B7A012B06D17B681B6810221A437B6872
S315200008B01A6006E07B681B68102293431A007B6847
S315200008C01A603B689B7A012B06D17B681B6808223D
S315200008D01A437B681A6006E07B681B6808229343EC
S315200008E01A007B681A603B68DB7A012B06D17B688D
S315200008F01B6804221A437B681A6006E07B681B6823
S31520000900042293431A007B681A603B689B789A07F7
S315200009103B68DB781B061A433B681B791B041A438A
S315200009203B685B791B051A433B681B88013B1A43CE
S315200009307B68DA617B681B68012293431A007B6817
S315200009401A600023BB6002E0BB680133BB607B6892
S315200009505B6801221340012B03D1BB680C4A9342EA
S31520000960F2D17B685B6801221340012B04D10F234F
S31520000970FB1800221A7003E00F23FB1801221A70BD
S315200009800F23FB181B781800BD4604B080BDC04657
S31520000990FFFF000090B585B000AF78600023FB60B4
S315200009A07B689B7A1A0001239340FB60644A80236C
S315200009B09B00D358624901221A4380239B00CA50C8
S315200009C05F4A87239B00D358FA68D2435C491A4072
S315200009D087239B00CA507B681B7B002B2CD1584A4F
S315200009E083239B00D358FA68D24355491A40832360
S315200009F09B00CA507B68DB881B047A6852881400E7
S31520000A004F497A68927A100023431A00030048332C
S31520000A10DB005A507B689B881B047A681288140076
S31520000A2047497A68927A100023431A000300483314
S31520000A30DB00CB1804331A607B681B7B012B2BD180
S31520000A403F4A83239B00D2583D49FB681A438323A0
S31520000A509B00CA507B681B881B047A685288140046
S31520000A6037497A68927A100023431A0003004833E4
S31520000A70DB005A507B689B881B047A68D288140056
S31520000A802F497A68927A100023431A0003004833CC
S31520000A90DB00CB1804331A607B68DB7A002B0BD182
S31520000AA0274A81239B00D358FA68D24324491A4007
S31520000AB081239B00CA5009E0214A81239B00D258FA
S31520000AC01F49FB681A4381239B00CA507B681B89F8
S31520000AD0002B0AD11A4A85239B00D358FA68D243A1
S31520000AE017491A4085239B00CA507B681B89012B16
S31520000AF009D1134A85239B00D2581149FB681A4312
S31520000B0085239B00CA507B685B7B012B09D10C4A4D
S31520000B1087239B00D2580A49FB681A4387239B00E8
S31520000B20CA50074A80239B00D35805490122934384
S31520000B301A0080239B00CA50C046BD4605B090BD12
S31520000B400064004080B582B000AF78607B680022E8
S31520000B509A717B680022DA717B6800221A727B68A0
S31520000B6000225A727B6800229A727B680022DA720F
S31520000B707B6800229A707B680022DA707B680322E9
S31520000B801A717B6802225A717B6801221A80C0463C
S31520000B90BD4602B080BD80B582B000AF0200FB1D0D
S31520000BA01A70174A80239B00D358154901221A43ED
S31520000BB080239B00CA50124A80239B00D358104999
S31520000BC0104A1A4080239B00CA500D4A80239B005E
S31520000BD0D258FB1D1B781B0209491A4380239B0010
S31520000BE0CA50074A80239B00D358054901229343C4
S31520000BF01A0080239B00CA50C046BD4602B080BD65
S31520000C0000640040F1C0FFFF80B582B000AF78607D
S31520000C100A00FB1C1A70FB1C1B78002B07D07B6874
S31520000C201B68802252021A437B681A6005E07B68A3
S31520000C301B68044A1A407B681A60C046BD4602B04B
S31520000C4080BDC046FFFFFEFF80B582B000AF786052
S31520000C500A00FB1C1A70FB1C1B78002B2AD07B6811
S31520000C601B6880221A437B681A607A68C2235B005D
S31520000C70D358802252001A4311007A68C2235B009F
S31520000C80D1507A68CA235B00D358802252001A4377
S31520000C9011007A68CA235B00D1507A68D2235B00A0
S31520000CA0D358802252001A4311007A68D2235B005F
S31520000CB0D15027E07B681B68802293431A007B680B
S31520000CC01A607A68C2235B00D358104A1340190071
S31520000CD07A68C2235B00D1507A68CA235B00D35856
S31520000CE00A4A134019007A68CA235B00D1507A68F1
S31520000CF0D2235B00D358054A134019007A68D223C1
S31520000D005B00D150C046BD4602B080BDFFFEFFFF4E
S31520000D1090B585B000AF786039600F23FB180022AC
S31520000D201A707B689A688023DB041A408023DB04D0
S31520000D309A4204D10F23FB1800221A701FE07B6809
S31520000D409A6880231B051A4080231B059A4204D1EA
S31520000D500F23FB1801221A7011E07B689A68802302
S31520000D605B051A4080235B059A4204D10F23FB18AA
S31520000D7002221A7003E00F23FB1804221A700F2395
S31520000D80FB181B78042B00D1ACE00F217B181A78B6
S31520000D907B6818321201D3587A181278012119402B
S31520000DA07B6818321201D1503B681B7A002B14D174
S31520000DB00F203B181A787B6818321201D1583B68ED
S31520000DC01B685B053A68527A13433A18127819431E
S31520000DD07B6818321201D15016E00F203B181A7882
S31520000DE07B6818321201D1583B685B68DB003A6891
S31520000DF0127A13433A68527A13433A1812781943EF
S31520000E007B6818321201D1503B689B7A0F2213401F
S31520000E10DAB23B689A720F243B191B787A6818332A
S31520000E201B01D31804331A683B191B780F218A43F8
S31520000E30796818331B01CB1804331A603B191B78C9
S31520000E407A6818331B01D31804331A683B689B7AD7
S31520000E5019003B191B780A43796818331B01CB18F4
S31520000E6004331A603B689B7B1A063B685B7B1B043A
S31520000E701A433B681B7B1B0213433A68D27A100045
S31520000E803A19117803431A007868C4235B000901D4
S31520000E904118CB181A603B689B7C1A063B685B7C22
S31520000EA01B041A433B681B7C1B0213433A68D27B04
S31520000EB010003A19117803431A007868C6235B009C
S31520000EC009014118CB181A603B191A787B68183229
S31520000ED01201D3583A191278012119437B68183226
S31520000EE01201D1500F23FB181B781800BD4605B000
S31520000EF090BD80B584B000AF78600A00FB1C1A70E4
S31520000F000023FB60FB1C1B78012B09D0022B0DD084
S31520000F10002B11D17B689B68254A1340FB600EE0AD
S31520000F207B689B68234A1340FB6008E07B689B68CC
S31520000F30214A1340FB6002E00023FB60C046FB68A9
S31520000F401E4A93421BD01D4A934208D81C4A9342FC
S31520000F5012D0174A934218D0002B0AD01EE0194A05
S31520000F6093420FD0144A934215D0124A93420FD07F
S31520000F7014E00223FB6014E00023FB6011E0002351
S31520000F80FB600EE00023FB600BE00123FB6008E022
S31520000F900123FB6005E00123FB6002E00023FB60E8
S31520000FA0C046FB68DBB21800BD4604B080BDC04613
S31520000FB003000004000300080000031000010008DD
S31520000FC0010000040000011080B582B000AF7860F7
S31520000FD00A00FB1C1A70FB1C1B78012B0BD0022B62
S31520000FE011D0002B00D016E07B689B6880221A4324
S31520000FF07B689A600FE07B689B68802212021A4306
S315200010007B689A6007E07B689B68802212041A43FB
S315200010107B689A60C046C046BD4602B080BD80B59A
S3152000102084B000AFF8607A600B203B180A1C1A7057
S315200010303B181A78FB681B321201D358DBB2042204
S315200010401340DAB27B681A727B681B7A002B0CD1AC
S315200010500B23FB181A78FB681B321201D3585B0D41
S315200010605B055A0D7B681A600BE00B23FB181A7878
S31520001070FB681B321201D358DB08DB00DA087B68D9
S315200010805A600B217B181A78FB681B321201D35841
S31520001090DBB202221340DAB27B685A727B181B78C5
S315200010A0FA681B331B01D31804331B68DBB20F22EB
S315200010B01340DAB27B689A7208003B181B78FA68EC
S315200010C01B331B01D31804331B681B0ADAB27B6857
S315200010D0DA743B181A78F968DC235B0012018A1847
S315200010E0D3181B68DAB27B68DA723B181A78F9686B
S315200010F0DC235B0012018A18D3181B681B0ADAB29C
S315200011007B681A733B181A78F968DC235B00120196
S315200011108A18D3181B681B0CDAB27B685A733B18E3
S315200011201A78F968DC235B0012018A18D3181B6829
S315200011301B0EDAB27B689A733B181A78F968DE239D
S315200011405B0012018A18D3181B68DAB27B68DA733F
S315200011503B181A78F968DE235B0012018A18D31827
S315200011601B681B0ADAB27B681A743B181A78F9686E
S31520001170DE235B0012018A18D3181B681B0CDAB217
S315200011807B685A743B181A78F968DE235B001201D3
S315200011908A18D3181B681B0EDAB27B689A743B1820
S315200011A01B78002B06D1FB68DB6820221A43FB68DC
S315200011B0DA6005E0FB681B6920221A43FB681A6186
S315200011C0C046BD4604B080BD80B582B000AF786011
S315200011D00A00FB1C1A70FB1C1B78002B06D17B68AF
S315200011E0DB6820221A437B68DA6005E07B681B698E
S315200011F020221A437B681A61C046BD4602B080BDD4
S3152000120080B584B000AF78600A00FB1C1A700F23EB
S31520001210FB1800221A70FB1C1B78002B08D17B6858
S31520001220DB68DAB20F23FB1803210A401A7010E09C
S31520001230FB1C1B78012B08D17B681B69DAB20F23B4
S31520001240FB1803210A401A7003E00F23FB18002223
S315200012501A700F23FB181B781800BD4604B080BDFA
S3152000126080B584B000AF78600A00FB1C1A700F238B
S31520001270FB1800221A70424BBB60FB1C1B78002B0C
S3152000128024D17B681B680322934301221A437B687F
S315200012901A6002E0BB68013BBB607B685B68032287
S315200012A01340012B02D0BB68002BF3D17B685B680F
S315200012B003221340012B04D00F23FB1800221A709F
S315200012C057E00F23FB1801221A7052E0FB1C1B78F3
S315200012D0012B21D17B681B68032293431A007B686C
S315200012E01A6002E0BB68013BBB607B685B68032237
S315200012F0134002D0BB68002BF4D17B685B680322C5
S31520001300134004D00F23FB1800221A7031E00F235C
S31520001310FB1801221A702CE0FB1C1B78022B24D10F
S315200013207B681B680322934302221A437B681A6058
S3152000133002E0BB68013BBB607B685B68032213400D
S31520001340022B02D0BB68002BF3D17B685B6803229B
S315200013501340022B04D00F23FB1800221A7008E03A
S315200013600F23FB1801221A7003E00F23FB1800221B
S315200013701A700F23FB181B781800BD4604B080BDD9
S31520001380FFFF000080B584B000AF78600F23FB1804
S3152000139000221A707B681B680322934302221A4399
S315200013A07B681A607B685B6803221340022B03D19B
S315200013B00F23FB1801221A700F23FB181B78180025
S315200013C0BD4604B080BD80B584B000AF7860154BB3
S315200013D0FB600B23FB1800221A707B681B68022215
S315200013E093431A007B681A6002E0FB68013BFB60AE
S315200013F07B685B6802221340022B02D1FB68002B1C
S31520001400F3D17B685B6802221340022B03D00B23A7
S31520001410FB1801221A700B23FB181B781800BD46F7
S3152000142004B080BDFFFF000080B584B000AF7860B7
S315200014300F217B1800221A707B689B69DAB208009C
S315200014407B1870210A401A7001007B181B7818003F
S31520001450BD4604B080BD80B584B000AF78600F2152
S315200014607B1800221A707B689B691A0E7B181A70EB
S315200014707B181B781800BD4604B080BD80B584B0AB
S3152000148000AF78600F217B1800221A707B689B6959
S315200014901A0C7B181A707B181B781800BD4604B0EE
S315200014A080BD80B584B000AFF860B960FB1D1A70AE
S315200014B0FB1D1B78002B06D0FB685A69BB681A43B4
S315200014C0FB685A6106E0FB685B69BA68D2431A403A
S315200014D0FB685A61C046BD4604B080BD80B584B065
S315200014E000AF786039600F23FB1800221A703A6823
S315200014F0F0231B04134010D07B689B693A68134085
S315200015001B031B0B04D00F23FB1801221A7056E075
S315200015100F23FB1800221A7051E03A6880235B04DF
S31520001520134010D07B685B683A6813401B031B0B83
S3152000153004D00F23FB1801221A7040E00F23FB185A
S3152000154000221A703BE03A6880231B05134010D016
S315200015507B689B683A6813401B031B0B04D00F2340
S31520001560FB1801221A702AE00F23FB1800221A709A
S3152000157025E03A6880239B04134010D07B68DB6803
S315200015803A6813401B031B0B04D00F23FB180122C0
S315200015901A7014E00F23FB1800221A700FE07B68E4
S315200015A01B693A6813401B031B0B04D00F23FB183F
S315200015B001221A7003E00F23FB1800221A700F2352
S315200015C0FB181B781800BD4604B080BD80B584B0DA
S315200015D000AF786039600023FB603B68164A93426F
S315200015E003D17B6800229A6121E03B681B031B0B19
S315200015F0FB603A6880239B04134003D07B68FA681B
S31520001600DA6014E03A688023DB04134003D07B6859
S31520001610FA681A610BE03A6880231B05134003D051
S315200016207B68FA689A6002E07B68FA685A60C0466E
S31520001630BD4604B080BDC0467000F03090B585B080
S3152000164000AF786039600F23FB1800221A707B6880
S315200016505B693A68134000D1DBE03B68402B00D140
S3152000166079E00ED8042B4AD004D8012B30D0022B97
S315200016703AD0C8E0102B58D0202B61D0082B49D067
S31520001680C1E080221201934200D1A6E080221201FD
S3152000169093420FD880229200934200D187E0802285
S315200016A0D200934200D18DE080225200934200D195
S315200016B072E0A8E080225202934257D08022920202
S315200016C093425ED080221202934200D190E09AE0AB
S315200016D07B689B680F22BC18534A1100180000F043
S315200016E01BF90300237098E07B68DB680F22BC1887
S315200016F00321180000F010F9030023708DE07B68A9
S31520001700DB680F22BC180821180000F005F9030039
S31520001710237082E07B68DB680F22BC18102118003A
S3152000172000F0FAF80300237077E07B681B690F222C
S31520001730BC180321180000F0EFF8030023706CE0BA
S315200017407B681B690F22BC180821180000F0E4F8FA
S315200017500300237061E07B681B690F22BC181021EF
S31520001760180000F0D9F80300237056E07B685B6808
S315200017700F22BC180821180000F0CEF803002370B1
S315200017804BE07B685B680F22BC181021180000F024
S31520001790C3F80300237040E07B689B690F22BC18C6
S315200017A00121180000F0B8F80300237035E07B68AB
S315200017B09B690F22BC180221180000F0ADF8030027
S315200017C023702AE07B689B690F22BC18042118002D
S315200017D000F0A2F8030023701FE07B689B690F22AC
S315200017E0BC187021180000F097F80300237014E04D
S315200017F07B685B680F22BC180421180000F08CF867
S315200018000300237009E00F23FB1800221A70C0463C
S3152000181003E00F23FB1800221A700F23FB181B78F6
S315200018201800BD4605B090BD0101010080B582B00B
S3152000183000AF786039603B688022520093424AD0DC
S315200018408022520093420CD8082B30D004D8012B8A
S3152000185025D0042B27D058E0202B2CD0402B2ED05F
S3152000186053E080221201934241D0802212019342FA
S3152000187008D880229200934231D08022D20093420F
S3152000188031D042E08022520293421CD08022920222
S3152000189093421CD08022120293422FD035E07B68DF
S315200018A01C4A9A6031E07B680822DA602DE07B686A
S315200018B01022DA6029E07B6808221A6125E07B681D
S315200018C010221A6121E07B6808225A601DE07B689D
S315200018D010225A6019E07B6804225A6015E07B6862
S315200018E004225A6011E07B6804225A600DE07B686E
S315200018F000229A617B6804225A6006E07B680022F7
S315200019009A617B6804225A60C046C046BD4602B032
S3152000191080BDC0460101010080B584B000AF78606B
S3152000192039600F23FB1800221A707B683A6813402F
S3152000193004D00F23FB1801221A7003E00F23FB1893
S3152000194000221A700F23FB181B781800BD4604B01E
S3152000195080BDC04680B582B000AF78607B684E4AB5
S31520001960934208D10121012000F0ECFE0021012044
S3152000197000F0E8FE8CE07B68484A934208D10121BA
S31520001980022000F0DFFE0021022000F0DBFE7FE0D7
S315200019907B68434A934208D10121042000F0D2FEFD
S315200019A00021042000F0CEFE72E07B683D4A93427F
S315200019B008D10121082000F0C5FE0021082000F0F2
S315200019C0C1FE65E07B68384A934208D10121102088
S315200019D000F0B8FE0021102000F0B4FE58E07B682D
S315200019E0324A934208D10121202000F0ABFE00218B
S315200019F0202000F0A7FE4BE07B682D4A934208D1B9
S31520001A000121402000F09EFE0021402000F09AFE99
S31520001A103EE07B68274A934208D10121802000F0CE
S31520001A2091FE0021802000F08DFE31E07B68224A65
S31520001A3093420CD180235B000121180000F082FE26
S31520001A4080235B000021180000F07CFE20E07B68EC
S31520001A501A4A93420CD180239B000121180000F0E2
S31520001A6071FE80239B000021180000F06BFE0FE022
S31520001A707B68134A93420BD18023DB000121180097
S31520001A8000F060FE8023DB000021180000F05AFEE3
S31520001A90C046BD4602B080BD0000024000040240A0
S31520001AA000080240000C02400010024000140240D0
S31520001AB000180240001C0240002002400024024080
S31520001AC00028024080B586B000AF786039600023D8
S31520001AD07B6100233B610023FB6000237B6176E072
S31520001AE001227B699A4013003B613B681A683B6977
S31520001AF01340FB60FA683B699A4265D17B681B6894
S31520001B007A695200032191400A00D2431A407B6829
S31520001B101A607B681A683B681B7919007B695B0031
S31520001B2099400B001A437B681A603B681B79012B8E
S31520001B3003D03B681B79022B2ED17B689B687A6980
S31520001B405200032191400A00D2431A407B689A60D2
S31520001B507B689A683B685B7919007B695B009940D2
S31520001B600B001A437B689A607B685B687A6992B23D
S31520001B70110001228A40D2431A407B685A607B6852
S31520001B805B683A68927911007A6992B291400A00AC
S31520001B9092B21A437B685A607B68DB687A6992B294
S31520001BA05200032191400A00D2431A407B68DA6032
S31520001BB07B68DA683B68DB7919007B695B009940B2
S31520001BC00B001A437B68DA607B6901337B617B6992
S31520001BD00F2B85D9C046BD4606B080BD80B582B0E4
S31520001BE000AF78607B68094A1A607B6800221A7108
S31520001BF07B6800225A717B6800229A717B680022DA
S31520001C00DA71C046BD4602B080BDC046FFFF000067
S31520001C1080B584B000AF78600A00BB1C1A80802390
S31520001C205B02FB60BB1C1A88FB681343FB60FA68E7
S31520001C307B68DA61BB1C1A887B68DA61FA687B6884
S31520001C40DA617B68DB69FB607B68DB69FB60C04629
S31520001C50BD4604B080BD80B584B000AF78600A0070
S31520001C60BB1C1A800F23FB1800221A707B681B6985
S31520001C70BA1C1288134004D00F23FB1801221A70B5
S31520001C8003E00F23FB1800221A700F23FB181B7882
S31520001C901800BD4604B080BD80B582B000AF786024
S31520001CA07B681B699BB21800BD4602B080BD80B51B
S31520001CB084B000AF78600A00BB1C1A800F23FB1883
S31520001CC000221A707B685B69BA1C1288134004D004
S31520001CD00F23FB1801221A7003E00F23FB180022A2
S31520001CE01A700F23FB181B781800BD4604B080BD60
S31520001CF080B582B000AF78607B685B699BB21800C4
S31520001D00BD4602B080BD80B582B000AF78600A00C3
S31520001D10BB1C1A807B68BA1C12881A83C046BD4633
S31520001D2002B080BD80B582B000AF78600A00BB1CCF
S31520001D301A807B68BA1C12885A83C046BD4602B0F8
S31520001D4080BD80B582B000AF786008001100BB1C52
S31520001D50021C1A807B1C0A1C1A707B1C1B78002B09
S31520001D6004D07B68BA1C12881A8303E07B68BA1CED
S31520001D7012885A83C046BD4602B080BD80B582B067
S31520001D8000AF78600A00BB1C1A80BB1C1A887B68CF
S31520001D905A61C046BD4602B080BD80B582B000AF54
S31520001DA078600A00BB1C1A807B685A69BB1C1B889A
S31520001DB05A407B685A61C046BD4602B080BD80B598
S31520001DC084B000AF786008001100BB1C021C1A808A
S31520001DD07B1C0A1C1A700023FB600023BB607B1C43
S31520001DE01A78BB1C1B8807210B409B009A401300C6
S31520001DF0FB60BB1C1B88DB089BB21A007B68083281
S31520001E009200D358BA1C128807210A4092000F214B
S31520001E1091400A00D243B91C0988C90889B2080032
S31520001E201A4011007B68020008329200D150BB1C78
S31520001E301B88DB089BB21A007B6808329200D358B5
S31520001E40FA681343BB60BB1C1B88DB089BB21A00D5
S31520001E507B6808329200B968D150C046BD4604B0AE
S31520001E6080BDC04680B500AF144B1A68134B0121C4
S31520001E700A431A60114B00229A60104B1A680F4BC6
S31520001E800F490A401A600D4B0E4A5A600B4A8423AA
S31520001E900D49D150094A88230C49D150074B1A685D
S31520001EA0064B0B490A401A60044B0022DA60034AAB
S31520001EB08C230021D150C046BD4680BD003802404B
S31520001EC0FFFFF6EA10300024003000200030002406
S31520001ED0FFFFFBFF80B582B000AF0200FB1D1A702A
S31520001EE0054B00221A70044AFB1D1B781370C0464E
S31520001EF0BD4602B080BDC0460238024090B583B0D0
S31520001F0000AF00233B60FB1D00221A70BB1D002280
S31520001F101A70BC1D312000F09BFD030023703B6826
S31520001F2001333B603A68A023DB019A4203D0BB1DF4
S31520001F301B78002BEDD0312000F08AFD031E03D044
S31520001F40FB1D01221A7002E0FB1D00221A70FB1DE8
S31520001F501B781800BD4603B090BD80B584B000AF95
S31520001F600200FB1D1A700023FB600A4B1B68FB60F6
S31520001F70FB68F8229343FB60FB1D1B78DB00FA68A5
S31520001F801343FB60034BFA681A60C046BD4604B093
S31520001F9080BDC0460038024080B582B000AF020046
S31520001FA0FB1D1A70034BFA1D12781A60C046BD46F7
S31520001FB002B080BD0000474280B582B000AF02006B
S31520001FC0FB1D1A700C4B00221A700B4B00221A7044
S31520001FD0FB1D1B78012B02D0042B04D007E0064BF7
S31520001FE001221A7003E0044B05221A70C046C0462F
S31520001FF0BD4602B080BDC0467038024080B582B072
S3152000200000AF0200FB1D1A70034BFA1D12781A60EE
S31520002010C046BD4602B080BD800E474280B584B022
S3152000202000AFF860B9607A603B607B689A01BB6854
S315200020301A433B685B08013B1B041A43FB681A439F
S315200020401100BB691A06034B0A435A60C046BD46B7
S3152000205004B080BD0038024080B582B000AF0200D7
S31520002060FB1D1A70034BFA1D12781A60C046BD4636
S3152000207002B080BD6000474280B582B000AF786074
S3152000208039607B689A013B681B0704491343842205
S315200020908B50C046BD4602B080BDC04600380240C7
S315200020A080B582B000AF0200FB1D1A70034BFA1DEB
S315200020B012781A60C046BD4602B080BD680047420D
S315200020C080B584B000AFF860B9607A60FB689A0189
S315200020D0BB681B061A437B681B07044913438822E7
S315200020E08B50C046BD4604B080BDC0460038024075
S315200020F080B582B000AF0200FB1D1A70034BFA1D9B
S3152000210012781A60C046BD4602B080BD70004742B4
S3152000211080B582B000AF0200FB1D1A70034BFA1D7A
S3152000212012781A60C046BD4602B080BD4C004742B8
S3152000213080B584B000AF786039600023FB600A4B1D
S315200021409B68FB60FB68094A1340FB607A683B6822
S315200021501343FA681343FB60034BFA689A60C04640
S31520002160BD4604B080BDC04600380240FFFF9FF840
S3152000217080B584B000AF786039600023FB600A4BDD
S315200021809B68FB60FB685B015B09FB607A683B68C8
S315200021901343FA681343FB60034BFA689A60C04600
S315200021A0BD4604B080BDC0460038024080B584B02C
S315200021B000AF78600023FB60084B9B68FB60FB68E0
S315200021C003229343FB60FA687B681343FB60034B4F
S315200021D0FA689A60C046BD4604B080BD0038024009
S315200021E080B500AF044B9B68DBB20C221340DBB2F8
S315200021F01800BD4680BDC0460038024080B584B078
S3152000220000AF78600023FB60084B9B68FB60FB688F
S31520002210F0229343FB60FA687B681343FB60034B11
S31520002220FA689A60C046BD4604B080BD00380240B8
S3152000223080B584B000AF78600023FB60084B9B68B4
S31520002240FB60FB68074A1340FB60FA687B68134310
S31520002250FB60034BFA689A60C046BD4604B080BD59
S3152000226000380240FFE3FFFF80B584B000AF7860FE
S315200022700023FB60094B9B68FB60FB68084A134000
S31520002280FB607B68DB00FA681343FB60034BFA684C
S315200022909A60C046BD4604B080BDC04600380240A4
S315200022A0FF1FFFFF80B588B000AF78600023BB61B9
S315200022B000237B610023FB6102233B610023FB603B
S315200022C00223BB60494B9B680C221340BB61BB6950
S315200022D0042B07D0082B09D0002B41D17B68444A18
S315200022E01A6041E07B68434A1A603DE03F4B5B68D9
S315200022F09B0D01221340FB603C4B5B683F22134041
S31520002300BB60FB68002B0DD0B9683A4801F054F940
S3152000231003001A00354B5B689B09DB05DB0D534335
S31520002320FB610CE0B968324801F046F903001A0057
S315200023302E4B5B689B09DB05DB0D5343FB612B4B67
S315200023405B681B0C0322134001335B003B61396938
S31520002350F86901F031F903001A007B681A6003E07E
S315200023607B68234A1A60C046204B9B68F0221340A4
S31520002370BB61BB691B09BB611F4ABB69D3181B78AC
S31520002380DBB27B617B681A687B69DA407B685A60BE
S31520002390164B9A68E0235B011340BB61BB699B0A1D
S315200023A0BB61154ABB69D3181B78DBB27B617B689E
S315200023B05A687B69DA407B689A600C4B9A68E023FE
S315200023C01B021340BB61BB695B0BBB610A4ABB693D
S315200023D0D3181B78DBB27B617B685A687B69DA404D
S315200023E07B68DA60C046BD4608B080BD0038024032
S315200023F00024F40040787D01CC3D002080B584B0D7
S3152000240000AF78600023FB607A68C0239B001A40E7
S31520002410C0239B009A420FD10D4B9B68FB60FB6843
S315200024200C4A1340FB607B680B4A1340FA6813433F
S31520002430FB60074BFA689A60054B196F7B681B0592
S315200024401A0D034B0A431A67C046BD4604B080BD29
S3152000245000380240FFFFE0FFFFFCFF0F80B582B08F
S3152000246000AF0200FB1D1A70034BFA1D12781A608A
S31520002470C046BD4602B080BD3C0E474280B582B004
S3152000248000AF0200FB1D1A70034BFA1D12781A606A
S31520002490C046BD4602B080BD400E474280B582B0E0
S315200024A000AF7860034B7A681A60C046BD4602B01A
S315200024B080BDC0465C01474280B584B000AF7860DD
S315200024C00023FB60094A8C23D358FB60FB68084A2B
S315200024D01340FB60FA687B681343FB6003498C2238
S315200024E0FB688B50C046BD4604B080BD0038024014
S315200024F0FFFFCFFF80B584B000AF78600023FB607C
S31520002500094A8C23D358FB60FB68084A1340FB60BA
S31520002510FA687B681343FB6003498C22FB688B5067
S31520002520C046BD4604B080BD00380240FFFF3FFFD5
S3152000253080B584B000AF78600023FB600A4A8C2304
S31520002540D358FB60FB681F229343FB607B68013BEB
S31520002550FA681343FB6004498C22FB688B50C04603
S31520002560BD4604B080BDC0460038024080B584B068
S3152000257000AF78600023FB600A4A8C23D358FB60A7
S31520002580FB68094A1340FB607B68013B1B02FA6823
S315200025901343FB6003498C22FB688B50C046BD4623
S315200025A004B080BD00380240FFE0FFFF80B584B054
S315200025B000AF78600023FB60094A8C23D358FB6068
S315200025C0FB68084A1340FB60FA687B681343FB608C
S315200025D003498C22FB688B50C046BD4604B080BDA3
S315200025E000380240FFFFFCFF80B582B000AF786064
S315200025F0034B7A681A60C046BD4602B080BDC0460D
S31520002600E011474280B582B000AF78600A00FB1C1B
S315200026101A70FB1C1B78002B06D0094B196B084B34
S315200026207A680A431A6306E0054B1A6B7B68D9431E
S31520002630034B0A401A63C046BD4602B080BDC04661
S315200026400038024080B582B000AF78600A00FB1CDB
S315200026501A70FB1C1B78002B06D0094B596B084BB4
S315200026607A680A435A6306E0054B5A6B7B68D9435E
S31520002670034B0A405A63C046BD4602B080BDC046E1
S315200026800038024080B582B000AF78600A00FB1C9B
S315200026901A70FB1C1B78002B06D0094B996B084B34
S315200026A07A680A439A6306E0054B9A6B7B68D9439E
S315200026B0034B0A409A63C046BD4602B080BDC04661
S315200026C00038024080B582B000AF78600A00FB1C5B
S315200026D01A70FB1C1B78002B06D0094B196C084B73
S315200026E07A680A431A6406E0054B1A6C7B68D9435C
S315200026F0034B0A401A64C046BD4602B080BDC046A0
S315200027000038024080B582B000AF78600A00FB1C1A
S315200027101A70FB1C1B78002B06D0094B596C084BF2
S315200027207A680A435A6406E0054B5A6C7B68D9439B
S31520002730034B0A405A64C046BD4602B080BDC0461F
S315200027400038024080B582B000AF78600A00FB1CDA
S315200027501A70FB1C1B78002B06D0094B1969084BF5
S315200027607A680A431A6106E0054B1A697B68D943E1
S31520002770034B0A401A61C046BD4602B080BDC04622
S315200027800038024080B582B000AF78600A00FB1C9A
S315200027901A70FB1C1B78002B06D0094B5969084B75
S315200027A07A680A435A6106E0054B5A697B68D94321
S315200027B0034B0A405A61C046BD4602B080BDC046A2
S315200027C00038024080B582B000AF78600A00FB1C5A
S315200027D01A70FB1C1B78002B06D0094B9969084BF5
S315200027E07A680A439A6106E0054B9A697B68D94361
S315200027F0034B0A409A61C046BD4602B080BDC04622
S315200028000038024080B582B000AF78600A00FB1C19
S315200028101A70FB1C1B78002B06D0094B196A084B33
S315200028207A680A431A6206E0054B1A6A7B68D9431E
S31520002830034B0A401A62C046BD4602B080BDC04660
S315200028400038024080B582B000AF78600A00FB1CD9
S315200028501A70FB1C1B78002B06D0094B596A084BB3
S315200028607A680A435A6206E0054B5A6A7B68D9435E
S31520002870034B0A405A62C046BD4602B080BDC046E0
S315200028800038024080B582B000AF78600A00FB1C99
S315200028901A70FB1C1B78002B06D0094B196D084BB0
S315200028A07A680A431A6506E0054B1A6D7B68D94398
S315200028B0034B0A401A65C046BD4602B080BDC046DD
S315200028C00038024080B582B000AF78600A00FB1C59
S315200028D01A70FB1C1B78002B06D0094B596D084B30
S315200028E07A680A435A6506E0054B5A6D7B68D943D8
S315200028F0034B0A405A65C046BD4602B080BDC0465D
S315200029000038024080B582B000AF78600A00FB1C18
S315200029101A70FB1C1B78002B06D0094B996D084BAF
S315200029207A680A439A6506E0054B9A6D7B68D94317
S31520002930034B0A409A65C046BD4602B080BDC046DC
S315200029400038024080B582B000AF78600A00FB1CD8
S315200029501A70FB1C1B78002B06D0094B196E084BEE
S315200029607A680A431A6606E0054B1A6E7B68D943D5
S31520002970034B0A401A66C046BD4602B080BDC0461B
S315200029800038024080B582B000AF78600A00FB1C98
S315200029901A70FB1C1B78002B06D0094B596E084B6E
S315200029A07A680A435A6606E0054B5A6E7B68D94315
S315200029B0034B0A405A66C046BD4602B080BDC0469B
S315200029C00038024080B582B000AF0200FB1D1A70AD
S315200029D0FB1D1B78012B06D1084B1A6F074B0821CC
S315200029E00A431A6705E0054B1A6F044B08218A43F0
S315200029F01A67C046BD4602B080BDC04600380240B8
S31520002A0080B582B000AF0200FB1D1A70BB1D0A1CE8
S31520002A101A70BB1D1B78002B09D00C4B1B78DAB221
S31520002A200A49FB1D1B781343DBB20B700AE0074BE8
S31520002A301B78DBB2FA1D1278D243D2B20349134077
S31520002A40DBB20B70C046BD4602B080BD0D380240D9
S31520002A5080B586B000AF0200FB1D1A700023FB6014
S31520002A6000237B611323FB1800221A70FB1D1B78A1
S31520002A705B09DBB2FB60FB68012B03D1144B1B689F
S31520002A807B6109E0FB68022B03D1114B1B6F7B6135
S31520002A9002E00F4B5B6F7B61FB1D1B781F221340EF
S31520002AA0FB607A69FB68DA4013000122134004D0E8
S31520002AB01323FB1801221A7003E01323FB180022AC
S31520002AC01A701323FB181B781800BD4606B080BD6C
S31520002AD00038024080B500AF044B5A6F034B80216B
S31520002AE049040A435A67C046BD4680BD00380240A5
S31520002AF080B584B000AF0200FB1D1A700F23FB18AF
S31520002B0000221A700A4BDB68FA1D1278134004D093
S31520002B100F23FB1801221A7003E00F23FB18002253
S31520002B201A700F23FB181B781800BD4604B080BD11
S31520002B300038024080B582B000AF0200FB1D1A703B
S31520002B40034AFB1D1B781370C046BD4602B080BDEC
S31520002B500E38024080B500AF8023DB01012118002A
S31520002B60FFF770FE8023DB0100211800FFF76AFEC5
S31520002B70C046BD4680BD80B582B000AF0200FB1DB9
S31520002B801A70044BFA1D12781A60C046BD4602B070
S31520002B9080BDC0460038014080B582B000AF02003B
S31520002BA0FB1D1A70034BFA1D12781A60C046BD46EB
S31520002BB002B080BD2000274280B584B000AF02005D
S31520002BC0FB1D1A70BB1D0A1C1A700023FB60BB1D5F
S31520002BD01B78032213409B000F229A401300FB60B0
S31520002BE0184ABB1D1B789B08DBB202339B009B58FF
S31520002BF0FA68D2431348B91D09788908C9B21A4020
S31520002C008B1C9B001A500F4ABB1D1B789B08DBB2FE
S31520002C1002339B009A58FB1D1978BB1D1B78032095
S31520002C2003409B0099400B000648B91D0978890886
S31520002C30C9B21A438B1C9B001A50C046BD4604B02D
S31520002C4080BDC0460038014080B582B000AF7860B4
S31520002C50034B7A681A60C046BD4602B080BDC046A6
S31520002C60DC00274280B582B000AF0200FB1D1A703F
S31520002C70034BFA1D12781A60C046BD4602B080BDCD
S31520002C800004274280B582B000AFFB1D00221A70D7
S31520002C90094B1A6A80235B00134003D0FB1D0122D7
S31520002CA01A7002E0FB1D00221A70FB1D1B7818000B
S31520002CB0BD4602B080BDC0460038014080B582B016
S31520002CC000AF0200FB1D1A70FB1D1B781A001F2384
S31520002CD01A400749FB1D1B785BB25B090120904017
S31520002CE002009B005A50C046BD4602B080BDC04679
S31520002CF000E100E080B582B000AF02003960FB1D24
S31520002D001A70FB1D1B787F2B0DD93B68DAB20F4951
S31520002D10FB1D1B7818000F230340043B1201D2B27F
S31520002D20CB181A760DE03B68DBB20949FA1D1278FA
S31520002D3052B21B01D8B2C0239B008A18D318021C9A
S31520002D401A70C046BD4602B080BDC04600ED00E008
S31520002D5000E100E090B58DB000AF786028243B19E3
S31520002D601800FEF73BFF6B4B1800FEF7F3FD6A4B8E
S31520002D701800FDF705FD80239B0401211800FFF7AD
S31520002D80A1FC01210220FFF73DFC624B092209210B
S31520002D901800FFF714F85F4B092208211800FFF7E7
S31520002DA00EF821007B18802292001A607B180222DE
S31520002DB01A717B1800229A717B180022DA717B180F
S31520002DC002225A710C007B18524A19001000FEF795
S31520002DD079FE21007B18802252001A607B1802227D
S31520002DE01A717B1800229A717B180122DA717B18DE
S31520002DF002225A710C007B18464A19001000FEF771
S31520002E0061FE21007B1840221A607B1802221A716B
S31520002E107B1800229A717B180022DA717B18022215
S31520002E205A710C007B183B4A19001000FEF74AFE27
S31520002E3021007B1820221A607B1802221A717B1827
S31520002E4000229A717B180122DA717B1802225A71AC
S31520002E507B18304A19001000FEF734FE18217B1823
S31520002E6000229A727B180022DA727B1801221A73CA
S31520002E707B182A4A1A807B1800225A807B18284AF7
S31520002E809A807B180022DA807B1800221A817B1810
S31520002E9001225A737B181800FDF77CFD0C217B1844
S31520002EA000229A717B180022DA717B1800221A728E
S31520002EB07B1800225A727B1800229A727B180022F5
S31520002EC0DA727B1800229A707B180022DA707B183F
S31520002ED002221A717B1803225A717B1807221A8044
S31520002EE07B180D4A19001000FDF772FC0D4B7A680D
S31520002EF01A6002211420FFF7FDFE1420FFF7DEFEE4
S31520002F00054B012202211800FEF7CBFAC046BD462A
S31520002F100DB090BD00040240006400402040000037
S31520002F20E043000090C00120B0B58AB000AF7860C1
S31520002F303E4B3B621F23FB1800221A707B681B78CE
S31520002F409A027B685B785B021A437B689B785B01FD
S31520002F5013437A68D27813431A0008217B181A6023
S31520002F607B1800225A727B1800221A727B681B7902
S31520002F70082B02D97B6808221A717B681A790823E4
S31520002F80FB189A722723FB1800221A7011E02720BB
S31520002F903B181A783B181B7879688A1851790822C9
S31520002FA0BA18D3180A1CDA723B181A783B18013261
S31520002FB01A707B681B792722BA1812789A42E6D3B0
S31520002FC01F257C190823FA183B6A11001800FDF703
S31520002FD09FFE030023707B191B78042B05D1144B0D
S31520002FE0180000F0D1F900231CE0C0461F23FB186F
S31520002FF01A783B6A11001800FDF77BFF0300022BAD
S31520003000F4D01F23FB181A783B6A11001800FDF72D
S3152000301070FF031E05D1074B180000F0B5F90023F9
S3152000302000E001231800BD460AB0B0BD0064004090
S31520003030983E0020AC3E002090B589B000AF786065
S31520003040304A314B11001800FEF748FA0300012BD5
S3152000305001D0002351E008210C007B182A481A00D1
S315200030600021FDF7DCFF21007B181B689B0ADBB2E1
S3152000307001221340DAB27B681A707B181B685B0A40
S31520003080DBB201221340DAB27B685A707B181B68C8
S315200030905B09DBB20F221340DAB27B689A707B1889
S315200030A01B68DBB21F221340DAB27B68DA707B180A
S315200030B09B7A0F221340DAB27B681A711F23FB1802
S315200030C000221A7011E01F203B181A783B181B7833
S315200030D0082179188A18D17A7A68D3180A1C5A7165
S315200030E03B181A783B1801321A707B681B791F220D
S315200030F0BA1812789A42E6D301231800BD4609B0C1
S3152000310090BDC046030000120064004080B582B026
S3152000311000AF7860044B7A6804490A43DA60C046F7
S31520003120BD4602B080BDC04600ED00E00000FA05B5
S31520003130B0B584B000AF78600F23FB1800221A7058
S315200031400E23FB1800221A700D23FB180F221A706B
S315200031507B68DB78002B4DD0314BDB68DB431B0AC9
S31520003160DAB20F203B1807210A401A700E257B1968
S315200031703A18127804218A1A1A700D243B191A78E3
S3152000318001007B181B781A413B191A707B685B7803
S315200031901A007B191B789A4008007B181A707B68E6
S315200031A09B783A1912781340D9B23B183A181278FC
S315200031B00A431A703B183A18127812011A70194AE3
S315200031C07B681B781900C0239B005218D3183A1825
S315200031D012781A707B681B781A001F231340114936
S315200031E07A6812785209D2B2100001229A408300DE
S315200031F05A5010E07B681B781A001F231340094998
S315200032007A6812785209D2B2100001229A4003003D
S3152000321020339B005A50C046BD4604B0B0BDC046C0
S3152000322000ED00E000E100E080B582B000AF7860FC
S3152000323039603B68054A13401900054B7A680A43F2
S315200032409A60C046BD4602B080BDC04680FFFF1FC3
S3152000325000ED00E080B582B000AF0200FB1D1A70C1
S31520003260BB1D0A1C1A70BB1D1B78002B07D00A4BEE
S315200032701969FB1D1A78084B0A431A6107E0064BA9
S315200032801A69FB1D1B78D943034B0A401A61C046B5
S31520003290BD4602B080BDC04600ED00E080B582B0DC
S315200032A000AF78607B68042B06D1084B1A68074B61
S315200032B004210A431A6005E0044B1A68034B0421D3
S315200032C08A431A60C046BD4602B080BD10E000E0C9
S315200032D080B582B000AF0200FB1D1A70C0460B4BB2
S315200032E01B889BB21A0080231340F8D0074AFB1D87
S315200032F01B789BB29380FB1D1B780A2B02D10D20D5
S31520003300FFF7E6FFC046BD4602B080BD0010014073
S3152000331080B500AF074B1B889BB21A0020231340B1
S3152000332001D1002303E0034B9B889BB2DBB218003C
S31520003330BD4680BD0010014080B500AFC046074B9A
S315200033401B889BB21A0020231340F8D0034B9B887E
S315200033509BB2DBB21800BD4680BDC04600100140BE
S3152000336080B582B000AF786006E07B685A1C7A6030
S315200033701B781800FFF7ACFF7B681B78002BF4D175
S31520003380C046BD4602B080BD80B582B000AF786031
S315200033907B681800FFF7E4FF0A20FFF799FFC04675
S315200033A0BD4602B080BDC04680B500AF084B0022A6
S315200033B01A60074B00225A60054B00229A60044B84
S315200033C00022DA60024B034A5A61C046BD4680BDE0
S315200033D0003C0140FFFF7F0080B584B000AF7860DD
S315200033E00023FB60334BFB607B689B79002B4FD01F
S315200033F0304B1A687B681B68D9432E4B0A401A60EB
S315200034002C4B5A687B681B68D9432A4B0A405A6062
S315200034107B681B791A00FB689B18FB60FB681968A0
S315200034207B681A68FB680A431A60224B9A687B6895
S315200034301B68D9431F4B0A409A601E4BDA687B688B
S315200034401B68D9431B4B0A40DA607B685B79102BDB
S315200034500ED1184B99687B681A68164B0A439A60F6
S31520003460144BD9687B681A68124B0A43DA601DE050
S31520003470104BFB607B685B791A00FB689B18FB602E
S31520003480FB6819687B681A68FB680A431A600DE0B6
S315200034907B681B791A00FB689B18FB60FB681A681F
S315200034A07B681B68D943FB680A401A60C046BD4644
S315200034B004B080BD003C014080B582B000AF78608A
S315200034C07B6800221A607B6800221A717B680C22B6
S315200034D05A717B6800229A71C046BD4602B080BDF3
S315200034E080B582B000AF7860044B1969034B7A68C7
S315200034F00A431A61C046BD4602B080BD003C014069
S3152000350080B584B000AF78600F23FB1800221A70B4
S315200035100A4B5B697A68134004D00F23FB180122FB
S315200035201A7003E00F23FB1800221A700F23FB18D2
S315200035301B781800BD4604B080BDC046003C014043
S3152000354080B582B000AF7860034B7A685A61C04676
S31520003550BD4602B080BDC046003C014080B584B067
S3152000356000AF78600F23FB1800221A700A4B5B69A4
S315200035707A68134004D00F23FB1801221A7003E047
S315200035800F23FB1800221A700F23FB181B78180034
S31520003590BD4604B080BDC046003C014080B582B027
S315200035A000AF7860034B7A685A61C046BD4602B0C8
S315200035B080BDC046003C0140002243088B4274D3A4
S315200035C003098B425FD3030A8B4244D3030B8B42FE
S315200035D028D3030C8B420DD3FF22090212BA030C07
S315200035E08B4202D31212090265D0030B8B4219D3E8
S315200035F000E0090AC30B8B4201D3CB03C01A524108
S31520003600830B8B4201D38B03C01A5241430B8B424F
S3152000361001D34B03C01A5241030B8B4201D30B0338
S31520003620C01A5241C30A8B4201D3CB02C01A52415F
S31520003630830A8B4201D38B02C01A5241430A8B4222
S3152000364001D34B02C01A5241030A8B4201D30B020B
S31520003650C01A5241CDD2C3098B4201D3CB01C01A25
S31520003660524183098B4201D38B01C01A524143092F
S315200036708B4201D34B01C01A524103098B4201D31D
S315200036800B01C01A5241C3088B4201D3CB00C01A8A
S31520003690524183088B4201D38B00C01A5241430802
S315200036A08B4201D34B00C01A5241411A00D2014627
S315200036B0524110467047FFE701B5002000F006F89A
S315200036C002BDC0460029F7D076E770477047C0464E
S315200036D0F0B55746DE464E464546E0B583460600DB
S315200036E00F03480087B092461D003F0B400DCC0FBC
S315200036F0002800D16FE0DE4B984238D08023FF00AF
S315200037001B041F43730F3B430193DA4B0027994653
S3152000371000239B46F60081442B0369001B0B52466F
S315200037209846490DED0F002900D185E0D04B9942EE
S3152000373000D173E04346DA0080231B04134352462C
S31520003740CC48520F84461343524600206144D2008F
S3152000375089442100694000918C46012149448A46CA
S315200037600F2F00D990E0C449BF00CF59BF465B4612
S315200037703B43019300D06AE10223082700268146B5
S315200037809B46C9E732005846019B614600910228B4
S3152000379000D175E0032800D1FEE1012800D02CE1FC
S315200037A000230027002600253F032A0D3F0BB348A0
S315200037B012053A4302401B051343009A5B00D107CA
S315200037C05B080B433000190007B03CBC9046994675
S315200037D0A246AB46F0BD5B463B43019300D12FE1A9
S315200037E0002F00D1A5E1380000F04CFA03000B3B76
S315200037F01C2B00DD96E11D22D31A5A460100DA4021
S315200038005E4608398F4013008E403B4301939C4B04
S3152000381000271B1A994600239B467DE741465346BF
S315200038200B4393498C46E144002B00D01AE1022237
S315200038300220174300228CE7134300D10DE14346B3
S31520003840002B00D181E1404600F01CFA02000B3A21
S315200038501C2A00DD72E10100434608398B40984658
S315200038601D239A1A5346D3401A0043461343524601
S315200038708A404946081A824989468144002068E7D9
S315200038807B4B002700268EE7140C1204120C110025
S31520003890370C3604350C794328008C462E006043BD
S315200038A06044834656432100300C8046584679436F
S315200038B040440291844506D98846802149028C4697
S315200038C0E044414602913604010C360C00048B4636
S315200038D081191E0C1B041B0C0391190079438C467D
S315200038E0280075436544A8465843050C454477434C
S315200038F0A94203D9802149028C466744290C8C466B
S3152000390039000004000C2D042D186144AB440591A8
S315200039105946049101990F043F0C080C3900514374
S315200039204243904602008C46090C8B4662437C43F8
S3152000393044445C44A04503D9802149028846424438
S31520003940210C884661460904090C8C4639005943E6
S31520003950434370437E430F0CF6182404BE19644477
S3152000396042448C46B34203D980235B0298464044A6
S31520003970029B61469846049B370443449B46AB45CD
S31520003980AD416B420D0405992D0C8C467F19674479
S31520003990FD18A8465D462D19A542A44193466442CA
S315200039A0A446C344DC448F42BF4198459B4193457E
S315200039B09241A445A4415B427F421F43360C5242AA
S315200039C06442BF192243BF18624638184302D20DFB
S315200039D0039913436A020A43501E82416146ED0D44
S315200039E02A434E023243D90100D4B3E001265008BF
S315200039F032400243DE0732435B08224C5444002CFB
S31520003A0062DD510709D00F201040042805D0101D73
S31520003A109042924152429B180200D90104D580243B
S31520003A201948E400034054441848844200DD27E73F
S31520003A305E075B02D2081F0B630516435B0DB2E6D9
S31520003A40002399460133042700269B4664E6032378
S31520003A50019781460C279B465EE6012201201743EB
S31520003A60002276E6032303201F43434671E6C04621
S31520003A70FF07000001FCFFFFBC3E0020FFFF0F8078
S31520003A800DFCFFFFFF030000FFFFFFFEFE07000007
S31520003A900023802700933F030026434B83E6019BA8
S31520003AA03200A446584670E6AC466EE68027019959
S31520003AB03F0339422DD03B422BD11F433F033F0BBF
S31520003AC000951600384B6EE601252D1B382D00DD9E
S31520003AD066E61F2D40DC35481C0050441600824007
S31520003AE08440EE40501E824134431443EB4062072B
S31520003AF009D00F222240042A05D02200141D944208
S31520003B00804140421B181A023ED501230027002679
S31520003B1049E68027019B3F031F433F033F0B009449
S31520003B20214B40E603005A46283B9A400026019244
S31520003B306DE6584600F0A6F8203057E603005246B8
S31520003B40283B9A401300002293E6504600F09AF84C
S31520003B5020307BE6CA4650E71F201E004042041B49
S31520003B60E640202D03D0124C5444A3401A43501E45
S31520003B708241324307260027164009D00F20002312
S31520003B80104014000428B9D122005E075B021F0BE7
S31520003B90D2081643002306E680273F031F433F0330
S31520003BA03F0B1600004BFEE5FF0700001E04000039
S31520003BB03E04000030B5144D0A034B00120B5B0D7A
S31520003BC0C90F0024AB4211DD104CA34210DC802427
S31520003BD0640322430E4CE41A1F2C0CDD0D48C31A35
S31520003BE0DA4013005C42002900D11C00200030BDC1
S31520003BF0094BCC18FAE7094DE040AC4663449A409D
S31520003C0013000343EEE7C046FE0300001D04000038
S31520003C103304000013040000FFFFFF7FEDFBFFFFCE
S31520003C2010B5041E25D000F02DF8144B1B1A5B0589
S31520003C305B0D0A2812DD0B38844000222403240B56
S31520003C400021100024030A0D240B120522430C4CDC
S31520003C501B05224013435B00590810BD02002100BA
S31520003C60153291400A000B21081AC4402403240B64
S31520003C70E6E7002300240022E2E7C0461E040000F7
S31520003C80FFFF0F801C2101231B04984201D3000C47
S31520003C9010391B0A984201D3000A08391B09984299
S31520003CA001D30009043902A2105C40187047C046AF
S31520003CB004030202010101010000000000000000CF
S31520003CC0931E10B50C00222B04D900231C000B7068
S31520003CD0200010BD0A2A09D1002807DA2D230B70EF
S31520003CE001214042611800F007F8F1E70021F9E7C9
S31520003CF010B5FFF7E5FF10BDF0B517008DB02522F2
S31520003D0006000D0002A8144900F02CF802AABB1EDA
S31520003D1000240192222B05D92C70250028000DB0F5
S31520003D20F0BD140030003900FFF7CCFC8446019822
S31520003D30621CAB18415C5E1E31706646002EF0D1C7
S31520003D401E702B005A1B9442E8DD1A78295D1970E3
S31520003D502A550133013CF5E7FC3E002010B5FFF75C
S31520003D60CBFF10BD002310B59A4200D110BDCC5C0C
S31520003D70C4540133F8E700000000000000000000F2
S31520003D80000000000000000000000000000000000D
S31520003D9000000000000000000000000000000000FD
S31520003DA000000000000000000000000000000000ED
S31520003DB000000000000000000000000000000000DD
S31520003DC00000000064000000007A030A00000000E2
S31520003DD00102030401020304060708094E65772041
S31520003DE06C696D6974207365743A200000000000C8
S31520003DF0566962726174696F6E2073656E736F7235
S31520003E00204F4B2100000000556C74726120736FA7
S31520003E10756E642073656E736F72204F4B210000A0
S31520003E205641524E494E473A20496E76616C696436
S31520003E30206D657373616765207479706500000075
S31520003E402A2A2A4572726F723A20536F6D657468FA
S31520003E50696E672077656E742077726F6E67203A79
S31520003E60280000009A050020A6050020AC050020A9
S31520003E70B2050020BE050020556C747261736F7503
S31520003E806E642073656E736F722063616C696272F3
S31520003E90617465642100000043414E2054784275C8
S31520003EA0662066756C6C210A0D00000043414E2089
S31520003EB05478206661696C210A0D0000883800203C
S31520003EC08A3700208A370020A83A0020843700202D
S31520003ED084370020903A0020A83A0020843700201A
S31520003EE0903A002084370020A83A00209E3A0020ED
S31520003EF09E3A00209E3A0020AC3A002030313233E0
S31520003F003435363738396162636465666768696A4D
S31520003F106B6C6D6E6F707172737475767778797A53
S30920003F200000000077
S70520000000DA
